:020000040800F2
:100000001807002001010008F9260008DB2200087B
:10001000F526000887060008792B0008000000007C
:100020000000000000000000000000002927000878
:100030008B06000800000000FD2600082B270008A2
:100040001B0100081B0100081B0100081B01000820
:100050001B0100081B0100081B0100081B01000810
:100060001B0100081B0100081B0100081B01000800
:100070001B0100081B0100081B0100081B010008F0
:100080001B0100081B0100081B0100081B010008E0
:100090001B0100081B0100081B0100081B010008D0
:1000A0001B0100081B0100081B0100081B010008C0
:1000B0001B0100081B0100081B0100081B010008B0
:1000C0001B0100081B0100081B0100081B010008A0
:1000D0001B010008692B00081B0100081B01000818
:1000E0001B0100081B0100081B010008DFF80CD0F1
:1000F00000F096FA00480047C534000818070020B1
:100100000648804706480047FEE7FEE7FEE7FEE7B1
:10011000FEE7FEE7FEE7FEE7FEE7FEE799270008B9
:10012000ED000008202A04DB203A21FA02F0002129
:10013000704721FA02F3D040C2F1200291400843F7
:1001400019467047D2B201E000F8012B491EFBD2DC
:1001500070470022F6E710B513460A4604461946D2
:10016000FFF7F0FF204610BD2DE9FE4F81EA0304A2
:1001700004F0004421F0004100944FF0000B23F004
:10018000004350EA01045ED052EA03045BD0C3F39B
:100190000A54C1F30A552C44A4F2F3340194A0FB91
:1001A0000254C1F3130141F48011C3F3130343F468
:1001B000801301FB024400FB034E840A970A44EAC1
:1001C000815447EA8357A4FB076802958D0A05FB13
:1001D00007854FEA932C04FB0C542705029D4FEA38
:1001E000065847EA1637B5EB08056EEB070C870E85
:1001F000920E47EA811742EA8312A7FB0201B6EB8F
:100200000B0164EB00042B0D43EA0C335E1844EB46
:100210001C50DA465146E7FB0201C5F313044FEACE
:100220000B3343EA14534FEA0432019C43EA0603BA
:10023000A4F10C040294009CCDE900B400F0CBF8CA
:1002400003B0BDE8F08F00200146F9E72DE9F04D3D
:1002500081EA030404F0004B21F0004514464FF0FE
:10026000000A23F0004150EA050220D054EA0102BE
:100270001DD0C5F30A570246C5F31303C1F313009B
:10028000C1F30A5640F4801543F48013A7EB060827
:10029000101BD64608F2FD3873EB050002D308F1B7
:1002A000010801E092185B41B8F1000F03DA002069
:1002B0000146BDE8F08D00204FF4801106468446CB
:1002C0000EE0171B73EB050705D3121B63EB050349
:1002D00006434CEA010C49084FEA300092185B4192
:1002E00050EA0107EDD152EA030012D082EA04007D
:1002F00083EA0501084305D0101BAB4106D2012259
:10030000002306E000224FF0004302E06FF00102FC
:1003100053101AEB06004CEB085110EB0A0041EBAE
:100320000B01BDE8F04D00F047B830B50B46014673
:1003300000202022012409E021FA02F59D4205D384
:1003400003FA02F5491B04FA02F52844151EA2F12E
:100350000102F1DC30BD2DE9F05F05460020924638
:100360009B4688460646814640241BE02846414677
:1003700047462246FFF7D6FE53465A46C01A9141D9
:1003800010D311461846224600F05CF92D1A67EB8F
:1003900001084F4622460120002100F053F917EBD7
:1003A00000094E41201EA4F10104DFDC484631461D
:1003B0002A464346BDE8F09F10B5141E73F10004B1
:1003C00008DA401C41F1000192185B411A4301D147
:1003D00020F0010010BD2DE9F04D92469B4611B171
:1003E000B1FA81F202E0B0FA80F22032904600F0D9
:1003F00029F904460F4640EA0A0041EA0B01534638
:100400005A46084313D0114653EA010019D0C8F1E7
:1004100040025046FFF786FE05460E4650465946B6
:10042000424600F00FF9084305D0012004E02046C1
:100430003946BDE8F08D0020054346EAE0762C43BE
:1004400037430A986305E40AA0EB08000022FD0A7E
:1004500044EA47540A3002D500200146E9E7010585
:1004600010196941DDE9084500196941BDE8F04D01
:10047000A2E72DE9FE4F804681EA0300C00F0C463B
:10048000009021F0004123F00045B8EB0200A941A3
:1004900005D24046214690461C460B46024623F0B4
:1004A0000040104347D0270DC7F30A00C3F30A5199
:1004B0000290401A019040286BDAC3F3130040F415
:1004C000801B0098924620B10023D2EB030A63EB15
:1004D0000B0B01985946C0F14002504600F0B2F8AB
:1004E00006460D4650465946019A00F0BAF810EB00
:1004F00008006141002487EA115284EAE7731A4335
:1005000040D0009A62B3019A012A4FEA075215DCE3
:10051000001B61EB02014FF0004202EA0752CDE9F5
:100520000042001C41F5801132462B46FFF753FF75
:1005300003B0BDE8F08F40462146F9E7001B61EBB0
:100540000201001C41F5801300185B412018A2F540
:10055000001747EB030140EAD570B6196D4111E071
:100560006D084FEA360645EAC0754FEA0752001B90
:1005700061EB0201001C41F5801149084FEA30008F
:100580000019514132462B4603B0BDE8F04FFFF74A
:1005900013BF0098012240000023D0EB020263EB5E
:1005A000E073009821464FEAE074B8EB000061EB7D
:1005B0000401E9E783F000435BE781F0004158E77D
:1005C000C1F30A52C1F3130140F2FF3341F4801129
:1005D0009A4202DA00200146704740F233439A42C1
:1005E000A2F2334202DC5242FFF79CBD00F02AB86F
:1005F00030B5041E71F1000404DB4FF000444042AA
:1006000064EB0101141E73F1000405DB1C464FF07E
:100610000043524263EB0403994208BF904230BD4D
:10062000064C074D06E0E06840F0010394E807003F
:1006300098471034AC42F6D3FFF75CFD58350008FC
:1006400078350008202A04DB203A00FA02F1002065
:1006500070479140C2F1200320FA03F31943904000
:100660007047202A06DBCB17203A41FA02F043EA12
:10067000E07306E041FA02F3D040C2F1200291405B
:1006800008431946704700BFFEE7704772B600BFC7
:10069000FEE700000021074AD1610749096941F0DE
:1006A0000401054A11611146096941F040011161D7
:1006B00070470000F8000020002002400021074A97
:1006C000D1610749096941F00201054A11611146EA
:1006D0004861096941F0400111617047F80000204C
:1006E000002002400022054BDA61054A126942F0FF
:1006F0000102034B1A61018070470000F8000020DE
:100700000020024000201E49C96801F0100139B1E3
:100710001C49C96941F002011A4AD16140F0100038
:100720001749C96801F0040139B11649C96941F096
:100730000101144AD16140F004001149C96901F076
:10074000010169B10F49C96941F004010D4AD16144
:1007500000BF0B49C96921F00101094AD16100BFFD
:1007600000BF40F20111884206D10549C96921F054
:100770000101034AD16101E00149C86000BF70472F
:1007800000200240F800002070B5044600F0DCFDB7
:10079000054609E0601C38B124B100F0D5FD401BCE
:1007A000A04201D9032070BD1248C06800F00100CA
:1007B0000028EFD10F48C06800F0200020B100BF32
:1007C00020200C49C86000BF0A48C06800F0100033
:1007D00048B90848C06900F0010020B90548C06860
:1007E00000F0040018B1FFF78DFF0120DBE70020C7
:1007F000D9E7000000200240F0B504460D461E4631
:1008000094F8207020688368A86800B900E000BFF1
:10081000012F01D0022F7DD103F0806030B903F0A9
:10082000006018B903F0805000287ED0C3F3016146
:10083000012088403060A86860B9B5F800C0E86859
:1008400040EA4C5C206800F5C07000EB0110C0F875
:1008500000C00FE0D5E901C040EACC00D5F80CC0DB
:1008600040EA0C00D4F800C00CF5C07C0CEB011C75
:10087000CCF80000D5F810C0206800F5C07000EB7F
:100880000110C0F804C0287D01280ED1206800F5B1
:10089000C07000EB0110406840F4807C206800F5D7
:1008A000C07000EB0110C0F804C0D079000692F8C7
:1008B00006C040EA0C4092F805C040EA0C2092F8CD
:1008C00004C040EA0C00D4F800C00CF5C07C0CEB6E
:1008D000011CCCF80C00D078000692F802C040EA67
:1008E0000C4092F801C040EA0C2092F800C040EAA7
:1008F0000C00D4F800C00CF5C07C0CEB011CCCF84B
:100900000800206800F5C07000EB0110006840F09E
:10091000010C01E00FE008E0206800F5C07000EB7A
:100920000110C0F800C00020F0BD606A40F4001063
:1009300060620120F8E7606A40F480206062012074
:10094000F2E7F0B504460A46216894F82050012DDC
:1009500001D0022D74D1D1F8000240F00100C1F89D
:100960000002107D00F01F06012000FA06F3D1F806
:100970001C029843C1F81C02D069C8B9D1F80C0216
:100980009843C1F80C02908880B2968940EA0646E6
:1009900001F51070576940F83760108880B21689E9
:1009A00040EA064601F51070576900EBC700466043
:1009B000D069012819D1D1F80C021843C1F80C02F2
:1009C000908880B2168840EA064601F51070576993
:1009D00040F83760908980B2168940EA064601F5F2
:1009E0001070576900EBC7004660906928B9D1F8CC
:1009F00004029843C1F8040204E0D1F80402184349
:100A0000C1F80402106928B9D1F814029843C1F85A
:100A1000140204E0D1F814021843C1F81402106A59
:100A2000012804D1D1F81C021843C1F81C02D1F8E6
:100A3000000220F00100C1F800020020F0BDFFE735
:100A4000606A40F4802060620120F7E701460020E0
:100A500091F82020012A01D0022A11D10B689B684D
:100A600003F0806303B1401C0B689B6803F00063D4
:100A700003B1401C0B689B6803F0805303B1401C1A
:100A8000704770B504460CB9012070BD94F8200081
:100A900010B9204600F0B0F82068006840F001006E
:100AA0002168086000F050FC05460DE000F04CFCA9
:100AB000401B0A2808D9606A40F4003060620520B3
:100AC00084F820000120E0E72068406800F0010081
:100AD0000028EBD02068006820F002002168086040
:100AE00000F032FC05460DE000F02EFC401B0A2809
:100AF00008D9606A40F400306062052084F8200064
:100B00000120C2E72068406800F002000028EBD115
:100B1000207E012806D12068006840F0800021680E
:100B2000086005E02068006820F080002168086007
:100B3000607E012806D12068006840F040002168EE
:100B4000086005E02068006820F040002168086027
:100B5000A07E012806D12068006840F020002168AE
:100B6000086005E02068006820F020002168086027
:100B7000E07E012806D12068006820F0100021687E
:100B8000086005E02068006840F0100021680860F7
:100B9000207F012806D12068006840F00800216805
:100BA000086005E02068006820F0080021680860FF
:100BB000607F012806D12068006840F004002168A9
:100BC000086005E02068006820F0040021680860E3
:100BD000D4E9020108432169084361690843616857
:100BE000491E08432168C86100206062012084F822
:100BF0002000002049E7000010B586B00446002020
:100C000002900390049005901F492068884239D1D2
:100C100000BF1E48C06940F000701C49C86108460A
:100C2000C06900F00070019000BF00BF00BF08461F
:100C3000806940F0080088610846806900F008007B
:100C4000019000BF00BF881502900020039004901F
:100C500002A90F4800F0E2F94FF400700290022060
:100C600003900320059002A9094800F0D7F900BFBE
:100C70000849486820F4C04040F0E06040F48040FB
:100C8000486000BF06B010BD006400400010024084
:100C9000000C01400000014070B5044694F82000AB
:100CA000012822D1022084F820002068006820F06A
:100CB00001002168086000F047FB05460DE000F0E8
:100CC00043FB401B0A2808D9606A40F40030606288
:100CD000052084F82000012070BD2068406800F0E5
:100CE00001000028EBD16062F6E7606A40F4002062
:100CF00060620120F0E710B504460CB9012010BD78
:100D0000607920B900202071204600F005F801200C
:100D100060710020F3E7000008B5094A01689142BC
:100D20000DD100BF0749496941F04001054A5161B1
:100D30001146496901F04001009100BF00BF08BDA4
:100D400000300240001002400146002291F82100CC
:100D5000022808D00420886300BF002081F820000A
:100D600000BF012070470868006820F00E000B6883
:100D700018600868006820F001000B68186091F89E
:100D8000403001209840CB6B5860012081F8210051
:100D900000BF002081F8200000BF1046E2E70000FD
:100DA00070B50446002594F82100022803D00420E1
:100DB000A063012548E02068006820F00E0021684B
:100DC00008602068006820F00100216808601F4961
:100DD0002068884201D1012026E01C491431206896
:100DE000884201D110201FE018492831206888422C
:100DF00001D1801518E015493C312068884201D1A5
:100E0000801411E0114950312068884202D14FF41A
:100E1000803009E00D4964312068884202D14FF4E6
:100E2000801001E04FF080700849083948600120C7
:100E300084F8210000BF002084F8200000BF606B10
:100E400010B12046616B8847284670BD08000240FB
:100E500070B5044600F078FA06462546681C10B1C5
:100E600004480078054400BF00F06EFA801BA842D9
:100E7000FAD370BD100000202DE9F04104460E4663
:100E80000127002500BF2648007E012802D102204C
:100E9000BDE8F08101202249087600BF20680228C1
:100EA00013D14CF25030FFF76FFC90BB0120FFF7DD
:100EB000F1FB4CF25030FFF767FC07461948006918
:100EC00020F004001749086123E04CF25030FFF78E
:100ED0005BFCF0B94FF0FF303060A56812E02846A7
:100EE000FFF7ECFB4CF25030FFF74EFC07460D4885
:100EF000006920F002000B4908610FB1356007E07E
:100F000005F58065D4E9021001EB8020A842E6D8FF
:100F100000BF00BF00200249087600BF3846B7E78F
:100F2000F8000020002002400348006940F08000E3
:100F30000149086100207047002002402DE9FE4F62
:100F400005468B461746984601260024002002904D
:100F500000BF2448007E012802D10220BDE8FE8F98
:100F600001202049087600BF4CF25030FFF70CFCFE
:100F7000064686BB012D02D10120029006E0022D1B
:100F800002D10220029001E00420029000241EE021
:100F90002201B946C24648465146FFF7C3F880B21F
:100FA0000190022000FB04B000900199FFF79AFB2A
:100FB0004CF25030FFF7E8FB06460B48006920F082
:100FC00001000949086106B104E0601CC4B202983E
:100FD0008442DDDB00BF00BF00200249087600BF6D
:100FE0003046BBE7F80000200020024000200849FE
:100FF000096901F0800151B10649054A516006496D
:1010000051601146096901F0800101B1012070476A
:101010000020024023016745AB89EFCD2DE9F84759
:101020000346002294466EE14FF0010808FA02F4EC
:10103000D1F8008008EA0400A0427DD1DFF8DCA2EC
:10104000D1F80480A8EB0A09D0453AD014DCB8F1F5
:10105000030F50D009DCB8F1000F31D0B8F1010F07
:101060001CD0B8F1020F49D120E0B8F1110F18D00F
:10107000B8F1120F42D11EE0B9F5881F25D006DC69
:10108000B9F5803F20D0B9F5801F37D11AE0B9F506
:10109000001F18D0B9F5041F30D117E0D1F80CC0EB
:1010A0002DE0D1F80C8008F1040C28E0D1F80C8078
:1010B00008F1080C23E0D1F80C8008F10C0C1EE0BC
:1010C00000BF00BF00BF00BF00BF00BFD1F8088055
:1010D000B8F1000F02D14FF0040C0BE0D1F80880FA
:1010E000B8F1010F03D14FF0080C1C6102E04FF082
:1010F000080C5C6103E04FF0000C00E000BF00BF93
:10110000FF2801D8984601E003F104084646FF286D
:1011100002D84FEA820803E0A2F108084FEA8808E3
:101120004746D6F800804FF00F0909FA07F928EA78
:1011300009080CFA07F900E088E048EA0908C6F84F
:101140000080D1F8048008F08058B8F1805F7DD12C
:1011500000BFDFF8CC81D8F8188048F00108DFF82C
:10116000C091C9F81880C846D8F8188008F001085E
:10117000CDF8008000BF00BF4FEAB9384FEA9209AE
:1011800058F829504FEA82784FEA18794FF00F0843
:1011900008FA09F825EA0805DFF88881434502D1F5
:1011A0004FF0000816E0DFF88081434502D14FF090
:1011B00001080FE0DFF87481434502D14FF00208C7
:1011C00008E0DFF86C81434502D14FF0030801E0ED
:1011D0004FF004084FEA82794FEA197908FA09F8C2
:1011E00048EA0505DFF84C814FEA920948F8295092
:1011F000D1F8048008F48018B8F5801F0AD1DFF810
:101200003881D8F8008048EA0008DFF82C91C9F846
:10121000008009E0DFF82081D8F8008028EA000883
:10122000DFF81491C9F80080D1F8048008F40018A0
:10123000B8F5001F10D1DFF8008108F10408D8F8D4
:10124000008048EA0008DFF8F09000E05AE009F179
:101250000409C9F800800DE0DFF8DC8008F104081B
:10126000D8F8008028EA0008DFF8CC9009F10409DA
:10127000C9F80080D1F8048008F40038B8F5003FC0
:101280000ED1DFF8B480A8F10408D8F8008048EA4D
:101290000008DFF8A490A9F10409C9F800800DE066
:1012A000DFF89480A8F10408D8F8008028EA000844
:1012B000DFF88490A9F10409C9F80080D1F804800E
:1012C00008F48038B8F5803F0ED1DFF86C80A8F1C3
:1012D0000808D8F8008048EA0008DFF85C90A9F117
:1012E0000809C9F800800DE0DFF84C80A8F1080873
:1012F000D8F8008028EA0008DFF83C90A9F1080936
:10130000C9F80080521CD1F8008028FA02F8B8F120
:10131000000F7FF489AEBDE8F887000000001110CF
:101320000010024000080140000C01400010014084
:101330000014014008000140080401400AB10161A5
:1013400001E00B040361704701480068704700002A
:10135000080000200348006803490978084401494F
:1013600008607047080000201000002010B50848F1
:10137000006840F0100006490860032000F0A8F85B
:101380000F2000F007F800F02BF8002010BD00003F
:101390000020024070B504460E4800784FF47A7180
:1013A000B1FBF0F00C490968B1FBF0F5284600F0FC
:1013B0009BFC08B1012070BD102C07D200222146F1
:1013C000501E00F047F80548046001E00120F2E7F4
:1013D0000020F0E710000020140000200C00002086
:1013E00008B500BF1148806940F001000F498861CD
:1013F0000846806900F00100009000BF00BF00BFF8
:101400000846C06940F08050C8610846C06900F0D5
:101410008050009000BF00BF00BF0549486820F021
:10142000E06040F00070486000BF08BD001002405E
:101430000000014001460846002809DB00F01F03B8
:1014400001229A4043099B0003F1E023C3F80021E5
:1014500000BF70472DE9F05F80460D461646002715
:1014600001F09CFB074639462A46334601F0070047
:10147000C0F1070ABAF1040F02D94FF0040A01E0E3
:10148000C0F1070AD14600F1040ABAF1070F02D2EF
:101490004FF0000A01E0A0F1030AD4464FF0010A20
:1014A0000AFA09FAAAF1010A0AEA020A0AFA0CFA85
:1014B0004FF0010B0BFA0CFBABF1010B0BEA030B2A
:1014C0004AEA0B042146404601F070FBBDE8F09F5C
:1014D00000BF00F00702064B19684FF6FF031940E2
:1014E000044B0B4343EA0221014B196000BF7047D4
:1014F0000CED00E00000FA0570B504460D460CB98D
:10150000012070BD5A48006800F00700A8420ED2C2
:101510005748006820F007002843554908600846EE
:10152000006800F00700A84201D00120E9E7207818
:1015300000F0020002281DD1207800F004000428E9
:1015400005D14C48406840F4E0604A494860207842
:1015500000F00800082805D14648406840F4605073
:10156000444948604348406820F0F000A1680843BF
:1015700040494860207800F0010078B36068012895
:1015800006D13C48006800F4003090B90120B8E76B
:101590006068022806D13748006800F0007040B942
:1015A0000120AEE73348006800F0020008B90120CE
:1015B000A7E73048406820F00300616808432D49E0
:1015C0004860FFF7C1FE064609E0FFF7BDFE801B3D
:1015D00041F28831884202D9032092E707E025488A
:1015E000406800F00C006168B0EB810FEDD120483D
:1015F000006800F00700A8420ED91D48006820F0DE
:10160000070028431A4908600846006800F00700F0
:10161000A84201D0012074E7207800F004000428DB
:1016200007D11448406820F4E060E168084311499C
:101630004860207800F00800082808D10D4840686C
:1016400020F46050216940EAC1000A49486000F076
:101650003FF808494968C1F30311074A515CC84083
:101660000649086006480068FFF794FE002048E736
:1016700000200240001002403E3500081400002007
:101680000C00002001480068704700001400002092
:1016900000B5FFF7F7FF04494968C1F30221034A87
:1016A000515CC84000BD0000001002404E350008EB
:1016B00000B5FFF7E7FF04494968C1F3C221034AB7
:1016C000515CC84000BD0000001002404E350008CB
:1016D00070B500210022002400230020134D69680A
:1016E00001F00C05F5B1042D02D0082D19D101E04F
:1016F0000F4819E00F4DC1F38346AB5D01F480350F
:1017000055B10A4D6D68C5F340450B4E725D084DED
:101710005D43B5FBF2F402E0084D03FB05F42046FF
:1017200002E000BF024800BF00BF70BD00100240D1
:1017300000127A002C3500083C35000800093D00F5
:10174000F8B504460CB90120F8BD207800F001007E
:10175000002878D0F848406800F00C0004280CD02D
:10176000F548406800F00C00082811D1F2484068A4
:1017700000F48030B0F5803F0AD1EF48006800F4F3
:10178000003000285FD0606800285CD10120DBE7D2
:1017900000BF6068B0F5803F06D1E748006840F4BC
:1017A0008030E549086028E0606858B9E248006880
:1017B00020F48030E04908600846006820F480206A
:1017C00008601AE06068B0F5A02F0BD1DA48006815
:1017D00040F48020D84908600846006840F4803012
:1017E00008600AE0D448006820F48030D2490860DC
:1017F0000846006820F48020086000BF606888B157
:10180000FFF7A2FD054606E0FFF79EFD401B64289A
:1018100001D9032098E7C848006800F40030002888
:10182000F2D010E0FFF790FD054606E0FFF78CFDD3
:10183000401B642801D9032086E7BF48006800F4F4
:1018400000300028F2D1207800F00200022857D1A1
:10185000B948406800F00C0050B1B748406800F04B
:101860000C00082818D1B448406800F4803098B9BA
:10187000B148006800F0020020B12069012801D0C1
:10188000012061E7AC48006820F0F800616940EA97
:10189000C100A949086033E02069E8B10120A749E7
:1018A0000860FFF751FD054606E0FFF74DFD401BC0
:1018B000022801D9032047E79F48006800F0020092
:1018C0000028F2D09C48006820F0F800616940EAE6
:1018D000C1009949086013E0002098490860FFF7AB
:1018E00033FD054606E0FFF72FFD401B022801D916
:1018F000032029E79048006800F002000028F2D198
:10190000207800F0080008282DD1A069B8B1012086
:101910008B490860FFF718FD054606E0FFF714FD48
:10192000401B022801D903200EE78348406A00F0DB
:1019300002000028F2D0012000F0E2FE13E00020B7
:101940007F490860FFF700FD054606E0FFF7FCFC55
:10195000401B022801D90320F6E67748406A00F0D0
:1019600002000028F2D1207800F00400042873D18E
:1019700000277148C06900F0805070B900BF6E4800
:10198000C06940F080506C49C8610846C06900F0E9
:101990008050009000BF00BF01276A48006800F433
:1019A0008070B0B96748006840F48070654908608D
:1019B000FFF7CAFC054606E0FFF7C6FC401B64289B
:1019C00001D90320C0E65F48006800F48070002859
:1019D000F2D000BFE068012806D15748006A40F005
:1019E00001005549086227E0E06858B95248006A8A
:1019F00020F00100504908620846006A20F0040007
:101A0000086219E0E06805280BD14B48006A40F0F5
:101A10000400494908620846006A40F00100086273
:101A20000AE04548006A20F0010043490862084680
:101A3000006A20F00400086200BFE068A0B1FFF770
:101A400083FC054609E0FFF77FFC401B41F288312B
:101A5000884202D9032077E622E03748006A00F086
:101A600002000028EFD012E0FFF76EFC054608E008
:101A7000FFF76AFC401B41F28831884201D90320FC
:101A800062E62D48006A00F002000028F0D1012F24
:101A900005D12948C06920F080502749C86100BF9E
:101AA000E069C8B32448406800F00C00082860D002
:101AB000E069022848D1002020490866FFF744FC6D
:101AC000054606E0FFF740FC401B022801D9032031
:101AD0003AE61948006800F000700028F2D1206A48
:101AE000B0F5803F07D11448406820F40030A16869
:101AF000084311494860D4E9080108430E49496880
:101B000021F4741108430C49486001200B49086610
:101B1000FFF71AFC054607E03DE0FFF715FC401B08
:101B2000022801D903200FE60348006800F0007086
:101B30000028F2D02FE000000010024000004242D6
:101B40008004424200700040002014490866FFF7FC
:101B5000FBFB054606E0FFF7F7FB401B022801D917
:101B60000320F1E50E48006800F000700028F2D173
:101B700011E0E069012800D1E6E50948466806F46D
:101B80008031206A814204D106F47011606A81427A
:101B900001D00120D8E50020D6E500000000424237
:101BA0000010024010B504460CB9012010BD606A57
:101BB00038B96068B0F5827F00D105E00021E161AD
:101BC00002E00021216161610021A16294F85100CD
:101BD00028B9002084F85000204600F043F8022085
:101BE00084F851002068006820F0400021680860F7
:101BF000A08800F48270218901F404410843A1897E
:101C000001F400610843217C01F002010843217DB9
:101C100001F001010843218B01F400710843217F89
:101C200001F0380108432021095D01F080010843DB
:101C3000218D01F400510843216808600421A06946
:101C400001EA1040216848602068C06920F4006003
:101C50002168C86100206065012084F851000020DF
:101C6000A4E7000010B586B004460020029003905F
:101C7000049005901949206888422DD100BF18486A
:101C8000806940F48050164988610846806900F4F4
:101C90008050019000BF00BF00BF0846806940F03F
:101CA000040088610846806900F00400019000BFCC
:101CB00000BFA0200290022003900320059002A9FB
:101CC0000848FFF7ABF940200290002003900490F1
:101CD00002A90448FFF7A2F906B010BD0030014088
:101CE000001002400008014070B504462546681EF9
:101CF000B0F1807F01D301200FE0681E4FF0E0219A
:101D000048610F214FF0FF3000F050FF00204FF0EE
:101D1000E021886107200861002070BDF8B5044605
:101D20000E46174694F8420020282ED106B10FB96E
:101D30000120F8BD01202063002060633A4631464F
:101D4000204600F077FE0546EDB9206B012819D139
:101D500000BF002000902068006800902068406864
:101D6000009000BF00BF00BF00BF21680C3151E8E8
:101D7000001F41F0100021680C3141E80002002AE8
:101D8000F3D100E001252846D3E70220D1E7000087
:101D900038B504460D461F492068884239D1FFF7FF
:101DA000D3FA1D4908601D4805801D4800881B495D
:101DB000098808441A490880FFF718F900F0D2FA98
:101DC00000F008FBFFF7B0F84FF400711548FEF77C
:101DD000C0F900BF00200090134800680068009020
:101DE000114800684068009000BF00BF00BF00209D
:101DF00000900D480068006800900B48006840683B
:101E0000009000BF00BF4FF4007206490648FFF77C
:101E100085FF38BD00380140200000201800002058
:101E20001A00002018010020AC00002070470000BC
:101E30002DE9F84F0446206805682068C6682068C8
:101E400047694FF00009CA4605F00F09B9F1000FC4
:101E50000AD105F0200038B106F0200020B120465C
:101E600000F0EBFCBDE8F88FB9F1000F7BD007F074
:101E7000010018B906F49070002874D005F0010034
:101E800030B106F4807018B1606C40F001006064FD
:101E900005F0040030B107F0010018B1606C40F0AB
:101EA0000200606405F0020030B107F0010018B1D3
:101EB000606C40F00400606405F0080048B106F072
:101EC000200010B907F0010018B1606C40F0080064
:101ED0006064606C002845D005F0200028B106F051
:101EE000200010B1204600F0A8FC20684069C0F333
:101EF000801A606C00F0080010B9BAF1000F2CD005
:101F0000204600F054FC2068406900F0400000B317
:101F100000BF00BF2168143151E8001F21F04000CC
:101F20002168143141E80002002AF3D100BFE06BC0
:101F300050B17748E16B4863E06BFEF731FF88B141
:101F4000E06B416B88470DE02046FFF76FFF09E02B
:101F500009E02046FFF76AFF04E02046FFF766FF2E
:101F6000002060647EE7206B012877D105F0100027
:101F7000002873D006F010000028FAD000BF00201F
:101F8000009020680068009020684068009000BFC2
:101F900000BF2068406900F0400000285FD0E06B7F
:101FA000006840681FFA80F8B8F1000F55D0A08D86
:101FB000404552DDA4F82E80E06B8069202843D094
:101FC00000BF00BF21680C3151E8001F21F4807070
:101FD00021680C3141E80002002AF3D100BF00BFA4
:101FE00000BF2168143151E8001F21F00100216871
:101FF000143141E80002002AF3D100BF00BF00BF46
:102000002168143151E8001F21F04000216814318B
:1020100041E80002002AF3D100BF202084F84200EA
:102020000020206300BF00BF21680C3151E8001F71
:1020300021F0100021680C3141E80002002AF3D1A0
:1020400000BFE06BFEF780FE02206063A08DE28D92
:10205000801A81B22046FFF79BFE03E742E0A08D85
:10206000E18D401A1FFA80F8E08DD0B3B8F1000F6F
:1020700037D000BF00BF21680C3151E8001F21F4A8
:10208000907021680C3141E80002002AF3D100BFB2
:1020900000BF00BF2168143151E8001F21F001008A
:1020A0002168143141E80002002AF3D100BF20204A
:1020B00084F842000020206300BF00BF21680C317B
:1020C00051E8001F21F0100021680C3141E80002A6
:1020D000002AF3D100BF0220606341462046FFF78B
:1020E00057FEBFE605F0800030B106F0800018B161
:1020F000204600F0BFFCB5E605F0400030B106F028
:10210000400018B1204600F088FBABE600BFA9E60E
:102110009B27000810B504460CB9012010BDA0692A
:1021200000B100E000BF94F8410028B9002084F815
:102130004000204600F02AF8242084F8410020685E
:10214000C06820F400502168C860204600F0F4FB0D
:102150002068006920F49040216808612068406987
:1021600020F02A00216848612068C06840F40050CF
:102170002168C86000206064202084F8410084F851
:1021800042000020606300BFC8E7000010B586B0C1
:102190000446002002900390049005901E49206898
:1021A000884236D100BF1D48806940F480401B49F9
:1021B00088610846806900F48040019000BF00BF3C
:1021C00000BF0846806940F00400886108468069C5
:1021D00000F00400019000BF00BF481502900220EB
:1021E00003900320059002A90D48FEF717FF4FF456
:1021F0008060029000200390049002A90848FEF736
:102200000DFF002211462520FFF724F92520FFF7B6
:1022100011F906B010BD0000003801400010024066
:102220000008014070472DE9F84F04460E46174656
:1022300099464FF0000A94F8410020284AD106B18F
:1022400017B90120BDE8F88F00206064212084F8D0
:102250004100FFF779F88246A784E784A068B0F5CB
:10226000805F04D1206910B90025B04602E03546F0
:102270004FF000081BE05346002280212046CDF895
:10228000009000F027FC08B10320DBE745B9B8F85F
:102290000000C0F308002168486008F1020803E06C
:1022A0002878216848606D1CE08C401EE084E08C3A
:1022B0000028E0D15346002240212046CDF800906E
:1022C00000F008FC08B10320BCE7202084F841009E
:1022D0000020B7E70220B5E7704700BFFEE7000027
:1022E00000B58BB0282101A8FDF733FF0020069030
:1022F0000790012008900020019002904FF6E070B6
:1023000003900020049005900120099001A9044841
:10231000FEF717FB0248FEF7BFFC0BB000BD000044
:102320002C00002070B588B004460D46164600BF4C
:102330000B48FEF78BFB0328FAD3182102A8FDF700
:1023400008FF02940020049005900696019001ABCE
:102350002A4602A90248FEF74FFA08B070BD0000F5
:102360002C00002070B586B000240025002015E068
:10237000154A0244154B1B68D15CFF290CD001247F
:10238000114A0244114B1B681A44104E36888319B7
:10239000C3F30903D51A05E0411C88B20C4909882A
:1023A0008842E5DB00BF64B1002002900120039069
:1023B000049505900020019001A902A8FEF75CFD9C
:1023C00000BF06B070BD0000008000081C000020A7
:1023D0001800002010B527490988274A1278881864
:1023E00000EBD0714910A0EB4101D1B9224800782F
:1023F00050B100F073F8214801681E480088401C65
:1024000008441E49086008E000F03EF81B480068D8
:1024100018490988084419490860002016490870BD
:1024200027E01548007880B100F058F8114800887E
:10243000401E1349085C13490870104800680D4994
:10244000098808440D49086010E000F01DF80948AB
:102450000088401E0A49085C0A490870054800883F
:10246000401E0649096808440449086001200249E1
:10247000087010BD18000020240000201C0000205F
:10248000180100202500002070B5002418E00F4836
:1024900020440F4909684618601C0E490988884283
:1024A0000CDA0D48015D0246601C105C41EA002513
:1024B0002A46002331460120FEF740FDA01C84B2CD
:1024C000044800888442E2DB70BD00000080000800
:1024D0001C000020180000201801002070B5002406
:1024E0001AE01048204410490968461834B90F48CA
:1024F000005D0F49097841EA002505E0601E0B499F
:10250000085C095D40EA01252A4600233146012086
:10251000FEF714FDA01C84B2064800888442E0DB6C
:1025200070BD0000008000081C0000201801002081
:10253000250000201800002010B50E480E49086044
:102540002420486000210C488160C1604FF4803134
:102550000161090141610021017601214176817605
:102560000021C17601774177FEF78BFA08B1FEF7BB
:102570008DF810BD006400402C00002010B5054807
:10258000054908600846FEF7B6FB08B1FEF77EF87D
:1025900010BD0000003002400000002000B585B0F2
:1025A0000020019002900390049000BF2F488069A2
:1025B00040F010002D4988610846806900F0100045
:1025C000009000BF00BF00BF0846806940F02000B7
:1025D00088610846806900F02000009000BF00BFBD
:1025E00000BF0846806940F00400886108468069A1
:1025F00000F00400009000BF00BF00BF08468069E3
:1026000040F0080088610846806900F008000090EA
:1026100000BF00BF012210211548FEF78FFE0122E6
:1026200011461448FEF78AFE102001900120029006
:10263000002003900320049001A90D48FEF7EEFC52
:10264000012001900290002003900320049001A932
:102650000848FEF7E3FC022001900020029003905E
:1026600001A90448FEF7DAFC05B000BD00100240E5
:1026700000080140000C014010B50E480E490860EA
:102680004FF48270486000210B488160C160016195
:1026900041614FF4007181611021C161002101622B
:1026A000416281620A21C162FFF77CFA08B1FDF73D
:1026B000EDFF10BD003001405400002010B50B4864
:1026C0000B4908604FF4E130486000210848816000
:1026D000C16001610C21416100218161C161FFF78D
:1026E00019FD08B1FDF7D2FF10BD00000038014010
:1026F000AC00002000BFFEE700BFFEE7704700000F
:1027000008B508490968C9084FF47A72B1FBF2F1BB
:102710004143009100BF00BF00994A1E009200296A
:10272000F9D108BD14000020704710B5FEF712FE65
:1027300010BD00B58FB0282105A8FDF70AFD1421B2
:102740006846FDF706FD0120059000040690002074
:1027500007900120099002200C90C1030D914FF4C5
:10276000E0110E9105A8FEF7EBFF08B1FDF78EFF13
:102770000F20009002200190002002904FF4806012
:1027800003900020049002216846FEF7B5FE08B1D0
:10279000FDF77CFF0FB000BD704770B505466C6A51
:1027A0000020E085E0842046FFF740FB70BD00BFBD
:1027B00000BF02680C3252E8002F22F490710268C8
:1027C0000C3242E80013002BF3D100BF00BF00BF62
:1027D0000268143252E8002F22F00101026814321C
:1027E00042E80013002BF3D100BF016B01290ED189
:1027F00000BF00BF02680C3252E8002F22F0100127
:1028000002680C3242E80013002BF3D100BF2021F4
:1028100080F8421000210163704710B5044620681B
:10282000C06820F040002168C860202084F8410082
:102830002046FFF751FD002010BDF8B5044694F87E
:102840004200222875D1A068B0F5805F0CD12069C4
:1028500050B90025A66A20684068C0F3080030809F
:10286000A06A801CA06215E0A56A0026A068B0F5E9
:10287000805F03D0A06828B9206918B92068406833
:10288000287004E02068406800F07F002870A06A8B
:10289000401CA062E08D401E80B2E085002846D139
:1028A0002068C06820F020002168C8602068C068E7
:1028B00020F480702168C8602068406920F0010021
:1028C00021684861202084F8420000206063206B6A
:1028D000012826D10020206300BF00BF21680C31F1
:1028E00051E8001F21F0100021680C3141E800027E
:1028F000002AF3D100BF2068006800F01000102803
:102900000AD100BF00200090206800680090206875
:102910004068009000BF00BFA18D2046FFF738FA45
:1029200002E02046FFF77EFC0020F8BD01E0002019
:10293000FBE70220F9E7000070B504462168096949
:1029400021F44051E2681143226811612269A168B3
:102950001143626941EA02052168C96841F20C62CB
:10296000914329432268D1602168496921F440716B
:10297000A2691143226851612D4A2168914202D116
:10298000FEF796FE01E0FEF783FE00EBC00101EBCF
:10299000001162689200B1FBF2F100EBC00202EBA1
:1029A000001263689B00B2FBF3F26423B2FBF3F204
:1029B00002EBC20303EB0212A1EB8201322202EB13
:1029C00001116422B1FBF2F101F0F00100EBC00251
:1029D00002EB001263689B00B2FBF3F26423B2FBCC
:1029E000F3F201EB021200EBC00101EB001163688E
:1029F0009B00B1FBF3F100EBC00303EB001366682F
:102A0000B600B3FBF6F36426B3FBF6F303EBC306A1
:102A100006EB0313A1EB8301322303EB01116423C3
:102A2000B1FBF3F101F00F0111442268916070BD18
:102A30000038014010B5034699629A85DA85002076
:102A40005864222083F84200186928B11868C068C9
:102A500040F480701C68E0601868406940F0010034
:102A60001C6860611868C06840F020001C68E06065
:102A7000002010BD014691F84100212828D1886826
:102A8000B0F5805F0BD1086948B90A6A1088C0F3B5
:102A900008000B685860086A801C086205E00B6A31
:102AA000581C086218780B685860C88C401E80B2A9
:102AB000C88458B90868C06820F080000B68D860E6
:102AC0000868C06840F040000B68D860002070477C
:102AD0000220FCE72DE9F04104460D4617469846D2
:102AE000069E34E0701C88B32EB1FEF72DFCA0EBDF
:102AF0000800B0422BD900BF00BF21680C3151E85B
:102B0000001F21F4D07021680C3141E80002002A36
:102B1000F3D100BF00BF00BF2168143151E8001F8E
:102B200021F001002168143141E80002002AF3D1AC
:102B300000BF202084F8410084F8420000BF00203C
:102B400084F8400000BF0320BDE8F081FFE7206863
:102B500000682840A84201D1012000E00020B842CE
:102B6000C0D00020F0E7000010B50248FFF760F980
:102B700010BD0000AC00002000BFFEE70FB4054B05
:102B800010B503A9044A029800F0F6F810BC5DF8ED
:102B900014FB0000A9340008280000200248006847
:102BA000C0F30220704700000CED00E010B50028D3
:102BB00004DB0A07130E054A135406E00A07140E35
:102BC000034A00F00F031B1FD45410BD00E400E0C3
:102BD00018ED00E002E008C8121F08C1002AFAD16F
:102BE00070477047002001E001C1121F002AFBD18D
:102BF000704700002DE9FF5F82B00021DDE904305D
:102C0000020DDDF840B0034318D044F61050A2F294
:102C1000FF3242431514119801281FD0A5EB0B0079
:102C2000401C5FEA000A4FF000064E4FDFF8389173
:102C3000B046504615D5CAF1000413E0119801249E
:102C40004AA3012801D16FEA0B010298119AC0E949
:102C50000031C0E9024206B0BDE8F09FCBF10000B0
:102C6000DFE704460021404A491842EB0450CDE911
:102C7000001012E0E00707D032463B464046494686
:102C8000FDF772FA8046894632463B4610461946A1
:102C9000FDF76AFA06460F466410002CEAD1DDE91A
:102CA0000401DDE90023BAF1000F06DAFDF75CFA52
:102CB00042464B46FDF758FA05E0FDF7C7FA424693
:102CC0004B46FDF7C3FA04460E460022284BFDF79B
:102CD0008FFC03D84FF0FF30014607E00022254B60
:102CE00020463146FDF7C5FBFDF76AFC102409E0DC
:102CF000002C0ADB0A220023FDF72DFB039B303258
:102D00001A55641E50EA0102F2D1641C039AC4F100
:102D100011031444119A012A03D0012208430DD152
:102D20000AE0084304D000204FF0110B119072E725
:102D3000A3EB0B056D1E0DE05B4504DD4FF00002BB
:102D400005F1010504E003DA4FF00002A5F10105E9
:102D5000002AECD002981199C0E90231C0E900457F
:102D600079E70000000014400000F03F3000000050
:102D70000000F0430000E03F2DE9FF4F95B09B4677
:102D80008946064600250FE2252877D100242746EC
:102D9000F84A0121059400E0044316F8013F203B66
:102DA00001FA03F01042F7D130782A2811D06FF0E1
:102DB0002F033078A0F13002092A16D8059A44F082
:102DC000020402EB820203EB42021044761C0590DF
:102DD000EFE759F8042B0592002A03DA504244F435
:102DE0000054059044F00204761C30782E2816D149
:102DF00016F8010F44F004042A280DD06FF02F02BA
:102E00003078A0F13003092B09D807EB870302EBD8
:102E10004303C718761CF3E759F8047B761C307817
:102E20006C280FD006DC4C2817D068280DD06A28F3
:102E300014D104E0742810D07A280FD10DE044F4A6
:102E400000140AE044F4801401E044F44014727861
:102E5000824202D104F58014761C761C30786628F4
:102E60000BD013DC582877D009DC002875D0452812
:102E7000F6D04628F4D047281AD19DE118E06328FF
:102E800035D0642879D0652812D195E1702873D0A7
:102E900008DC6728F1D069286FD06E280DD06F2824
:102EA00006D1B5E073282CD0752875D0782874D059
:102EB0005A46179990476D1C75E1C4F302500228D9
:102EC00009D003280DD0D9F8001004280DD00D60CA
:102ED00009F1040967E1D9F80010EA17C1E90052C5
:102EE000F6E7D9F800100D80F2E70D70F0E719F859
:102EF000041B8DF8001000208DF80100EA46012027
:102F000003E059F804AB4FF0FF3061074FF00001C8
:102F100002D40DE008F101018846B9420FDA80457C
:102F2000F8DB1AF808100029F4D108E008F10101D3
:102F300088468142FADB1AF808100029F6D1059874
:102F40005B46A0EB080721463846179A00F094FA32
:102F5000284400EB080507E04DE029E10DE01AF8F0
:102F6000010B5A4617999047B8F10108F7D25B4612
:102F700021463846179A13E142E00A220092C4F330
:102F800002524FF0000A022A08D059F804CB032A53
:102F90004FEAEC710AD00DE029E02AE009F10701BF
:102FA00021F00702F2E802C1914609E00FFA8CFC19
:102FB0004FEAEC71042A03D14FFA8CFC4FEAEC7112
:102FC000002907DA0A460021DCF1000C61EB02015E
:102FD0002D2202E0220504D52B228DF804200122A7
:102FE00003E0E20701D02022F7E7904659E00A21EA
:102FF00002E010220DE010214FF0000A00910BE0DA
:1030000010224FF0000A44F004040827009203E065
:1030100008224FF0000A0092C4F30252022A05D09F
:1030200059F804CB0021032A08D009E009F107016F
:1030300021F00702F2E802C1914605E01FFA8CFC7C
:10304000042A01D10CF0FF0C4FF00008220728D50C
:10305000702806D0009B83F0100353EA0A0305D0C2
:103060000EE040228DF80420012208E05CEA010213
:1030700006D030228DF804208DF8050002229046FB
:10308000009B83F0080353EA0A030AD15CEA0102B9
:1030900001D1620705D530228DF804204FF00108D8
:1030A0007F1E582804D034A003900EA802900DE093
:1030B00036A0F9E753466046009AFDF74CF984467E
:1030C0000398825C0298401E029002705CEA010044
:1030D000F0D1029806A9081A00F1200A600702D56B
:1030E00024F4803400E00127574502DDA7EB0A00F5
:1030F00000E0002000EB0A01009005984144401ACE
:103100000590E00306D45B462146179A059800F027
:10311000B3F90544002706E001A85A46C05D179997
:1031200090476D1C7F1C4745F6DBE0030CD55B46E2
:103130002146179A059800F09FF9054404E03020D5
:103140005A46179990476D1C0099481E0090002917
:10315000F5DC08E0029802995A460078491C029171
:10316000179990476D1CBAF10001AAF1010AF1DC30
:1031700065E100000928010030313233343536373B
:1031800038396162636465660000000030313233B3
:103190003435363738394142434445460000000053
:1031A00000F058F90544761C307800287FF4ECAD27
:1031B00019B02846BDE8F08F620700D4062709F150
:1031C000070222F0070CFCE80223E14603F0004866
:1031D0005FEA080C02D00FF2702C0DE05FEA045C8D
:1031E00002D50FF2682C07E05FEAC47C02D00FF230
:1031F000602C01E0AFF2700C4FF0FF3823F0004379
:10320000CDF850C065280CD006DC452809D04628EA
:103210001DD047283DD13DE0662818D067287ED1D3
:1032200038E00021112F01DB112000E0781CCDE9EE
:10323000000106A90EA8FFF7DDFCDDE90F010E9ADB
:1032400003910021009207F1010A04914DE04FF033
:1032500000400097CDE9011006A90EA8FFF7CAFCAF
:10326000DDE90F0203920E9B11990022DDF80CA0FC
:103270000093049211B9791C00EB010AB7EB0A0024
:1032800004D4C0F1FF3007F1010A0490AAEB070053
:10329000019044E0012F00DA01270021112F01DD08
:1032A000112000E03846CDE9000106A90EA8FFF77D
:1032B000A1FCDDE90F010E9A039100210491009217
:1032C000BA4621070CD40399514500DA8A46BAF16F
:1032D000010F05DD009AAAF10101515C302908D0E7
:1032E000B84202DA10F1040F06DA0121CDE901102B
:1032F00015E0AAF10101E9E7002805DC0499014481
:103300000491AAEB000102E0411C514500DD8A4610
:103310000499401A401C01904FF000400290200791
:1033200004D40198504501DBCDF8048000208DF8CD
:103330004F0002980DF14F07B0F1004F25D02B2020
:103340000E9002984FF0020800280CDA40420290DA
:103350002D200E9007E00A210298FCF7E6FF30319D
:10336000029007F8011DB8F10001A8F10108F2DC94
:1033700002980028EFD1791E0E980870307800F07E
:10338000200040F0450007F8020D12A8C01B00F114
:1033900007081498007800B1012000EB0A01019899
:1033A00001EBE07105984144401A401E0590E0038E
:1033B00006D45B462146179A059800F05DF805444F
:1033C0001498007818B15A46179990476D1CE0037D
:1033D00024D55B462146179A059800F04DF8054420
:1033E0001CE00498002807DBDDE90301884203DDC7
:1033F0000098405C179901E0179930205A46904791
:10340000049805F10105401C04900198401E0190AC
:1034100004D12E205A46179990476D1CBAF100012D
:10342000AAF1010ADDDC05E017F8010B5A461799ED
:1034300090476D1CB8F10001A8F10108F4DC5B466F
:103440002146179A0598ABE62D0000002B000000DE
:10345000200000002DE9F041044600251E461746D5
:10346000880404D405E039462020B0476D1C641E52
:10347000F9D52846BDE8F0812DE9F0410446002544
:103480001E469046C80301D5302700E02027880457
:1034900004D505E041463846B0476D1C641EF9D599
:1034A0002846BDE8F081000013B50C464FF6FF73C7
:1034B000012269460248FEF7B6FE00981CBD0000D6
:1034C000AC000020FDF752FFFFF733F9FFF766F875
:1034D000FFF732F8FFF7F2F8FFF750F8FFF7CCF8F4
:1034E000FEF7FEFE10E0052208A10020FEF71AFFFD
:1034F000052208A10020FEF715FF08A0FFF73EFBFC
:103500004FF47A70FDF7A4FCEDE7000068656C6C81
:103510006F000000776F726C6400000073656E646A
:103520002063616E20646174610D0A00020304056A
:10353000060708090A0B0C0D0E0F101001020000FF
:103540000000000000000102030406070809000053
:10355000000001020304000078350008000000208C
:103560002C000000D42B0008A43500082C000020FB
:10357000EC060000E42B0008000000000000000042
:103580000000000010000000010000000024F40012
:10359000000000000000000000000000000000002B
:0435A0000000000027
:04000005080000ED02
:00000001FF
