:020000040800F2
:10000000280D002001010008C1240008C51F0008B8
:10001000BD240008D50600081D2B000800000000C4
:10002000000000000000000000000000F1240008B3
:100030001507000800000000C5240008F32400088C
:100040001B0100081B0100081B0100081B01000820
:100050001B0100081B0100081B010008170700080E
:100060001B0100081B0100081B0100081B01000800
:100070001B0100081B0100081B010008D90600082D
:100080001B0100081B0100081B0100081B010008E0
:100090001B0100081B0100081B0100081B010008D0
:1000A0001B0100081B0100081B0100081B010008C0
:1000B0001B0100081B0100081B0100081B010008B0
:1000C0001B0100081B0100081B0100081B010008A0
:1000D0001B010008FD2A00081B0100081B01000885
:1000E0001B0100081B0100081B010008DFF80CD0F1
:1000F00000F0C2F80048004721300008280D002019
:100100000648804706480047FEE7FEE7FEE7FEE7B1
:10011000FEE7FEE7FEE7FEE7FEE7FEE761250008F3
:10012000ED000008202A04DB203A21FA02F0002129
:10013000704721FA02F3D040C2F1200291400843F7
:1001400019467047D2B201E000F8012B491EFBD2DC
:1001500070470022F6E710B513460A4604461946D2
:10016000FFF7F0FF204610BD30B505462A460B4686
:1001700012F8010B13F8014B08B1A042F8D01CB1E2
:10018000002802D06D1CF1E7284630BD70B5064648
:1001900002F0F2FC046805460A220021304600F015
:1001A00033F82C6070BD2DE9F05F054600209246C3
:1001B0009B4688460646814640241BE02846414629
:1001C00047462246FFF7AEFF53465A46C01A9141B2
:1001D00010D311461846224600F060F82D1A67EB3E
:1001E00001084F4622460120002100F057F817EB86
:1001F00000094E41201EA4F10104DFDC48463146CF
:100200002A464346BDE8F09F2DE9F04791460F4648
:1002100080460446002614F8015B2DB100F04EF82C
:100220000068405DC007F6D12B2D02D02D2D18D0CF
:10023000641E4A463946204600F044F827B1396822
:10024000A14201D1C7F8008071054FF002040BD51F
:100250004042002803DD02F08FFC0460A007BDE8E7
:10026000F08746F48066E4E70028F8DA02F084FCC0
:1002700004606FF00040F2E7064C074D06E0E068CE
:1002800040F0010394E8070098471034AC42F6D3DD
:10029000FFF730FFF030000810310008202A04DB9F
:1002A000203A00FA02F1002070479140C2F1200389
:1002B00020FA03F31943904070470000004870474C
:1002C000EC3000082DE9F05F8246007800271546E3
:1002D0008B460AF10104B946302801D09DB113E0E4
:1002E00014F8010B0127782803D0582801D045B114
:1002F0000AE00DB1102D07D10027102514F8010BCD
:1003000002E0082500E00A250026B0460EE005FBC5
:10031000080005FB06F1012701EB10461FFA80F8E3
:10032000B6F5803F00D3B94614F8010B294600F01A
:1003300018F80028EBDABBF1000F05D00FB1641EEE
:1003400000E05446CBF80040B9F1000F06D002F0AF
:1003500013FC02210160C81EBDE8F09F48EA064078
:10036000FAE73A2800D2303820F02002412A01D39F
:10037000A2F13700884201D34FF0FF3070470000F0
:1003800030B585B01B4802681B4801881BA002F0ED
:10039000C7FB1948008817490968884225D11FA062
:1003A00002F0BEFB14480188204801F00DFE05460E
:1003B00029461FA002F0B4FB1C4CE079A1796279B8
:1003C0002379CDE90132CDE90310E0780090A378DC
:1003D000627821781CA002F0A3FB29A002F0A0FB08
:1003E00000202D49087005B030BD2CA002F098FB0C
:1003F0000120F8E728000020160000207265632025
:10040000746F74616C206C656E3A25642028657881
:10041000706563743A2564290D0A000061707020CC
:10042000726563206F6B0D0A000000000040000839
:10043000666C6173682063726333323A20307825CA
:100440003038580D0A000000666C617368206865DA
:1004500061643A202530325820253032582025302A
:10046000325820253032582025303258202530325D
:1004700058202530325820253032580D0A0000000F
:1004800072656320646F6E652C2077616974206EDD
:100490006578740D0A0000002D0000206170702046
:1004A000726563206572726F72206F722074696D5D
:1004B000656F75740D0A000010B506A002F030FBE0
:1004C00009A002F02DFB0EA002F02AFB0020134928
:1004D000087010BD626F6F746C6F61646572207319
:1004E000746172740D0A0000776169742075736518
:1004F000722073656E6420646174610D0A000000EF
:1005000073656E64202773746172743A6C656E272C
:1005100020746F2073746172740D0A002D00002026
:1005200010B501F087FD0D4800880D490968884223
:1005300003D303200B49087010BD0B48006850B16D
:1005400000F0F0FD08490968401AB0F5FA6F02D9C9
:1005500003200449087000BFEEE7000016000020E9
:10056000280000202D0000201C00002038B56FF06E
:100570007F40154B402215490090154801F01AFAAA
:100580001148008800281EDD12A11048FFF7ECFD7D
:100590000446A4B1A01DFFF7F9FD10490860084604
:1005A000006840B1084601680DA002F0B9FA0120C8
:1005B0000F49087006E00FA002F0B2FA02E010A0A6
:1005C00002F0AEFA00BF38BD24000020E808002089
:1005D0003800002073746172743A00002800002013
:1005E000617070206C656E3A2025640D0A00000071
:1005F0002D0000206C656E206572726F720D0A000E
:1006000064617461206572726F720D0A00000000EF
:1006100010B51A48007830B1012807D002281DD043
:10062000032828D11DE0FFF7A1FF25E00020144991
:100630000880144908600A21134801F0E5FC13A062
:1006400002F06EFA15A002F06BFA02200B49087056
:1006500000201849087001F011FD0DE0FFF760FF60
:100660000AE0FFF78DFE28B113A002F059FA00202E
:100670000249087000E000BF00BF10BD2D0000203F
:10068000160000201C00002000400008666C61730A
:1006900068206572617365206F6B0A007265616422
:1006A0007920746F2072656365697665206170706A
:1006B0000A0000002C000020617070207265632029
:1006C0006572726F722C77616974206E6578740A36
:1006D0000000000000BFFEE710B5024800F05AF924
:1006E00010BD00008000002030B590F8405001247B
:1006F000AC40C56B6C60046863604468102C04D126
:100700000468A2600468E16003E00468A160046812
:10071000E26030BD704710B5022000F065FB10BDEF
:1007200072B600BFFEE700000021074AD161074909
:10073000096941F00401054A11611146096941F056
:100740004001116170470000C800002000200240F5
:100750000021074AD1610749096941F00201054AB0
:10076000116111464861096941F04001116170470A
:10077000C8000020002002400022054BDA61054A33
:10078000126942F00102034B1A61018070470000B8
:10079000C80000200020024000201E49C96801F066
:1007A000100139B11C49C96941F002011A4AD161ED
:1007B00040F010001749C96801F0040139B1164929
:1007C000C96941F00101144AD16140F004001149A6
:1007D000C96901F0010169B10F49C96941F004011A
:1007E0000D4AD16100BF0B49C96921F00101094AD5
:1007F000D16100BF00BF40F20111884206D1054916
:10080000C96921F00101034AD16101E00149C860D1
:1008100000BF704700200240C800002070B50446A9
:1008200000F080FC054609E0601C38B124B100F0FE
:1008300079FC401BA04201D9032070BD1248C0685A
:1008400000F001000028EFD10F48C06800F0200040
:1008500020B100BF20200C49C86000BF0A48C06812
:1008600000F0100048B90848C06900F0010020B944
:100870000548C06800F0040018B1FFF78DFF0120A3
:10088000DBE70020D9E700000020024001460022FB
:1008900091F82100022808D00420886300BF0020BE
:1008A00081F8200000BF012070470868006820F030
:1008B0000E000B6818600868006820F001000B68E3
:1008C000186091F8403001209840CB6B58600120AF
:1008D00081F8210000BF002081F8200000BF1046F1
:1008E000E2E7000070B50446002594F821000228D4
:1008F00003D00420A063012548E02068006820F0B0
:100900000E00216808602068006820F0010021685E
:1009100008601F492068884201D1012026E01C4957
:1009200014312068884201D110201FE01849283175
:100930002068884201D1801518E015493C312068B3
:10094000884201D1801411E0114950312068884259
:1009500002D14FF4803009E00D49643120688842AB
:1009600002D14FF4801001E04FF08070084908393F
:100970004860012084F8210000BF002084F8200096
:1009800000BF606B10B12046616B8847284670BD80
:100990000800024070B50446E06B056820680668F0
:1009A00094F84010042088402840002846D006F0E3
:1009B0000400002842D02068006800F0200028B918
:1009C0002068006820F0040021680860574920680A
:1009D000884201D1042027E054491431206888421C
:1009E00001D1402020E0514928312068884201D1BE
:1009F000001519E04D493C312068884202D14FF47E
:100A0000804011E0494950312068884202D14FF4BA
:100A1000802009E0454964312068884202D14FF4C2
:100A2000800001E04FF08060404908394860E06A8A
:100A300000287AD02046E16A884776E094F8401092
:100A4000022088402840A0B306F0020088B3206846
:100A5000006800F0200040B92068006820F00A001B
:100A600021680860012084F821003049206888420C
:100A700001D1022028E02D4914312068884201D19B
:100A8000202021E0294928312068884201D14015E1
:100A90001AE026493C312068884202D14FF40050C8
:100AA00012E0224950312068884203D14FF40030CF
:100AB0000AE017E01D4964312068884202D14FF4F2
:100AC000001001E04FF0007018490839486000BF7D
:100AD000002084F8200000BFA06A30B32046A16A3D
:100AE000884722E094F84010082088402840E0B170
:100AF00006F00800C8B12068006820F00E002168E8
:100B0000086094F8401001208840E16B48600120A3
:100B1000A06384F8210000BF002084F8200000BFFB
:100B2000206B10B12046216B884770BD0800024041
:100B30000146002209B901207047164B0868C01A07
:100B40001423B0FBF3F08000086412480838C8632F
:100B5000022081F821000868026843F6F0708243A1
:100B6000D1E901031843CB6818430B6918434B695B
:100B700018438B691843CB69184302430868026025
:100B800000208863012081F82100002081F82000E6
:100B900000BFD1E7080002402DE9F04104460D46B0
:100BA00016461F464FF0000800BF94F820000128A9
:100BB00002D10220BDE8F081012084F8200000BFAE
:100BC00094F8210001282CD1022084F82100002073
:100BD000A0632068006820F00100216808603B469F
:100BE000324629462046FFF77FFDE06A30B1206893
:100BF000006840F00E00216808600BE02068006883
:100C000020F00400216808602068006840F00A00B5
:100C1000216808602068006840F0010021680860D1
:100C200006E000BF002084F8200000BF4FF002085B
:100C30004046BFE72DE9F04104460E460127002556
:100C400000BF2648007E012802D10220BDE8F081C5
:100C500001202249087600BF2068022813D14CF2F7
:100C60005030FFF7DBFD90BB0120FFF75DFD4CF23C
:100C70005030FFF7D3FD07461948006920F0040003
:100C80001749086123E04CF25030FFF7C7FDF0B977
:100C90004FF0FF303060A56812E02846FFF758FD9E
:100CA0004CF25030FFF7BAFD07460D48006920F0BE
:100CB00002000B4908610FB1356007E005F580655A
:100CC000D4E9021001EB8020A842E6D800BF00BFA3
:100CD00000200249087600BF3846B7E7C800002068
:100CE000002002400348006940F08000014908618B
:100CF00000207047002002402DE9FE4F05468B463C
:100D000017469846012600240020029000BF244880
:100D1000007E012802D10220BDE8FE8F012020497B
:100D2000087600BF4CF25030FFF778FD064686BBD0
:100D3000012D02D10120029006E0022D02D10220F5
:100D4000029001E00420029000241EE02201B94636
:100D5000C24648465146FFF7E5F980B201900220AD
:100D600000FB04B000900199FFF706FD4CF25030F3
:100D7000FFF754FD06460B48006920F001000949C1
:100D8000086106B104E0601CC4B202988442DDDB55
:100D900000BF00BF00200249087600BF3046BBE715
:100DA000C80000200020024000200849096901F025
:100DB000800151B10649054A51600649516011460A
:100DC000096901F0800101B1012070470020024053
:100DD00023016745AB89EFCD022802D10121014AE9
:100DE000117070472C00002010B5044604480068BC
:100DF000204020B1024804602046FFF7EDFF10BDFF
:100E0000140401402DE9F8470346002294466EE1A0
:100E10004FF0010808FA02F4D1F8008008EA040053
:100E2000A0427DD1DFF8DCA2D1F80480A8EB0A094A
:100E3000D0453AD014DCB8F1030F50D009DCB8F13A
:100E4000000F31D0B8F1010F1CD0B8F1020F49D119
:100E500020E0B8F1110F18D0B8F1120F42D11EE006
:100E6000B9F5881F25D006DCB9F5803F20D0B9F54B
:100E7000801F37D11AE0B9F5001F18D0B9F5041F4B
:100E800030D117E0D1F80CC02DE0D1F80C8008F17A
:100E9000040C28E0D1F80C8008F1080C23E0D1F80C
:100EA0000C8008F10C0C1EE000BF00BF00BF00BFAB
:100EB00000BF00BFD1F80880B8F1000F02D14FF099
:100EC000040C0BE0D1F80880B8F1010F03D14FF00A
:100ED000080C1C6102E04FF0080C5C6103E04FF06D
:100EE000000C00E000BF00BFFF2801D8984601E0D9
:100EF00003F104084646FF2802D84FEA820803E0BF
:100F0000A2F108084FEA88084746D6F800804FF05B
:100F10000F0909FA07F928EA09080CFA07F900E0AD
:100F200088E048EA0908C6F80080D1F8048008F093
:100F30008058B8F1805F7DD100BFDFF8CC81D8F850
:100F4000188048F00108DFF8C091C9F81880C84639
:100F5000D8F8188008F00108CDF8008000BF00BF65
:100F60004FEAB9384FEA920958F829504FEA827887
:100F70004FEA18794FF00F0808FA09F825EA080532
:100F8000DFF88881434502D14FF0000816E0DFF812
:100F90008081434502D14FF001080FE0DFF87481F2
:100FA000434502D14FF0020808E0DFF86C81434569
:100FB00002D14FF0030801E04FF004084FEA8279B4
:100FC0004FEA197908FA09F848EA0505DFF84C8173
:100FD0004FEA920948F82950D1F8048008F48018A3
:100FE000B8F5801F0AD1DFF83881D8F8008048EAC8
:100FF0000008DFF82C91C9F8008009E0DFF82081B3
:10100000D8F8008028EA0008DFF81491C9F80080B9
:10101000D1F8048008F40018B8F5001F10D1DFF8EB
:10102000008108F10408D8F8008048EA0008DFF8D9
:10103000F09000E05AE009F10409C9F800800DE0E1
:10104000DFF8DC8008F10408D8F8008028EA0008FE
:10105000DFF8CC9009F10409C9F80080D1F80480C8
:1010600008F40038B8F5003F0ED1DFF8B480A8F1DD
:101070000408D8F8008048EA0008DFF8A490A9F135
:101080000409C9F800800DE0DFF89480A8F1040895
:10109000D8F8008028EA0008DFF88490A9F1040954
:1010A000C9F80080D1F8048008F48038B8F5803F92
:1010B0000ED1DFF86C80A8F10808D8F8008048EA63
:1010C0000008DFF85C90A9F10809C9F800800DE07C
:1010D000DFF84C80A8F10808D8F8008028EA00085A
:1010E000DFF83C90A9F10809C9F80080521CD1F83A
:1010F000008028FA02F8B8F1000F7FF489AEBDE84D
:10110000F8870000000011100010024000080140A4
:10111000000C014000100140001401400800014093
:1011200008040140014800687047000000000020EA
:10113000034800680349097808440149086070477A
:10114000000000200800002010B50848006840F0AA
:10115000100006490860032000F0A8F80F2000F0F6
:1011600007F800F02BF8002010BD0000002002401E
:1011700070B504460E4800784FF47A71B1FBF0F078
:101180000C490968B1FBF0F5284600F0F9FB08B1FD
:10119000012070BD102C07D200222146501E00F005
:1011A00047F80548046001E00120F2E70020F0E77D
:1011B000080000200C0000200400002008B500BF3B
:1011C0001148806940F001000F4988610846806934
:1011D00000F00100009000BF00BF00BF0846C069DA
:1011E00040F08050C8610846C06900F0805000900F
:1011F00000BF00BF00BF0549486820F0E06040F034
:101200000070486000BF08BD0010024000000140AF
:1012100001460846002809DB00F01F0301229A401E
:1012200043099B0003F1E023C3F8002100BF70478E
:101230002DE9F05F80460D461646002701F080FC40
:10124000074639462A46334601F00700C0F1070A2F
:10125000BAF1040F02D94FF0040A01E0C0F1070A05
:10126000D14600F1040ABAF1070F02D24FF0000A8A
:1012700001E0A0F1030AD4464FF0010A0AFA09FA84
:10128000AAF1010A0AEA020A0AFA0CFA4FF0010B63
:101290000BFA0CFBABF1010B0BEA030B4AEA0B0454
:1012A0002146404601F054FCBDE8F09F00BF00F02D
:1012B0000702064B19684FF6FF031940044B0B4316
:1012C00043EA0221014B196000BF70470CED00E0BA
:1012D0000000FA0570B504460D460CB9012070BD3A
:1012E0005A48006800F00700A8420ED2574800682C
:1012F00020F007002843554908600846006800F0C0
:101300000700A84201D00120E9E7207800F00200A0
:1013100002281DD1207800F00400042805D14C4893
:10132000406840F4E0604A494860207800F00800D6
:10133000082805D14648406840F460504449486058
:101340004348406820F0F000A168084340494860E5
:10135000207800F0010078B36068012806D13C488D
:10136000006800F4003090B90120B8E760680228F6
:1013700006D13748006800F0007040B90120AEE7A0
:101380003348006800F0020008B90120A7E73048A0
:10139000406820F00300616808432D494860FFF76A
:1013A000C1FE064609E0FFF7BDFE801B41F2883111
:1013B000884202D9032092E707E02548406800F000
:1013C0000C006168B0EB810FEDD12048006800F09F
:1013D0000700A8420ED91D48006820F007002843E6
:1013E0001A4908600846006800F00700A84201D0CA
:1013F000012074E7207800F00400042807D1144885
:10140000406820F4E060E1680843114948602078B2
:1014100000F00800082808D10D48406820F460500A
:10142000216940EAC1000A49486000F03FF80849D4
:101430004968C1F30311074A515CC8400649086076
:1014400006480068FFF794FE002048E700200240AD
:1014500000100240523000080C0000200400002060
:1014600001480068704700000C00002000B5FFF73D
:10147000F7FF04494968C1F30221034A515CC8409F
:1014800000BD0000001002406230000800B5FFF708
:10149000E7FF04494968C1F3C221034A515CC840CF
:1014A00000BD0000001002406230000870B500214D
:1014B0000022002400230020134D696801F00C0570
:1014C000F5B1042D02D0082D19D101E00F4819E023
:1014D0000F4DC1F38346AB5D01F4803555B10A4D24
:1014E0006D68C5F340450B4E725D084D5D43B5FB1D
:1014F000F2F402E0084D03FB05F4204602E000BFD1
:10150000024800BF00BF70BD0010024000127A0008
:10151000403000085030000800093D00F8B504468E
:101520000CB90120F8BD207800F00100002878D027
:10153000F848406800F00C0004280CD0F5484068DA
:1015400000F00C00082811D1F248406800F4803007
:10155000B0F5803F0AD1EF48006800F40030002861
:101560005FD0606800285CD10120DBE700BF6068C5
:10157000B0F5803F06D1E748006840F48030E54987
:10158000086028E0606858B9E248006820F48030BC
:10159000E04908600846006820F4802008601AE0EE
:1015A0006068B0F5A02F0BD1DA48006840F48020C5
:1015B000D84908600846006840F4803008600AE0B6
:1015C000D448006820F48030D2490860084600689A
:1015D00020F48020086000BF606888B1FFF7A2FD9A
:1015E000054606E0FFF79EFD401B642801D9032055
:1015F00098E7C848006800F400300028F2D010E0F6
:10160000FFF790FD054606E0FFF78CFD401B6428C0
:1016100001D9032086E7BF48006800F400300028A5
:10162000F2D1207800F00200022857D1B948406872
:1016300000F00C0050B1B748406800F00C000828DA
:1016400018D1B448406800F4803098B9B1480068B7
:1016500000F0020020B12069012801D0012061E7DB
:10166000AC48006820F0F800616940EAC100A9496F
:10167000086033E02069E8B10120A7490860FFF75E
:1016800051FD054606E0FFF74DFD401B022801D93C
:10169000032047E79F48006800F002000028F2D0CE
:1016A0009C48006820F0F800616940EAC10099494F
:1016B000086013E0002098490860FFF733FD0546F5
:1016C00006E0FFF72FFD401B022801D9032029E780
:1016D0009048006800F002000028F2D1207800F065
:1016E000080008282DD1A069B8B101208B490860F5
:1016F000FFF718FD054606E0FFF714FD401B022822
:1017000001D903200EE78348406A00F00200002858
:10171000F2D0012000F0D8FE13E000207F490860DD
:10172000FFF700FD054606E0FFF7FCFC401B022822
:1017300001D90320F6E67748406A00F0020000284D
:10174000F2D1207800F00400042873D100277148FA
:10175000C06900F0805070B900BF6E48C06940F0A9
:1017600080506C49C8610846C06900F08050009004
:1017700000BF00BF01276A48006800F48070B0B95C
:101780006748006840F4807065490860FFF7CAFC4C
:10179000054606E0FFF7C6FC401B642801D903207C
:1017A000C0E65F48006800F480700028F2D000BFF7
:1017B000E068012806D15748006A40F00100554909
:1017C000086227E0E06858B95248006A20F001003A
:1017D000504908620846006A20F00400086219E0D7
:1017E000E06805280BD14B48006A40F004004949E5
:1017F00008620846006A40F0010008620AE04548B5
:10180000006A20F00100434908620846006A20F09F
:101810000400086200BFE068A0B1FFF783FC054642
:1018200009E0FFF77FFC401B41F28831884202D972
:10183000032077E622E03748006A00F00200002823
:10184000EFD012E0FFF76EFC054608E0FFF76AFCF8
:10185000401B41F28831884201D9032062E62D48BD
:10186000006A00F002000028F0D1012F05D12948BC
:10187000C06920F080502749C86100BFE069C8B343
:101880002448406800F00C00082860D0E069022875
:1018900048D1002020490866FFF744FC054606E0D1
:1018A000FFF740FC401B022801D903203AE6194803
:1018B000006800F000700028F2D1206AB0F5803F87
:1018C00007D11448406820F40030A168084311494A
:1018D0004860D4E9080108430E49496821F47411AD
:1018E00008430C49486001200B490866FFF71AFCC1
:1018F000054607E03DE0FFF715FC401B022801D933
:1019000003200FE60348006800F000700028F2D0C2
:101910002FE00000001002400000424280044242DA
:1019200000700040002014490866FFF7FBFB0546E5
:1019300006E0FFF7F7FB401B022801D90320F1E581
:101940000E48006800F000700028F2D111E0E06954
:10195000012800D1E6E50948466806F48031206A8E
:10196000814204D106F47011606A814201D00120E5
:10197000D8E50020D6E500000000424200100240F9
:1019800070B504462546681EB0F1807F01D3012062
:101990000FE0681E4FF0E02148610F214FF0FF304B
:1019A00001F0D6F800204FF0E0218861072008619F
:1019B000002070BD2DE9F84F04460F4690461D46A5
:1019C000DDF828A094F84200202878D117B1B8F1AA
:1019D000000F02D10120BDE8F88F002060642220B2
:1019E00084F842000120206300206063FFF79AFB27
:1019F0008346A4F82C80A4F82E80A068B0F5805F00
:101A000004D1206910B90026B94602E03E464FF0E5
:101A100000090020288053E02068006800F01000D2
:101A2000102813D100BF00200090206800680090AB
:101A300020684068009000BF00BF288830B10220B5
:101A40006063202084F842000020C4E7206800681A
:101A500000F02000202821D146B920684068C0F35A
:101A60000800A9F8000009F1020911E0A068B0F52A
:101A7000805F03D0A06828B9206918B92068406841
:101A8000307004E02068406800F07F003070761C01
:101A90002888401C2880E08D401EE0850AF1010066
:101AA00070B1FFF73FFBA0EB0B00504502D8BAF135
:101AB000000F05D1202084F8420003208BE70BE0C3
:101AC000E08D0028A8D1A08DE18D401A288020202B
:101AD00084F8420000207EE702207CE770477047D0
:101AE0002DE9F84F0446206805682068C66820681C
:101AF00047694FF00009CA4605F00F09B9F1000F18
:101B00000AD105F0200038B106F0200020B12046AF
:101B100000F01EFEBDE8F88FB9F1000F7BD007F092
:101B2000010018B906F49070002874D005F0010087
:101B300030B106F4807018B1606C40F00100606450
:101B400005F0040030B107F0010018B1606C40F0FE
:101B50000200606405F0020030B107F0010018B126
:101B6000606C40F00400606405F0080048B106F0C5
:101B7000200010B907F0010018B1606C40F00800B7
:101B80006064606C002845D005F0200028B106F0A4
:101B9000200010B1204600F0DBFD20684069C0F352
:101BA000801A606C00F0080010B9BAF1000F2CD058
:101BB000204600F074FD2068406900F0400000B34A
:101BC00000BF00BF2168143151E8001F21F0400020
:101BD0002168143141E80002002AF3D100BFE06B14
:101BE00050B17748E16B4863E06BFEF77BFE88B14C
:101BF000E06B416B88470DE02046FFF770FF09E07E
:101C000009E02046FFF76BFF04E02046FFF767FF7F
:101C1000002060647EE7206B012877D105F010007A
:101C2000002873D006F010000028FAD000BF002072
:101C3000009020680068009020684068009000BF15
:101C400000BF2068406900F0400000285FD0E06BD2
:101C5000006840681FFA80F8B8F1000F55D0A08DD9
:101C6000404552DDA4F82E80E06B8069202843D0E7
:101C700000BF00BF21680C3151E8001F21F48070C3
:101C800021680C3141E80002002AF3D100BF00BFF7
:101C900000BF2168143151E8001F21F001002168C4
:101CA000143141E80002002AF3D100BF00BF00BF99
:101CB0002168143151E8001F21F0400021681431DF
:101CC00041E80002002AF3D100BF202084F842003E
:101CD0000020206300BF00BF21680C3151E8001FC5
:101CE00021F0100021680C3141E80002002AF3D1F4
:101CF00000BFE06BFEF7CAFD02206063A08DE28D9D
:101D0000801A81B22046FFF7E9FE03E742E0A08D8A
:101D1000E18D401A1FFA80F8E08DD0B3B8F1000FC2
:101D200037D000BF00BF21680C3151E8001F21F4FB
:101D3000907021680C3141E80002002AF3D100BF05
:101D400000BF00BF2168143151E8001F21F00100DD
:101D50002168143141E80002002AF3D100BF20209D
:101D600084F842000020206300BF00BF21680C31CE
:101D700051E8001F21F0100021680C3141E80002F9
:101D8000002AF3D100BF0220606341462046FFF7DE
:101D9000A5FEBFE605F0800030B106F0800018B166
:101DA000204600F035FEB5E605F0400030B106F003
:101DB000400018B1204600F0A8FCABE600BFA9E641
:101DC0006325000810B504460CB9012010BDA069B8
:101DD00000B100E000BF94F8410028B9002084F869
:101DE0004000204600F02AF8242084F841002068B2
:101DF000C06820F400502168C860204600F026FD2D
:101E00002068006920F490402168086120684069DA
:101E100020F02A00216848612068C06840F4005022
:101E20002168C86000206064202084F8410084F8A4
:101E300042000020606300BFC8E7000010B586B014
:101E40000446002002900390049005901E492068EB
:101E5000884236D100BF1D48806940F480401B494C
:101E600088610846806900F48040019000BF00BF8F
:101E700000BF0846806940F0040088610846806918
:101E800000F00400019000BF00BF4815029002203E
:101E900003900320059002A90D48FEF7B3FF4FF40D
:101EA0008060029000200390049002A90848FEF789
:101EB000A9FF002205212520FFF7BAF92520FFF709
:101EC000A7F906B010BD0000003801400010024024
:101ED0000008014070B504460D46164694F84200CD
:101EE00020280BD105B10EB9012070BD0020206360
:101EF00032462946204600F027FDF6E70220F4E7A7
:101F0000704770472DE9F84F04460E46174699462C
:101F10004FF0000A94F84100202850D106B117B9BB
:101F20000120BDE8F88F00206064212084F8410082
:101F3000FFF7F8F88246A784E784A068B0F5805FD1
:101F400004D1206910B90025B04602E035464FF0B3
:101F500000081EE05346002280212046CDF8009064
:101F600000F086FD20B1202084F841000320D8E74E
:101F700045B9B8F80000C0F308002168486008F1CE
:101F8000020803E02878216848606D1CE08C401E40
:101F9000E084E08C0028DDD1534600224021204619
:101FA000CDF8009000F064FD20B1202084F84100BD
:101FB0000320B6E7202084F841000020B1E702208A
:101FC000AFE7704700BFFEE770B502460B464FF023
:101FD000FF311546002010E02C5C6140002409E030
:101FE00001F001061EB1074E86EA510100E04908E2
:101FF000661CF4B2082CF3DB401C9842ECD3C843B7
:1020000070BD00002083B8ED30B585B005460C46A4
:10201000FEF7CAFE0020019001200290039504946F
:1020200000200090694601A8FEF704FEFEF75AFE64
:1020300005B030BD10B50E4800880E490988401A19
:10204000C0F30A000C4908800846008808B900203F
:1020500010BDFEF7A9FE00F091F800F0C7F8FEF7FA
:1020600041FE034800880349088003480088EFE7E1
:1020700012000020100000201400002008B50020ED
:102080001A4908801A4908801A4908601A490860E4
:102090001A4908701A4908701A4908801A490880B4
:1020A0004FF400611948FEF754F800BF002000907B
:1020B0001748006800680090154800684068009064
:1020C00000BF00BF00BF00200090114800680068FA
:1020D00000900F4800684068009000BF00BF4FF4B8
:1020E00000620A490A48FFF7F5FE08BD1600002005
:1020F00014000020180000201C00002020000020F8
:10210000210000201000002012000020E800002024
:102110003800002038B5134800684068C0F50060FA
:10212000114908800846008810490988401AC0F300
:102130000A04002C08DDFEF7F5FF0D4908600D4884
:10214000008820440B49088000BF002000900A4806
:10215000006800680090084800684068009000BF70
:1021600000BF38BD800000201200002010000020B9
:102170001C000020160000203800002070B586B03A
:1021800000240025002015E0154A0244154B1B6869
:10219000D15CFF290CD00124114A0244114B1B6869
:1021A0001A44104E36888319C3F30903D51A05E083
:1021B000411C88B20C4909888842E5DB00BF64B144
:1021C00000200290012003900495059000200190CA
:1021D00001A902A8FEF72EFD00BF06B070BD0000E9
:1021E00000400008180000201400002010B5284905
:1021F0000988284A1278881800EBD0714910A0EBA2
:102200004101D1B92348007850B100F075F8224857
:1022100001681F480088401C08441F49086008E006
:1022200000F03EF81C4800681949098808441A491A
:10223000086000201749087029E01648007888B126
:1022400000F05AF812490988491E88B200F086F851
:1022500012490870104800680D49098808440E4961
:10226000086011E000F01CF809490988491E88B28D
:1022700000F074F80949087005480088401E0649B6
:10228000096808440449086001200249087010BD2B
:102290001400002020000020180000202100002051
:1022A0002DE9F04100241BE0104820441049096842
:1022B0004618601C0F49098888420FDA204600F052
:1022C0004DF80746611C88B200F048F847EA00253F
:1022D0002A46002331460120FEF70EFDA01C84B2E1
:1022E000044800888442DFDBBDE8F081004000083C
:1022F00018000020140000202DE9F04100241FE008
:10230000124820441249096846183CB9204600F09A
:1023100025F81049097841EA002509E0611E88B2D4
:1023200000F01CF80746204600F018F847EA0025A0
:102330002A46002331460120FEF7DEFCA01C84B2B1
:10234000054800888442DBDBBDE8F08100400008DE
:10235000180000202100002014000020014604483D
:1023600000880844C0F30A00024A105C704700006D
:1023700010000020E800002008B500BF18484069A0
:1023800040F00100164948610846406900F001002C
:10239000009000BF00BF1348134908600020486048
:1023A0000021114881608021C160002101614161EB
:1023B000202181610902C161FEF7BAFB00BF0A4812
:1023C0000A49C86308460849486200BF002205213F
:1023D0000F20FEF72DFF0F20FEF71AFF08BD0000AB
:1023E0000010024058000240800000203800002009
:1023F00000B585B00020019002900390049000BFCA
:102400001D48806940F010001B49886108468069BA
:1024100000F01000009000BF00BF00BF08468069B8
:1024200040F0200088610846806900F0200000909C
:1024300000BF00BF00BF0846806940F0040088610B
:102440000846806900F00400009000BF00BF022031
:1024500001900A4802900120039001A90848FEF764
:10246000D1FC002204210720FEF7E2FE0720FEF740
:10247000CFFE05B000BD000000100240000021109A
:102480000008014010B50B480B4908604FF4E130DB
:102490004860002108488160C16001610C214161F0
:1024A00000218161C161FFF78DFC08B1FEF738F9A9
:1024B00010BD0000003801403800002000BFFEE7DA
:1024C00000BFFEE77047000008B508490968C90861
:1024D0004FF47A72B1FBF2F14143009100BF00BFAB
:1024E00000994A1E00920029F9D108BD0C00002075
:1024F000704710B5FEF71CFE10BD00B58FB0282147
:1025000005A8FDF726FE14216846FDF722FE0120EE
:1025100005900004069000200790012009900220F9
:102520000C90C1030D914FF4E0110E9105A8FEF738
:10253000F5FF08B1FEF7F4F80F200090022001909B
:10254000002002904FF4806003900020049002214C
:102550006846FEF7BFFE08B1FEF7E2F80FB000BD17
:10256000704770B505466C6A0020E085E08420461F
:10257000FFF7B5FA70BD70B506460025746A20688D
:102580004069C0F3C01594F84100212805D125B158
:102590000020E084204600F0C8F820684069C0F3BD
:1025A000801594F84200222805D125B10020E0854D
:1025B000204600F074F8606C40F010006064204623
:1025C000FFF78DFA70BD70B505466C6A2868006823
:1025D00000F02000002842D1E08500BF00BF216844
:1025E0000C3151E8001F21F4807021680C3141E862
:1025F0000002002AF3D100BF00BF00BF21681431E0
:1026000051E8001F21F001002168143141E8000267
:10261000002AF3D100BF00BF00BF2168143151E888
:10262000001F21F040002168143141E80002002A17
:10263000F3D100BF202084F84200206B01280ED186
:1026400000BF00BF21680C3151E8001F21F01000CD
:1026500021680C3141E80002002AF3D100BF0020BC
:102660006063206B012804D1A18D2046FFF736FA64
:1026700002E02046FFF744FC70BD70B505466C6A69
:1026800001206063206B012805D1A08D4108204600
:10269000FFF724FA02E02046FFF733FC70BD00BFCD
:1026A00000BF02680C3252E8002F22F490710268D9
:1026B0000C3242E80013002BF3D100BF00BF00BF73
:1026C0000268143252E8002F22F00101026814322D
:1026D00042E80013002BF3D100BF016B01290ED19A
:1026E00000BF00BF02680C3252E8002F22F0100138
:1026F00002680C3242E80013002BF3D100BF202106
:1027000080F8421000210163704710B5044620682C
:10271000C06820F040002168C860202084F8410093
:102720002046FFF74EFC002010BD00BF00BF02682E
:102730000C3252E8002F22F0C00102680C3242E84D
:102740000013002BF3D100BF202180F84110704707
:10275000F8B5044694F84200222875D1A068B0F577
:10276000805F0CD1206950B90025A66A20684068B6
:10277000C0F308003080A06A801CA06215E0A56A42
:102780000026A068B0F5805F03D0A06828B9206952
:1027900018B920684068287004E02068406800F09C
:1027A0007F002870A06A401CA062E08D401E80B2AD
:1027B000E085002846D12068C06820F0200021680C
:1027C000C8602068C06820F480702168C8602068F4
:1027D000406920F0010021684861202084F842000F
:1027E00000206063206B012826D10020206300BFF9
:1027F00000BF21680C3151E8001F21F01000216852
:102800000C3141E80002002AF3D100BF20680068C3
:1028100000F0100010280AD100BF002000902068AE
:102820000068009020684068009000BF00BFA18D44
:102830002046FFF753F902E02046FFF761FB002036
:10284000F8BD01E00020FBE70220F9E770B504467F
:102850002168096921F44051E2681143226811613D
:102860002269A1681143626941EA02052168C968C9
:1028700041F20C62914329432268D1602168496981
:1028800021F44071A2691143226851612D4A2168E7
:10289000914202D1FEF7FAFD01E0FEF7E7FD00EB01
:1028A000C00101EB001162689200B1FBF2F100EB94
:1028B000C00202EB001263689B00B2FBF3F26423D8
:1028C000B2FBF3F202EBC20303EB0212A1EB8201B3
:1028D000322202EB01116422B1FBF2F101F0F001AE
:1028E00000EBC00202EB001263689B00B2FBF3F244
:1028F0006423B2FBF3F201EB021200EBC00101EB27
:10290000001163689B00B1FBF3F100EBC00303EB24
:1029100000136668B600B3FBF6F36426B3FBF6F368
:1029200003EBC30606EB0313A1EB8301322303EB96
:1029300001116423B1FBF3F101F00F01114422688E
:10294000916070BD0038014077B581B004461546EE
:102950000298A062A58500206064222084F84200CD
:102960002848E16B88622848E16BC8622748E16B20
:1029700008630020E16B486302AE32682368191DCA
:102980002B46E06BFEF708F900BF0020009020689E
:102990000068009020684068009000BF00BF206978
:1029A00070B100BF00BF21680C3151E8001F41F435
:1029B000807021680C3141E80002002AF3D100BF89
:1029C00000BF00BF2168143151E8001F41F0010031
:1029D0002168143141E80002002AF3D100BF00BF92
:1029E00000BF2168143151E8001F41F04000216808
:1029F000143141E80002002AF3D100BF002004B0E6
:102A000070BD0000C72500087B2600087725000858
:102A1000014691F84100212828D18868B0F5805FEF
:102A20000BD1086948B90A6A1088C0F308000B681E
:102A30005860086A801C086205E00B6A581C08622E
:102A400018780B685860C88C401E80B2C88458B98A
:102A50000868C06820F080000B68D8600868C0680B
:102A600040F040000B68D860002070470220FCE76F
:102A70002DE9F84304460D4617469846089E31E076
:102A8000701C70B3FEF74EFBA0EB0800B04200D8FC
:102A900016B90320BDE8F8832068C06800F0040080
:102AA000F8B1802D1ED0402D1CD020680068C0F3E6
:102AB000C000B0B100BF0020009020680068009006
:102AC00020684068009000BF00BF2046FFF7E7FD88
:102AD0000820606400BF002084F8400000BF01208F
:102AE000D8E7FFE7206800682840A84201D101200C
:102AF00000E00020B842C3D00020CBE710B5064864
:102B00000068006800F01000102801D1FFF702FBF8
:102B10000148FEF7E5FF10BD3800002000BFFEE7CA
:102B20000FB4054B10B503A9044A029800F038F819
:102B300010BC5DF814FB00000530000830000020D8
:102B400002480068C0F30220704700000CED00E06E
:102B500010B5002804DB0A07130E054A135406E0DB
:102B60000A07140E034A00F00F031B1FD45410BDB4
:102B700000E400E018ED00E0004870473400002059
:102B800002E008C8121F08C1002AFAD17047704736
:102B9000002001E001C1121F002AFBD17047000094
:102BA0002DE9FF4F8DB00F460546002606E025288B
:102BB0000BD0DDE90F1290476D1C761C2878002899
:102BC000F5D111B03046BDE8F08F0024A246A146F1
:102BD0000122EC4900E0044315F8013F203B02FAD2
:102BE00003F00842F7D128782A2810D06FF02F027E
:102BF0002878A0F13001092914D80AEB8A0102EBE8
:102C0000410144F0020400EB010A6D1CF0E701CF22
:102C10005FEA000A03D544F40054CAF1000A44F004
:102C200002046D1C28782E2817D115F8010F44F0E6
:102C300004042A280ED06FF02F022878A0F130016A
:102C400009290AD809EB890102EB410100EB0109CE
:102C50006D1CF2E757F8049B6D1C28786C280FD088
:102C600006DC4C2817D068280DD06A2814D104E05F
:102C7000742810D07A280FD10DE044F400140AE033
:102C800044F4801401E044F440146978814202D194
:102C900004F580146D1C6D1C2A786E2A1FD00CDC84
:102CA000632A31D004DC002A8BD0582A11D1A3E04A
:102CB000642A68D0692A0CD165E0732A2ED004DC1E
:102CC0006F2A73D0702A04D19BE0752A6FD0782ABE
:102CD0006ED01046DDE90F129047761C50E1C4F328
:102CE0000250022806D0032809D0042801CF09D0B9
:102CF000066045E101CFF117C0E9006140E101CF75
:102D000006803DE106703BE117F8040B8DF80000EA
:102D100000208DF80100EB46012003E057F804BBCA
:102D20004FF0FF3061074FF0000102D40DE008F1D1
:102D30000101884649450FDA8045F8DB1BF8081089
:102D40000029F4D108E008F1010188468142FADB4C
:102D50001BF808100029F6D1DDE90F23AAEB0800C3
:102D60008146214600F036F9304400EB080604E0C5
:102D7000DDE90F121BF8010B9047B8F10108F7D2FB
:102D800021464846F7E00A21C4F302534FF0000BF6
:102D90000891022B04D001CFC117032B09D00AE000
:102DA000FF1D27F00707F7E8020108E032E01FE007
:102DB00020E000B2C117042B01D140B2C117031E9D
:102DC00071F1000307DA4FF0000CD0EB0C006CEB54
:102DD00001012D2302E0230504D52B238DF8243097
:102DE000012303E0E30701D02023F7E7984658E0EA
:102DF0000A2110E010210EE010204FF0000B089087
:102E00000CE010214FF0000B44F004044FF00809CF
:102E1000089103E008214FF0000B0891C4F302531E
:102E2000022B04D001CF0021032B06D006E0FF1DAA
:102E300027F00707F7E8020103E080B2042B00D176
:102E4000C0B24FF0000823072BD5702A07D0DDF859
:102E500020C08CF0100C5CEA0B0C05D00EE0402377
:102E60008DF82430012308E050EA010306D0302316
:102E70008DF824308DF8252002239846DDF820C0F7
:102E80008CF0080C5CEA0B0C0BD150EA010301D169
:102E9000630706D530238DF824304FF00108A9F1DF
:102EA0000109582A04D038A20B9208AA0A920BE012
:102EB0003AA2F9E75B46089AFDF775F90B9B9B5C14
:102EC0000A9A521E0A92137050EA0102F2D10A982D
:102ED000ADEB000000F1200B600702D524F4803434
:102EE00001E04FF00109D94502DDA9EB0B0000E03C
:102EF000002000EB0B0141440890AAEB010AE0031B
:102F000006D4DDE90F232146504600F063F806445D
:102F10004FF0000908E009A911F80900DDE90F12D6
:102F2000904709F10109761CC145F4DBE0030CD59B
:102F3000DDE90F232146504600F04CF8064404E03A
:102F4000DDE90F1230209047761C0899481E089042
:102F50000029F5DC08E00A980A990078491C0A91D2
:102F6000DDE90F129047761CBBF10001ABF1010BBC
:102F7000F1DC21465046DDE90F2300F019F8064444
:102F80006D1C1BE6092801003031323334353637E9
:102F900038396162636465660000000030313233A5
:102FA0003435363738394142434445460000000045
:102FB0002DE9F041044600251E461746880404D436
:102FC00005E039462020B0476D1C641EF9D528461F
:102FD000BDE8F0812DE9F041044600251E469046EB
:102FE000C80301D5302700E02027880404D505E078
:102FF00041463846B0476D1C641EF9D52846BDE8E9
:10300000F081000013B50C464FF6FF7301226946AC
:103010000248FEF777FF00981CBD00003800002032
:10302000FEF792F8FFF769FAFFF7E2F9FFF7A4F964
:10303000FFF728FAFDF740FA01E0FDF7E9FAFCE7AF
:1030400002030405060708090A0B0C0D0E0F1010E9
:103050000102000000000000000001020304060756
:103060000809000000000102030400404040404005
:10307000404040404141414141404040404040404B
:103080004040404040404040404040050202020273
:10309000020202020202020202020220202020207A
:1030A0002020202020020202020202029090909032
:1030B0009090101010101010101010101010101010
:1030C0001010101010100202020202028888888874
:1030D0008888080808080808080808080808080870
:1030E0000808080808080202020240006B300008C5
:1030F000103100080000002038000000802B00087C
:103100004831000838000020F00C0000902B000827
:1031100000000000100000000100000000127A0012
:10312000000000000000000000000000000000009F
:10313000000000000000000000000000000000008F
:08314000000000000000000087
:04000005080000ED02
:00000001FF
