:020000040800F2
:108000002848002045810008B1B60008BBAE000832
:10801000ADB60008BD8D0008A9BC00080000000036
:1080200000000000000000000000000059B8000837
:10803000C18D000800000000B5B600085BB800085C
:108040005F8100085F8100085F8100085F81000890
:108050005F8100085F8100085F8100085F81000880
:108060005F8100085F8100085F8100085F81000870
:108070005F8100085F8100085F8100085F81000860
:108080005F8100085F8100085F8100085F81000850
:108090005F8100085F8100085F8100085F81000840
:1080A0005F8100085F8100085F8100085F81000830
:1080B0005F8100085F8100085F8100085F81000820
:1080C0005F8100085F8100085F8100085F81000810
:1080D0005F81000899BC00085F8100085F8100088B
:1080E0005F8100085F8100085F8100085F810008F0
:1080F0005F8100085F8100085F8100085F810008E0
:108100005F8100085F8100085F8100085F810008CF
:108110005F8100085F8100085F8100085F810008BF
:108120005F8100085F8100085F8100085F810008AF
:10813000DFF80CD000F036FC00480047B9EE00082C
:10814000284800200648804706480047FEE7FEE72B
:10815000FEE7FEE7FEE7FEE7FEE7FEE7FEE7FEE7F7
:10816000C9B8000831810008202A04DB203A21FA2E
:1081700002F00021704721FA02F3D040C2F1200240
:10818000914008431946704740EA01039B0703D01A
:1081900009E008C9121F08C0042AFAD203E011F846
:1081A000013B00F8013B521EF9D27047D2B201E008
:1081B00000F8012B491EFBD270470022F6E710B5EC
:1081C00013460A4604461946FFF7F0FF204610BD45
:1081D00030B505462A460B4612F8010B13F8014B41
:1081E00008B1A042F8D01CB1002802D06D1CF1E704
:1081F000284630BD80EA010210B502F0004340007D
:1082000022D04A001FD0010E01EB1261C0F35600CC
:10821000C2F3560240F4000042F40002A0FB022028
:1082200000047F39140400D0401C50EA124001D4ED
:108230004000491EC2B20C0604EBD010401C40089E
:10824000802A02D003E0002010BD20F001000029A8
:1082500000DA0020184310BD30B480EA010202F0B9
:10826000004530F0004221F0004013D090B1C30D22
:10827000D40DC2F31601C0F31600E41A41F4000154
:1082800040F400027D34914201D3641C00E04900B7
:10829000002C02DA30BC002070474FF400000023AD
:1082A000914201D3891A034340084FEA4101F7D1B3
:1082B00051B1914202D14FF0004105E002D24FF09E
:1082C000010101E06FF0010103EBC450284430BC10
:1082D00000F067B92DE9FE4F81EA030404F0004481
:1082E00021F0004100944FF0000B23F0004350EACE
:1082F00001045ED052EA03045BD0C3F30A54C1F315
:108300000A552C44A4F2F3340194A0FB0254C1F3A7
:10831000130141F48011C3F3130343F4801301FBF1
:10832000024400FB034E840A970A44EA815447EA58
:108330008357A4FB076802958D0A05FB07854FEA62
:10834000932C04FB0C542705029D4FEA065847EA7C
:108350001637B5EB08056EEB070C870E920E47EA51
:10836000811742EA8312A7FB0201B6EB0B0164EB13
:1083700000042B0D43EA0C335E1844EB1C50DA4624
:108380005146E7FB0201C5F313044FEA0B3343EAFE
:1083900014534FEA0432019C43EA0603A4F10C048F
:1083A0000294009CCDE900B400F0A5F903B0BDE84B
:1083B000F08F00200146F9E72DE9F04D81EA030432
:1083C00004F0004B21F0004514464FF0000A23F062
:1083D000004150EA050220D054EA01021DD0C5F345
:1083E0000A570246C5F31303C1F31300C1F30A563B
:1083F00040F4801543F48013A7EB0608101BD64603
:1084000008F2FD3873EB050002D308F1010801E022
:1084100092185B41B8F1000F03DA00200146BDE875
:10842000F08D00204FF48011064684460EE0171BA5
:1084300073EB050705D3121B63EB050306434CEAF8
:10844000010C49084FEA300092185B4150EA0107DD
:10845000EDD152EA030012D082EA040083EA05015A
:10846000084305D0101BAB4106D20122002306E0D1
:1084700000224FF0004302E06FF0010253101AEBAC
:1084800006004CEB085110EB0A0041EB0B01BDE874
:10849000F04D00F021B996230022114600F08AB871
:1084A0000EB540F2334102910021CDE900110A4698
:1084B0000B4600F020F903B000BD20F00040C10DD4
:1084C000C0F3160040F400007F2901DA0020704755
:1084D000962903DCC1F19601C8407047963988405F
:1084E0007047C1F30A5210B5C1F3130140F2FF33D4
:1084F00041F480119A4201DA002010BD40F233436A
:108500009A42A2F2334203DC5242FFF72DFE10BD25
:10851000904010BD30B50B460146002020220124BA
:1085200009E021FA02F59D4205D303FA02F5491B41
:1085300004FA02F52844151EA2F10102F1DC30BD57
:108540002DE9F05F0546002092469B468846064688
:10855000814640241BE02846414647462246FFF715
:1085600003FE53465A46C01A914110D3114618468D
:10857000224600F029FA2D1A67EB01084F462246E1
:108580000120002100F020FA17EB00094E41201EC7
:10859000A4F10104DFDC484631462A464346BDE8E3
:1085A000F09F0029A8BF7047401C490008BF20F079
:1085B0000100704710B4B0FA80FC00FA0CF050EAE9
:1085C000010404BF10BC704749B1CCF1200421FA6A
:1085D00004F411FA0CF118BF012121430843A3EB65
:1085E0000C01CB1D4FEA00614FEA102042BF002072
:1085F00010BC704700EBC35010440029A4BF10BC4E
:108600007047401C490008BF20F0010010BC7047B3
:10861000F0B480EA0102D40F4200B2EB410F02D263
:108620000246084611464A0042D0C30DDDB2C1F3EE
:10863000C752AD1A202D35DAC1F3160141F40002FC
:1086400004B15242C5F1200602FA06F12A41104453
:10865000B3EBD05F23D0C4B1012DA0EBC35009DC34
:10866000F0BC4FF0004202EAC352DBB200F500005A
:10867000FFF7A0BF400000F1807000EBC350A0F1F5
:10868000807040EAD170490009E0490841EAC071B0
:10869000A0EBC35000F50000400800EBC350F0BC55
:1086A000FFF77FBF6142012202EB4101001BF6E7A9
:1086B000F0BC704781F00041AAE780F00040A7E7D6
:1086C000420005D0C0F3C7525242914201DC002063
:1086D000704700EBC150704710B5141E73F10004D1
:1086E00008DA401C41F1000192185B411A4301D1A4
:1086F00020F0010010BD2DE9F04D92469B4611B1CE
:10870000B1FA81F202E0B0FA80F22032904600F035
:108710005BF904460F4640EA0A0041EA0B01534662
:108720005A46084313D0114653EA010019D0C8F144
:1087300040025046FFF718FD05460E465046594682
:10874000424600F041F9084305D0012004E02046EC
:108750003946BDE8F08D0020054346EAE0762C431B
:1087600037430A986305E40AA0EB08000022FD0ADB
:1087700044EA47540A3002D500200146E9E70105E2
:1087800010196941DDE9084500196941BDE8F04D5E
:10879000A2E72DE9FE4F804681EA0300C00F0C4698
:1087A000009021F0004123F00045B8EB0200A94100
:1087B00005D24046214690461C460B46024623F011
:1087C0000040104347D0270DC7F30A00C3F30A51F6
:1087D0000290401A019040286BDAC3F3130040F472
:1087E000801B0098924620B10023D2EB030A63EB72
:1087F0000B0B01985946C0F14002504600F0E4F8D6
:1088000006460D4650465946019A00F0ECF810EB2A
:1088100008006141002487EA115284EAE7731A4391
:1088200040D0009A62B3019A012A4FEA075215DC40
:10883000001B61EB02014FF0004202EA0752CDE952
:108840000042001C41F5801132462B46FFF753FFD2
:1088500003B0BDE8F08F40462146F9E7001B61EB0D
:108860000201001C41F5801300185B412018A2F59D
:10887000001747EB030140EAD570B6196D4111E0CE
:108880006D084FEA360645EAC0754FEA0752001BED
:1088900061EB0201001C41F5801149084FEA3000EC
:1088A0000019514132462B4603B0BDE8F04FFFF7A7
:1088B00013BF0098012240000023D0EB020263EBBB
:1088C000E073009821464FEAE074B8EB000061EBDA
:1088D0000401E9E783F000435BE781F0004158E7DA
:1088E000C10F80EAE0700844CA0796230021FFF711
:1088F00061BEC1F30A52C1F3130140F2FF3341F4E8
:1089000080119A4202DA00200146704740F2334358
:108910009A42A2F2334202DC5242FFF725BC00F039
:1089200053B810B500F0004420F00040C20DC0F371
:10893000160040F400007F2A07DA7D2A00DA7D2243
:10894000763A00FA02F1002008E0962A09DCA2F14A
:10895000760100FA01F1C2F19602D040FFF721FE44
:1089600001E0963A9040002C00D0404210BD00003B
:1089700030B5041E71F1000404DB4FF000444042A6
:1089800064EB0101141E73F1000405DB1C464FF07B
:108990000043524263EB0403994208BF904230BD4A
:1089A00000207047064C074D06E0E06840F00103E8
:1089B00094E8070098471034AC42F6D3FFF7BCFBAD
:1089C00084F60008A4F60008202A04DB203A00FA06
:1089D00002F1002070479140C2F1200320FA03F316
:1089E000194390407047202A06DBCB17203A41FA02
:1089F00002F043EAE07306E041FA02F3D040C2F12C
:108A00002002914008431946704700002DE9F041CB
:108A100004460D462646E81CC11700EB91718F10E5
:108A200008480068806840F00100064909688860CD
:108A30003A463146034800F0D1FA80464046BDE848
:108A4000F08100000000002010B50122110213483F
:108A500000F0C2FD00220121104800F0BDFDC82039
:108A600000F0FEFB012211460C4800F0B5FD00228B
:108A700002210A4800F0B0FDC82000F0F1FB0122FD
:108A80000221064800F0A8FD00224FF4807103483F
:108A900000F0A2FDC82000F0E3FB10BD000801407B
:108AA000F8B52D490888C11700EB115109138F1C27
:108AB000002605E03146002002F038FC701CC6B2EA
:108AC000BE42F7DB002025490870102048700020C6
:108AD0008870C8702048007808711F480088000A14
:108AE0004871002088711C4800880016C87108224F
:108AF000002002F075FC0024002515E016480088CF
:108B0000001BB0F5807F02DD4FF4807503E0124852
:108B10000088001B85B2124A111904F580502A46BC
:108B200002F05EFC601984B20B4800888442E5DBE9
:108B30000020009001208DF800005A208DF80100DF
:108B40006B208DF8020003226946102002F088FB9A
:108B5000052004490870F8BD1A00002020000020FC
:108B60006C0100201800002070B505F051F9044692
:108B7000002C3AD11D4890F8B61190F8B70141EA9F
:108B800000211A4890F8B80141EA0041174890F8CE
:108B9000B90141EA0065164801881648FFF736FF1B
:108BA0000646B54206D114A003F080F80420174908
:108BB00008700EE016A003F079F84FF480410D48DC
:108BC000FFF7FBFA00200A490880164908600F49A0
:108BD00008700648B0F8B61200F5DB70FFF7EDFA42
:108BE00000200249A1F8B60200BF70BD6C41002010
:108BF0001A0000206C0100206372632063686563C3
:108C00006B20706173730D0A0000000018000020D3
:108C100063726320636865636B206661696C0D0A2B
:108C2000000000001C00002008B500BF00200090DC
:108C30000F480068006800900D4800684068009088
:108C400000BF00BF00BF0020009009480068006816
:108C50000090074800684068009000BF00BF2022D5
:108C60000449034801F05DFE04F0BAFD08BD0000B0
:108C7000040100204C01002010B505F0C9F804469D
:108C8000FCB900F0AFFC194908601949B1F8B622E7
:108C90001849194B1B88C8181849FFF775FA14486A
:108CA000B0F8B602144909880844134908801048EE
:108CB000B0F8B6121148FFF780FA00200C49A1F86D
:108CC000B6020A48006878B100F08CFC07490968D0
:108CD00001F6B831884207D90748018808A002F098
:108CE000E5FF03200B49087010BD00001C000020A8
:108CF0006C4100206C0100201A000020224300205B
:108D000063616E5F7265635F6D73675F6C656E3A1A
:108D100025640A001800002010B5042103A005F006
:108D200087F802200249087010BD000073676700D1
:108D30001800002010B518480078062828D2DFE86F
:108D400000F00306171A1D20FFF77EFE21E013A096
:108D500002F0ACFF14A002F0A9FFFFF7DDFF4FF413
:108D600080411448FFF729FA00201349088010E0D9
:108D7000FFF782FF0DE0FFF7F7FE0AE0FFF790FE36
:108D800007E04FF47A7000F06BFA00F0D9FE00E0D3
:108D900000BF00BF10BD00001800002072656376A0
:108DA00020636D640D0A000073656E6420636D645A
:108DB0000D0A00006C0100201A00002000BFFEE731
:108DC000704772B600BFFEE770B504460CB90120CB
:108DD00070BD94F8200010B9204600F0AFF820686C
:108DE000006840F001002168086000F0FBFB0546C8
:108DF0000DE000F0F7FB401B0A2808D9606A40F438
:108E000000306062052084F820000120E0E720683F
:108E1000406800F001000028EBD02068006820F0D6
:108E200002002168086000F0DDFB05460DE000F05F
:108E3000D9FB401B0A2808D9606A40F40030606200
:108E4000052084F820000120C2E72068406800F077
:108E500002000028EBD1207E012806D1206800689E
:108E600040F080002168086005E02068006820F07C
:108E7000800021680860607E012806D120680068B3
:108E800040F040002168086005E02068006820F09C
:108E9000400021680860A07E012806D12068006893
:108EA00040F020002168086005E02068006820F09C
:108EB000200021680860E07E012806D12068006853
:108EC00020F010002168086005E02068006840F08C
:108ED000100021680860207F012806D12068006802
:108EE00040F008002168086005E02068006820F074
:108EF000080021680860607F012806D120680068AA
:108F000040F004002168086005E02068006820F057
:108F1000040021680860D4E902010843216908437C
:108F2000616908436168491E08432168C8610020DF
:108F30006062012084F82000002049E710B586B067
:108F40000446002002900390049005901F49206879
:108F5000884239D100BF1E48C06940F000701C49EA
:108F6000C8610846C06900F00070019000BF00BFF2
:108F700000BF0846806940F00800886108468069A3
:108F800000F00800019000BF00BF8815029000208B
:108F90000390049002A90F4800F076F94FF4007096
:108FA0000290022003900320059002A9094800F0D6
:108FB0006BF900BF0849486820F4C04040F0E06009
:108FC00040F48040486000BF06B010BD006400401F
:108FD00000100240000C01400000014070B5034643
:108FE0000C46002002255D711D68AD6845F0010545
:108FF0001E68B560002104E054F821501E683560F9
:10900000491C9142F8D31D68286801255D7170BD27
:1090100010B504460CB9012010BD607920B90020BC
:109020002071204600F004F8012060710020F3E771
:1090300008B5094A016891420DD100BF0749496945
:1090400041F04001054A51611146496901F0400172
:10905000009100BF00BF08BD003002400010024078
:109060000146002291F82100022808D004208863DC
:1090700000BF002081F8200000BF01207047086871
:10908000006820F00E000B6818600868006820F087
:1090900001000B68186091F8403001209840CB6BBC
:1090A0005860012081F8210000BF002081F82000D5
:1090B00000BF1046E2E7000070B50446002594F8B2
:1090C0002100022803D00420A0630125C1E020680C
:1090D000006820F00E00216808602068006820F019
:1090E0000100216808605C492068884252D95A49C9
:1090F00078392068884201D1012047E05649643917
:109100002068884201D1102040E05349503920683E
:10911000884201D1801539E04F493C3920688842A6
:1091200001D1801432E04C4928392068884202D1AC
:109130004FF480302AE0484914392068884202D12F
:109140004FF4801022E044492068884201D1400455
:109150001CE042492068884201D1012016E03F49C5
:1091600014312068884201D110200FE03B4928319A
:109170002068884201D1801508E038493C312068D8
:10918000884201D1801401E04FF480303349091F37
:10919000086051E0304978392068884201D10120C7
:1091A00047E02D4964392068884201D1102040E011
:1091B000294950392068884201D1801539E0264973
:1091C0003C392068884201D1801432E02249283994
:1091D0002068884202D14FF480302AE01E491439B9
:1091E0002068884202D14FF4801022E01A4920689A
:1091F000884201D140041CE018492068884201D10E
:10920000012016E0154914312068884201D1102050
:109210000FE0124928312068884201D1801508E00A
:109220000E493C312068884201D1801401E04FF49E
:109230008030094980394860012084F8210000BF4E
:10924000002084F8200000BF606B10B12046616BE5
:109250008847284670BD0000800002400804024094
:1092600070B5044600F0BEF906462546681C10B1EC
:1092700004480078054400BF00F0B4F9801BA84200
:10928000FAD370BD100000202DE9F84702460023F4
:109290009C467BE14FF0010808FA03F4D1F8008006
:1092A00008EA0400A0427DD1DFF8F4A2D1F80480DE
:1092B000A8EB0A09D0453AD014DCB8F1030F50D01E
:1092C00009DCB8F1000F31D0B8F1010F1CD0B8F1B2
:1092D000020F49D120E0B8F1110F18D0B8F1120FE8
:1092E00042D11EE0B9F5881F25D006DCB9F5803FD4
:1092F00020D0B9F5801F37D11AE0B9F5001F18D07A
:10930000B9F5041F30D117E0D1F80CC02DE0D1F829
:109310000C8008F1040C28E0D1F80C8008F1080C4E
:1093200023E0D1F80C8008F10C0C1EE000BF00BF58
:1093300000BF00BF00BF00BFD1F80880B8F1000F28
:1093400002D14FF0040C0BE0D1F80880B8F1010F06
:1093500003D14FF0080C146102E04FF0080C546187
:1093600003E04FF0000C00E000BF00BFFF2801D871
:10937000904601E002F104084646FF2802D84FEA71
:10938000830803E0A3F108084FEA88084746D6F8A7
:1093900000804FF00F0909FA07F928EA09080CFACA
:1093A00007F900E07AE048EA0908C6F80080D1F839
:1093B000048008F08058B8F1805F6FD100BFDFF8FB
:1093C000E481D8F8188048F00108DFF8D891C9F88E
:1093D0001880C846D8F8188008F00108CDF8008039
:1093E00000BF00BF4FEAB9384FEA930958F8295037
:1093F0004FEA83784FEA18794FF00F0808FA09F816
:1094000025EA0805DFF8A081424502D14FF00008A7
:1094100024E0DFF89881424502D14FF001081DE0B9
:10942000DFF88C81424502D14FF0020816E0DFF8E8
:109430008481424502D14FF003080FE0DFF87881C4
:10944000424502D14FF0040808E0DFF87081424540
:1094500002D14FF0050801E04FF006084FEA83798A
:109460004FEA197908FA09F848EA0505DFF850814A
:109470004FEA930948F82950D1F8048008F480187D
:10948000B8F5801F0BD1DFF83C81D8F8008048EA9E
:109490000008DFF83091C9F800800AE075E0DFF8D5
:1094A0002481D8F8008028EA0008DFF81891C9F86C
:1094B0000080D1F8048008F40018B8F5001F0ED120
:1094C000DFF8008108F10408D8F8008048EA0008B5
:1094D000DFF8F09009F10409C9F800800DE0DFF829
:1094E000E48008F10408D8F8008028EA0008DFF8D2
:1094F000D49009F10409C9F80080D1F8048008F477
:109500000038B8F5003F0ED1DFF8B880A8F10408A4
:10951000D8F8008048EA0008DFF8A890A9F104090B
:10952000C9F800800DE0DFF89C80A8F10408D8F8A5
:10953000008028EA0008DFF88C90A9F10409C9F836
:109540000080D1F8048008F48038B8F5803F0ED14F
:10955000DFF87080A8F10808D8F8008048EA000811
:10956000DFF86090A9F10809C9F800800DE0DFF884
:109570005480A8F10808D8F8008028EA0008DFF82D
:109580004490A9F10809C9F800805B1CD1F800805B
:1095900028FA03F8B8F1000F7FF47CAEBDE8F88735
:1095A000000011100010024000080140000C0140B2
:1095B000001001400014014000180140001C01404F
:1095C0000800014008040140024693680B400BB1BB
:1095D000012000E0002070470AB1016101E00B04A6
:1095E00003617047014800687047000008000020D0
:1095F00070B504460CB9012070BD94F83D0028B93F
:10960000002084F83C00204600F08CF9242084F8E7
:109610003D002068006820F0010021680860206893
:10962000006840F40040216808602068006820F469
:1096300000402168086000F071FB05465C496068E5
:10964000884206D85B48854201D2012007E000200D
:1096500005E05948854201D2012000E000200128A0
:1096600000D1C9E75548B5FBF0F62068406820F006
:109670003F003043216848604D496068884201D806
:10968000701C07E04FF4967070434FF47A71B0FB92
:10969000F1F0401C2168096A21F03F01084321686C
:1096A000086243496068884214D8681E61684900AE
:1096B000B0FBF1F0401CC0F30B00042801D20420E1
:1096C0003DE0681E61684900B0FBF1F0401CC0F34A
:1096D0000B0034E0A06838B9681E616801EB4101F5
:1096E000B0FBF1F0401C0AE0681E616801EBC102AA
:1096F00002EB0111B0FBF1F0401C40F48040C0F3DC
:109700000B0008B901201AE0A06848B9681E61681A
:1097100001EB4101B0FBF1F0401CC0F30B000CE089
:10972000681E616801EBC10202EB0111B0FBF1F0B0
:10973000401CC0F30B0040F4804040F4004021681E
:10974000C9694CF6FF72914308432168C861D4E9A6
:10975000070108432168096821F0C0010843216816
:109760000860D4E9031008432168896848F2FF3291
:109770009143084321688860D4E9050108432168C2
:10978000C96821F0FF0108432168C86020680068AB
:1097900040F001002168086000202064202084F847
:1097A0003D000020206384F83E0000BF24E7000055
:1097B000A086010080841E0000093D0040420F0089
:1097C0002DE9FC5F04460F4690469946DDE90CAB57
:1097D0000E9EFFF707FF054694F83D0020287DD137
:1097E000192301224D492046009501F02AFC10B1B1
:1097F0000220BDE8FC9F00BF94F83C00012801D185
:109800000220F6E7012084F83C0000BF20680068D1
:1098100000F0010028B92068006840F001002168CC
:1098200008602068006820F400602168086021203A
:1098300084F83D00402084F83E0000202064C4F8F5
:1098400024A0A4F82AB0608D20853548E0624B46FC
:10985000424639462046CDE9006501F04FFB08B18C
:109860000120C6E731E02A463146204601F0C5FC1A
:1098700050B1206C042805D12068006840F40070C5
:10988000216808600120B4E7606A007821680861F7
:10989000606A401C6062208D401E2085608D401EE5
:1098A000608520684069C0F3800070B1208D60B190
:1098B000606A007821680861606A401C6062208DDF
:1098C000401E2085608D401E6085208D0028CAD1F5
:1098D0002A463146204601F081FB00E01CE050B1F1
:1098E000206C042805D12068006840F400702168CD
:1098F000086001207DE72068006840F4007021685E
:109900000860202084F83D00002084F83E0000BF5D
:1099100084F83C0000BF6CE702206AE702001000F8
:109920000000FFFF10B586B00446002002900390AF
:109930000490059016492068884226D100BF15483A
:10994000806940F00800134988610846806900F08A
:109950000800019000BF00BF4FF440600290122049
:1099600003900320059002A90B48FFF78DFC00BF70
:109970000848C06940F480000649C8610846C069CB
:1099800000F48000019000BF00BF06B010BD0000D1
:109990000058004000100240000C014003480068DD
:1099A000034909780844014908607047080000200D
:1099B0001000002010B50848006840F0100006496B
:1099C0000860032000F0A8F80F2000F007F800F06E
:1099D0002BF8002010BD00000020024070B50446A6
:1099E0000E4800784FF47A71B1FBF0F00C49096829
:1099F000B1FBF0F5284600F07AFF08B1012070BDF8
:109A0000102C07D200222146501E00F047F80548CE
:109A1000046001E00120F2E70020F0E710000020E0
:109A2000140000200C00002008B500BF1148806918
:109A300040F001000F4988610846806900F001008C
:109A4000009000BF00BF00BF0846C06940F08050D2
:109A5000C8610846C06900F08050009000BF00BF98
:109A600000BF0549486820F0E06040F000704860A1
:109A700000BF08BD0010024000000140014608463A
:109A8000002809DB00F01F0301229A4043099B00D4
:109A900003F1E023C3F8002100BF70472DE9F05F18
:109AA00080460D461646002702F02CF90746394637
:109AB0002A46334601F00700C0F1070ABAF1040F45
:109AC00002D94FF0040A01E0C0F1070AD14600F1C3
:109AD000040ABAF1070F02D24FF0000A01E0A0F128
:109AE000030AD4464FF0010A0AFA09FAAAF1010A58
:109AF0000AEA020A0AFA0CFA4FF0010B0BFA0CFB05
:109B0000ABF1010B0BEA030B4AEA0B04214640467A
:109B100002F000F9BDE8F09F00BF00F00702064B1D
:109B200019684FF6FF031940044B0B4343EA022127
:109B3000014B196000BF70470CED00E00000FA0512
:109B400000BF00BF00BF00BF00BFBFF34F8F00BF0B
:109B500000BF00BF0948006800F4E06008490843FE
:109B6000001D0649086000BF00BF00BFBFF34F8F54
:109B700000BF00BF00BF00BF00BFFDE70CED00E06D
:109B80000000FA0570B504460D460CB9012070BD01
:109B90005A48006800F00700A8420ED257480068F3
:109BA00020F007002843554908600846006800F087
:109BB0000700A84201D00120E9E7207800F0020068
:109BC00002281DD1207800F00400042805D14C485B
:109BD000406840F4E0604A494860207800F008009E
:109BE000082805D14648406840F460504449486020
:109BF0004348406820F0F000A168084340494860AD
:109C0000207800F0010078B36068012806D13C4854
:109C1000006800F4003090B90120B8E760680228BD
:109C200006D13748006800F0007040B90120AEE767
:109C30003348006800F0020008B90120A7E7304867
:109C4000406820F00300616808432D494860FFF731
:109C5000C9FC064609E0FFF7C5FC801B41F28831CC
:109C6000884202D9032092E707E02548406800F0C7
:109C70000C006168B0EB810FEDD12048006800F066
:109C80000700A8420ED91D48006820F007002843AD
:109C90001A4908600846006800F00700A84201D091
:109CA000012074E7207800F00400042807D114484C
:109CB000406820F4E060E16808431149486020787A
:109CC00000F00800082808D10D48406820F46050D2
:109CD000216940EAC1000A49486000F03FF808499C
:109CE0004968C1F30311074A515CC840064908603E
:109CF00006480068FFF772FE002048E70020024097
:109D0000001002402AF50008140000200C0000207A
:109D100001480068704700001400002000B5FFF7FC
:109D2000F7FF04494968C1F30221034A515CC84066
:109D300000BD0000001002403AF5000800B5FFF732
:109D4000E7FF04494968C1F3C221034A515CC84096
:109D500000BD0000001002403AF5000870B5002177
:109D60000022002400230020134D696801F00C0537
:109D7000F5B1042D02D0082D19D101E00F4819E0EA
:109D80000F4DC1F38346AB5D01F4803555B10A4DEB
:109D90006D68C5F340450B4E725D084D5D43B5FBE4
:109DA000F2F402E0084D03FB05F4204602E000BF98
:109DB000024800BF00BF70BD0010024000127A00D0
:109DC00018F5000828F5000800093D00F8B504461C
:109DD0000CB90120F8BD207800F00100002878D0EF
:109DE000F848406800F00C0004280CD0F5484068A2
:109DF00000F00C00082811D1F248406800F48030CF
:109E0000B0F5803F0AD1EF48006800F40030002828
:109E10005FD0606800285CD10120DBE700BF60688C
:109E2000B0F5803F06D1E748006840F48030E5494E
:109E3000086028E0606858B9E248006820F4803083
:109E4000E04908600846006820F4802008601AE0B5
:109E50006068B0F5A02F0BD1DA48006840F480208C
:109E6000D84908600846006840F4803008600AE07D
:109E7000D448006820F48030D24908600846006861
:109E800020F48020086000BF606888B1FFF7AAFB5B
:109E9000054606E0FFF7A6FB401B642801D9032016
:109EA00098E7C848006800F400300028F2D010E0BD
:109EB000FFF798FB054606E0FFF794FB401B64287C
:109EC00001D9032086E7BF48006800F4003000286D
:109ED000F2D1207800F00200022857D1B94840683A
:109EE00000F00C0050B1B748406800F00C000828A2
:109EF00018D1B448406800F4803098B9B14800687F
:109F000000F0020020B12069012801D0012061E7A2
:109F1000AC48006820F0F800616940EAC100A94936
:109F2000086033E02069E8B10120A7490860FFF725
:109F300059FB054606E0FFF755FB401B022801D9F7
:109F4000032047E79F48006800F002000028F2D095
:109F50009C48006820F0F800616940EAC100994916
:109F6000086013E0002098490860FFF73BFB0546B6
:109F700006E0FFF737FB401B022801D9032029E741
:109F80009048006800F002000028F2D1207800F02C
:109F9000080008282DD1A069B8B101208B490860BC
:109FA000FFF720FB054606E0FFF71CFB401B0228DD
:109FB00001D903200EE78348406A00F00200002820
:109FC000F2D0012001F078FB13E000207F49086007
:109FD000FFF708FB054606E0FFF704FB401B0228DD
:109FE00001D90320F6E67748406A00F00200002815
:109FF000F2D1207800F00400042873D100277148C2
:10A00000C06900F0805070B900BF6E48C06940F070
:10A0100080506C49C8610846C06900F080500090CB
:10A0200000BF00BF01276A48006800F48070B0B923
:10A030006748006840F4807065490860FFF7D2FA0D
:10A04000054606E0FFF7CEFA401B642801D903203D
:10A05000C0E65F48006800F480700028F2D000BFBE
:10A06000E068012806D15748006A40F001005549D0
:10A07000086227E0E06858B95248006A20F0010001
:10A08000504908620846006A20F00400086219E09E
:10A09000E06805280BD14B48006A40F004004949AC
:10A0A00008620846006A40F0010008620AE045487C
:10A0B000006A20F00100434908620846006A20F067
:10A0C0000400086200BFE068A0B1FFF78BFA054604
:10A0D00009E0FFF787FA401B41F28831884202D934
:10A0E000032077E622E03748006A00F002000028EB
:10A0F000EFD012E0FFF776FA054608E0FFF772FAB4
:10A10000401B41F28831884201D9032062E62D4884
:10A11000006A00F002000028F0D1012F05D1294883
:10A12000C06920F080502749C86100BFE069C8B30A
:10A130002448406800F00C00082860D0E06902283C
:10A1400048D1002020490866FFF74CFA054606E092
:10A15000FFF748FA401B022801D903203AE61948C4
:10A16000006800F000700028F2D1206AB0F5803F4E
:10A1700007D11448406820F40030A1680843114911
:10A180004860D4E9080108430E49496821F4741174
:10A1900008430C49486001200B490866FFF722FA82
:10A1A000054607E03DE0FFF71DFA401B022801D9F4
:10A1B00003200FE60348006800F000700028F2D08A
:10A1C0002FE00000001002400000424280044242A2
:10A1D00000700040002014490866FFF703FA0546A6
:10A1E00006E0FFF7FFF9401B022801D90320F1E543
:10A1F0000E48006800F000700028F2D111E0E0691C
:10A20000012800D1E6E50948466806F48031206A55
:10A21000814204D106F47011606A814201D00120AC
:10A22000D8E50020D6E500000000424200100240C0
:10A2300010B504460CB9012010BD606A38B96068D9
:10A24000B0F5827F00D105E00021E16102E000214C
:10A25000216161610021A16294F8510028B90020B8
:10A2600084F85000204600F043F8022084F85100A2
:10A270002068006820F0400021680860A08800F491
:10A280008270218901F404410843A18901F400612D
:10A290000843217C01F002010843217D01F0010106
:10A2A0000843218B01F400710843217F01F038013C
:10A2B00008432021095D01F080010843218D01F44C
:10A2C00000510843216808600421A06901EA104098
:10A2D000216848602068C06920F400602168C86176
:10A2E00000206065012084F851000020A4E70000F0
:10A2F00010B586B0044600200290039004900590AB
:10A300001949206888422DD100BF1848806940F45F
:10A310008050164988610846806900F48050019099
:10A3200000BF00BF00BF0846806940F0040088619C
:10A330000846806900F00400019000BF00BFA02023
:10A340000290022003900320059002A90848FEF71E
:10A350009BFF4020029000200390049002A9044833
:10A36000FEF792FF06B010BD003001400010024021
:10A37000000801402DE9F8430446884616461D466C
:10A380004FF0000994F85100012802D04FF0020963
:10A39000A8E06068B0F5827F0DD1A06858B90420AC
:10A3A00084F851003346424641462046009500F06D
:10A3B0007EF9BDE8F88300BF94F85000012801D170
:10A3C0000220F6E7012084F8500000BFFFF70AF9E9
:10A3D0000746B8F1000F00D016B94FF0010981E02F
:10A3E000042084F8510000206065C4F83880A687F6
:10A3F000E6872063A086E08620646064A068B0F5EC
:10A40000004F0BD12068006820F0400021680860F0
:10A410002068006820F48040216808602068006897
:10A4200000F04000402805D02068006840F040005F
:10A4300021680860E06810BB1DE02068806800F0BB
:10A44000010050B12068007BA16B0870A06B401C1C
:10A45000A063E08F401EE0870DE0FFF7C3F8C01B4C
:10A46000A84201D3681C00B92DB94FF0030901209F
:10A4700084F8510036E0E08F0028DED121E01DE0B5
:10A480002068806800F0010050B12068C068A16BAE
:10A490000880A06B801CA063E08F401EE0870DE069
:10A4A000FFF7A0F8C01BA84201D3681C00B92DB962
:10A4B0004FF00309012084F8510013E0E08F0028D9
:10A4C000DED13A462946204601F00AF908B120209B
:10A4D0006065606D10B14FF0010902E0012084F861
:10A4E000510000BF00BF002084F8500000BF484664
:10A4F0005FE72DE9F84F0446884616461D464FF0A3
:10A50000000A00BF94F85000012802D10220BDE8E3
:10A51000F88F012084F8500000BFFFF763F807466A
:10A52000B14694F85100012802D04FF0020AB7E07A
:10A53000B8F1000F00D016B94FF0010AB0E00320C7
:10A5400084F8510000206065C4F83080A686E68655
:10A55000A063A087E08760642064A068B0F5004F26
:10A560000BD12068006820F0400021680860206856
:10A57000006840F48040216808602068006800F0AE
:10A580004000402805D02068006840F04000216865
:10A590000860E068B0F5006F32D1606810B1B9F1C1
:10A5A000010F09D1206B00882168C860206B801CD6
:10A5B0002063E08E401EE0861EE02068806800F088
:10A5C000020002280AD1206B00882168C860206B35
:10A5D000801C2063E08E401EE0860DE0FFF702F84D
:10A5E000C01BA84201D3681C00B92DB94FF0030A63
:10A5F000012084F8510053E0E08E0028DDD131E0E5
:10A60000606810B1B9F1010F09D1206B00782168A1
:10A610000873206B401C2063E08E401EE0861EE025
:10A620002068806800F0020002280AD1206B0078C0
:10A6300021680873206B401C2063E08E401EE0867A
:10A640000DE0FEF7CFFFC01BA84201D3681C00B984
:10A650002DB94FF0030A012084F8510020E0E08E6C
:10A660000028DDD13A462946204601F075F808B1A8
:10A6700020206065A06850B900BF002000902068CD
:10A68000C068009020688068009000BF00BF606DC7
:10A6900010B14FF0010A02E0012084F8510000BF20
:10A6A00000BF002084F8500000BF50462FE72DE97E
:10A6B000FF5F0446884691461D460E9E012002908B
:10A6C0000020019000BF94F85000012803D102201F
:10A6D00004B0BDE8F09F012084F8500000BFFEF7F1
:10A6E00081FF074694F851B060680390AA46BBF119
:10A6F000010F0BD00398B0F5827F04D1A06810B988
:10A70000BBF1040F02D002200190E9E0B8F1000F84
:10A7100003D0B9F1000F00D015B901200190DFE09E
:10A7200094F85100042802D0052084F8510000203C
:10A730006065C4F83890E587A587C4F83080E58661
:10A74000A586206460642068006800F0400040280E
:10A7500005D02068006840F0400021680860E0688B
:10A76000B0F5006F4DD1606810B1BAF1010F09D199
:10A77000206B00882168C860206B801C2063E08EFD
:10A78000401EE08636E02068806800F00200022863
:10A7900010D1E08E70B1029801280BD1206B008897
:10A7A0002168C860206B801C2063E08E401EE0861C
:10A7B000002002902068806800F0010068B1E08FFE
:10A7C00058B12068C068A16B0880A06B801CA06392
:10A7D000E08F401EE08701200290FEF703FFC01BC0
:10A7E000B04207D3701C28B103200190012084F8E7
:10A7F000510075E0E08E0028C5D1E08F0028C2D15D
:10A800004DE0606810B1BAF1010F09D1206B0078FA
:10A8100021680873206B401C2063E08E401EE08698
:10A8200037E02068806800F00200022810D1E08E36
:10A8300070B1029801280BD1206B00782168087351
:10A84000206B401C2063E08E401EE08600200290BA
:10A850002068806800F0010068B1E08F58B120687E
:10A86000C068A16B0870A06B401CA063E08F401E05
:10A87000E08701200290FEF7B5FEC01BB04201D375
:10A88000701C00B92EB903200190012084F85100FA
:10A8900026E0E08E0028C4D1E08F0028C1D13A46DE
:10A8A0003146204600F058FF20B1012001902020C1
:10A8B000606515E0A06850B900BF002000902068D6
:10A8C000C068009020688068009000BF00BF606D85
:10A8D00010B10120019002E0012084F8510000BF76
:10A8E00000BF002084F8500000BF0198F0E670B56A
:10A8F00004462546681EB0F1807F01D301200FE099
:10A90000681E4FF0E02148610F214FF0FF3001F049
:10A9100001FA00204FF0E021886107200861002043
:10A9200070BDF8B504460E46174694F8420020283C
:10A930002ED106B10FB90120F8BD012020630020FF
:10A9400060633A463146204601F00CF90546EDB900
:10A95000206B012819D100BF0020009020680068FA
:10A96000009020684068009000BF00BF00BF00BF9B
:10A9700021680C3151E8001F41F0100021680C31B2
:10A9800041E80002002AF3D100E001252846D3E780
:10A990000220D1E738B504460D46174920688842A1
:10A9A00029D11648007830BB15A11648FDF710FCD8
:10A9B00008B301201149087000BF00200090124820
:10A9C000006800680090104800684068009000BF70
:10A9D00000BF00BF002000900B4800680068009096
:10A9E000094800684068009000BF00BF2022054968
:10A9F0000548FFF796FF38BD0038014018000020D9
:10AA0000636D64004C0100200401002070470000C9
:10AA10002DE9F84F0446206805682068C66820685C
:10AA200047694FF00009CA4605F00F09B9F1000F58
:10AA30000AD105F0200038B106F0200020B12046F0
:10AA400000F093FFBDE8F88FB9F1000F7BD007F05D
:10AA5000010018B906F49070002874D005F00100C8
:10AA600030B106F4807018B1606C40F00100606491
:10AA700005F0040030B107F0010018B1606C40F03F
:10AA80000200606405F0020030B107F0010018B167
:10AA9000606C40F00400606405F0080048B106F006
:10AAA000200010B907F0010018B1606C40F00800F8
:10AAB0006064606C002845D005F0200028B106F0E5
:10AAC000200010B1204600F050FF20684069C0F31C
:10AAD000801A606C00F0080010B9BAF1000F2CD099
:10AAE000204600F0FCFE2068406900F0400000B302
:10AAF00000BF00BF2168143151E8001F21F0400061
:10AB00002168143141E80002002AF3D100BFE06B54
:10AB100050B17748E16B4863E06BFEF7CDFA88B13E
:10AB2000E06B416B88470DE02046FFF76FFF09E0BF
:10AB300009E02046FFF76AFF04E02046FFF766FFC2
:10AB4000002060647EE7206B012877D105F01000BB
:10AB5000002873D006F010000028FAD000BF0020B3
:10AB6000009020680068009020684068009000BF56
:10AB700000BF2068406900F0400000285FD0E06B13
:10AB8000006840681FFA80F8B8F1000F55D0A08D1A
:10AB9000404552DDA4F82E80E06B8069202843D028
:10ABA00000BF00BF21680C3151E8001F21F4807004
:10ABB00021680C3141E80002002AF3D100BF00BF38
:10ABC00000BF2168143151E8001F21F00100216805
:10ABD000143141E80002002AF3D100BF00BF00BFDA
:10ABE0002168143151E8001F21F040002168143120
:10ABF00041E80002002AF3D100BF202084F842007F
:10AC00000020206300BF00BF21680C3151E8001F05
:10AC100021F0100021680C3141E80002002AF3D134
:10AC200000BFE06BFEF71CFA02206063A08DE28D8E
:10AC3000801A81B22046FFF7ADFE03E742E0A08D07
:10AC4000E18D401A1FFA80F8E08DD0B3B8F1000F03
:10AC500037D000BF00BF21680C3151E8001F21F43C
:10AC6000907021680C3141E80002002AF3D100BF46
:10AC700000BF00BF2168143151E8001F21F001001E
:10AC80002168143141E80002002AF3D100BF2020DE
:10AC900084F842000020206300BF00BF21680C310F
:10ACA00051E8001F21F0100021680C3141E800023A
:10ACB000002AF3D100BF0220606341462046FFF71F
:10ACC00069FEBFE605F0800030B106F0800018B1E3
:10ACD000204600F067FFB5E605F0400030B106F011
:10ACE000400018B1204600F030FEABE600BFA9E6F8
:10ACF000CBB8000810B504460CB9012010BDA069FE
:10AD000000B100E000BF94F8410028B9002084F8A9
:10AD10004000204600F02AF8242084F841002068F2
:10AD2000C06820F400502168C860204600F09CFEF6
:10AD30002068006920F4904021680861206840691B
:10AD400020F02A00216848612068C06840F4005063
:10AD50002168C86000206064202084F8410084F8E5
:10AD600042000020606300BFC8E7000010B586B055
:10AD70000446002002900390049005901E4920682C
:10AD8000884236D100BF1D48806940F480401B498D
:10AD900088610846806900F48040019000BF00BFD0
:10ADA00000BF0846806940F0040088610846806959
:10ADB00000F00400019000BF00BF4815029002207F
:10ADC00003900320059002A90D48FEF75DFA4FF4A9
:10ADD0008060029000200390049002A90848FEF7CA
:10ADE00053FA002205212520FEF758FE2520FEF704
:10ADF00045FE06B010BD00000038014000100240C2
:10AE00000008014070472DE9F84F04460E461746EA
:10AE100099464FF0000A94F8410020284AD106B123
:10AE200017B90120BDE8F88F00206064212084F864
:10AE30004100FEF7D7FB8246A784E784A068B0F5FF
:10AE4000805F04D1206910B90025B04602E0354684
:10AE50004FF000081BE05346002280212046CDF829
:10AE6000009000F0CFFE08B10320DBE745B9B8F849
:10AE70000000C0F308002168486008F1020803E000
:10AE80002878216848606D1CE08C401EE084E08CCE
:10AE90000028E0D15346002240212046CDF8009002
:10AEA00000F0B0FE08B10320BCE7202084F8410088
:10AEB0000020B7E70220B5E7704700BFFEE7014674
:10AEC00008684069C0F38020B0B16FF480600A6800
:10AED000506100200863202081F83D00002081F8A7
:10AEE0003E00086C40F00400086400BF002081F8B8
:10AEF0003C0000BF012070470020FCE72DE9F8432B
:10AF00000446884615469946DDE9086720680068CA
:10AF100040F4807021680860334600224FF0011130
:10AF20002046009700F08DF860B12068006800F4BA
:10AF30008070B0F5807F02D14FF400702064032050
:10AF4000BDE8F88308F0FE00216808613B46324600
:10AF50002149204600F0D4F808B10120F0E700BFF5
:10AF6000002000902068406900902068806900906F
:10AF700000BF00BF3A463146204600F03EF950B1CE
:10AF8000206C042805D12068006840F40070216816
:10AF900008600120D4E7B9F1010F03D1E8B22168BC
:10AFA000086117E0C5F30720216808613A46314679
:10AFB000204600F022F950B1206C042805D1206809
:10AFC000006840F40070216808600120B8E7E8B22A
:10AFD000216808610020B3E70200010070B5044653
:10AFE0000D46164625E02046FFF769FF08B101200F
:10AFF00070BD681CE8B1FEF7F5FA801BA84200D8C6
:10B00000BDB920684069C0F3800090B9002020637A
:10B01000202084F83D00002084F83E00206C40F0A1
:10B020002000206400BF002084F83C0000BF012005
:10B03000DEE720684069C0F380000028D3D00020FC
:10B04000D6E72DE9F04104460D4617461E46DDF8C9
:10B05000188038E0701CA8B3FEF7C4FAA0EB080013
:10B06000B04200D876BBC5F3074001280AD120685A
:10B070004069A9B20840A9B2884201D101200BE081
:10B08000002009E020688069A9B20840A9B288427E
:10B0900001D1012000E00020B84214D1002020633B
:10B0A000202084F83D00002084F83E00206C40F011
:10B0B0002000206400BF002084F83C0000BF012075
:10B0C000BDE8F081FFE7C5F3074001280AD12068F9
:10B0D0004069A9B20840A9B2884201D101200BE021
:10B0E000002009E020688069A9B20840A9B288421E
:10B0F00001D1012000E00020B842ABD00020DFE702
:10B100002DE9F04104460D4616461F4658E02068DA
:10B110004069C0F38020E8B12068006840F4007006
:10B12000216808606FF48060216848610020206316
:10B13000202084F83D00002084F83E00206C40F080
:10B140000400206400BF002084F83C0000BF012000
:10B15000BDE8F081701C90B3FEF744FAC01BB0420A
:10B1600000D866BBC5F3074001280AD120684069B2
:10B17000A9B20840A9B2884201D101200BE0002009
:10B1800009E020688069A9B20840A9B2884201D1CB
:10B19000012000E0002090B900202063202084F8E6
:10B1A0003D00002084F83E00206C40F02000206428
:10B1B00000BF002084F83C0000BF0120C8E7FFE783
:10B1C000C5F3074001280AD120684069A9B20840A8
:10B1D000A9B2884201D101200BE0002009E02068DB
:10B1E0008069A9B20840A9B2884201D1012000E0DB
:10B1F000002000288BD00020AAE770B504460D4639
:10B20000164625E02046FFF75AFE08B1012070BD22
:10B21000681CE8B1FEF7E6F9801BA84200D8BDB96A
:10B2200020684069C0F3C01090B90020206320203E
:10B2300084F83D00002084F83E00206C40F020009F
:10B24000206400BF002084F83C0000BF0120DEE73E
:10B2500020684069C0F3C0100028D3D00020D6E792
:10B260002DE9FE430446884615466019FF2804DD93
:10B2700025A000F01BFDBDE8FE832046E11704EB8E
:10B2800011710911A4EB0111C1F11001CEB2B54247
:10B290000BDC4FF47A7001232246A021CDE9008512
:10B2A00002902148FEF78CFA2CE0A146002718E016
:10B2B0004FF47A7108EB071001234A46CDE901618A
:10B2C0000090A0211848FEF77BFA781CC7B209EB62
:10B2D000060000F0FF09A81B85B210260A20FDF722
:10B2E000BFFFB542E4DC65B14FF47A7108EB07109B
:10B2F00001234A46CDE901510090A0210A48FEF7FA
:10B300005FFA00BF00BFB6E7D0B4C8EBB5C4B5D88C
:10B31000D6B7D6B5B3ACB9FD454550524F4DB5C4BF
:10B32000B5D8D6B7D6B50A005800002070B5064685
:10B330000C4600F079F800F021F8300400EB0435F9
:10B34000202000F043F8C5F3074000F03FF8C5F3B4
:10B35000072000F03BF8E8B200F038F800F018F8E9
:10B3600070BD000008B56423012269460248FFF75A
:10B3700001F89DF8000008BDAC00002010B50022C7
:10B380004FF400510148FEF727F910BD00100140AD
:10B3900010B5012251030248FEF71EF910BD00004E
:10B3A0000010014010B5FFF7E9FF0AE0052000F0AA
:10B3B0000DF8FFF7D7FF044604F0010000B901E0E3
:10B3C00000BFF3E700BFFFF7E3FF10BD01B5642343
:10B3D000012269460148FFF78CF808BDAC00002047
:10B3E0002DE9F04104460E46174600F01DF8FFF720
:10B3F000C5FF0220FFF7EAFFC4F30740FFF7E6FFAF
:10B40000C4F30720FFF7E2FFE0B2FFF7DFFF0025FC
:10B4100004E0705DFFF7DAFF681C85B2BD42F8DB1F
:10B42000FFF7B6FFBDE8F08110B5FFF7BBFFFFF7F0
:10B43000A5FF0620FFF7CAFFFFF7AAFF10BD000017
:10B4400010B50E480E4908602420486000210C48C1
:10B450008160C1604FF480310161090141610021C7
:10B4600001760121417681760021C176017741770D
:10B47000FDF7AAFC08B1FDF7A4FC10BD0064004074
:10B480003000002010B50548054908600846FDF762
:10B49000BFFD08B1FDF795FC10BD00000030024073
:10B4A0000000002000B585B00020019002900390BC
:10B4B000049000BF4A48806940F0400048498861D4
:10B4C0000846806900F04000009000BF00BF00BF48
:10B4D0000846806940F0100088610846806900F0E5
:10B4E0001000009000BF00BF00BF0846806940F018
:10B4F000040088610846806900F00400009000BFE5
:10B5000000BF00BF0846806940F008008861084617
:10B51000806900F00800009000BF00BF00BF08462F
:10B52000806940F4807088610846806900F480700A
:10B53000009000BF00BF002240212A48FEF74CF8CF
:10B54000012251032848FEF747F8012240F2031177
:10B550002648FEF741F801224FF4C0412448FEF787
:10B560003BF80420019000200290039001A91D489F
:10B57000FDF78AFE402001900120029000200390F8
:10B580000320049001A91748FDF77EFE4FF40050F8
:10B59000019001200290002003900320049001A953
:10B5A0001148FDF771FE40F2031001900120029056
:10B5B000002003900320049001A90C48FDF764FECD
:10B5C0004FF4C0400190012002900020039003201E
:10B5D000049001A90648FDF757FE05B000BD000024
:10B5E0000010024000180140001001400008014016
:10B5F0000020014010B50B480B4908600B4848601B
:10B60000002109488160C1604FF48041016100213F
:10B6100041618161C1610162FDF7EAFF08B1FDF797
:10B62000D0FB10BD0058004058000020A08601004B
:10B6300010B50E480E4908604FF482704860002132
:10B640000B488160C160016141614FF4007181610B
:10B650001021C16100210162416281620A21C1623F
:10B66000FEF7E6FD08B1FDF7ACFB10BD0030014070
:10B67000AC00002010B50B480B4908604FF4165081
:10B680004860002108488160C16001610C2141616E
:10B6900000218161C161FFF72DFB08B1FDF791FB2E
:10B6A00010BD0000003801400401002000BFFEE78B
:10B6B00000BFFEE77047000008B508490968C908DF
:10B6C0004FF47A72B1FBF2F14143009100BF00BF29
:10B6D00000994A1E00920029F9D108BD14000020EB
:10B6E000F8B504460E4615466068B0F5827F0DD168
:10B6F000A068B0F5004F03D0A068B0F5806F05D109
:10B700002068006820F04000216808606068B0F59B
:10B71000827F11D1A068B0F5806F0DD13346002231
:10B7200001212046009500F02BF898B1606D40F0A3
:10B73000200060650320F8BD3346002280212046AA
:10B74000009500F01DF828B1606D40F020006065A4
:10B750000320F0E70020EEE7F8B504460D46164654
:10B760002B46002280212046009600F009F828B1DF
:10B77000606D40F0200060650320F8BD0020FCE70C
:10B780002DE9F84F04460D4690461E46DDF82890F8
:10B79000FDF728FFA0EB0900371AFDF723FF8246CB
:10B7A0002C480068C0F3CB307843009045E0701C13
:10B7B000002842D0FDF716FFA0EB0A00B84200D2E5
:10B7C000A7BB2068406820F0E000216848606068FE
:10B7D000B0F5827F0DD1A068B0F5004F03D0A0680E
:10B7E000B0F5806F05D12068006820F04000216826
:10B7F0000860A06AB0F5005F0DD100BF2068006846
:10B8000020F40050216808602068006840F400506F
:10B810002168086000BF012084F8510000BF0020AB
:10B8200084F8500000BF0320BDE8F88FFFE70098C0
:10B8300000B900270098401E0090206880682840CA
:10B84000A84201D1012000E000204045AFD10020F6
:10B85000EAE7000014000020704710B5FEF79EF8DC
:10B8600010BD00B58FB0282105A8FCF7A6FC142157
:10B870006846FCF7A2FC0120059000040690002019
:10B8800007900120099002200C90C1030D914FF404
:10B89000E0110E9105A8FEF799FA08B1FDF791FAAB
:10B8A0000F20009002200190002002904FF4806051
:10B8B00003900020049002216846FEF763F908B166
:10B8C000FDF77FFA0FB000BD704770B505466C6A92
:10B8D0000020E085E0842046FFF798F870BD00BFA7
:10B8E00000BF02680C3252E8002F22F49071026807
:10B8F0000C3242E80013002BF3D100BF00BF00BFA1
:10B900000268143252E8002F22F00101026814325A
:10B9100042E80013002BF3D100BF016B01290ED1C7
:10B9200000BF00BF02680C3252E8002F22F0100165
:10B9300002680C3242E80013002BF3D100BF202133
:10B9400080F8421000210163704710B5044620685A
:10B95000C06820F040002168C860202084F84100C1
:10B960002046FFF7A9FA002010BDF8B5044694F868
:10B970004200222875D1A068B0F5805F0CD1206903
:10B9800050B90025A66A20684068C0F308003080DE
:10B99000A06A801CA06215E0A56A0026A068B0F528
:10B9A000805F03D0A06828B9206918B92068406872
:10B9B000287004E02068406800F07F002870A06ACA
:10B9C000401CA062E08D401E80B2E085002846D178
:10B9D0002068C06820F020002168C8602068C06826
:10B9E00020F480702168C8602068406920F0010060
:10B9F00021684861202084F8420000206063206BA9
:10BA0000012826D10020206300BF00BF21680C312F
:10BA100051E8001F21F0100021680C3141E80002BC
:10BA2000002AF3D100BF2068006800F01000102841
:10BA30000AD100BF002000902068006800902068B4
:10BA40004068009000BF00BFA18D2046FEF7A2FF16
:10BA500002E02046FFF7D6F90020F8BD01E0002003
:10BA6000FBE70220F9E7000070B504462168096988
:10BA700021F44051E2681143226811612269A168F2
:10BA80001143626941EA02052168C96841F20C620A
:10BA9000914329432268D1602168496921F44071AA
:10BAA000A2691143226851612D4A2168914202D155
:10BAB000FEF744F901E0FEF731F900EBC00101EBBC
:10BAC000001162689200B1FBF2F100EBC00202EBE0
:10BAD000001263689B00B2FBF3F26423B2FBF3F243
:10BAE00002EBC20303EB0212A1EB8201322202EB52
:10BAF00001116422B1FBF2F101F0F00100EBC00290
:10BB000002EB001263689B00B2FBF3F26423B2FB0A
:10BB1000F3F201EB021200EBC00101EB00116368CC
:10BB20009B00B1FBF3F100EBC00303EB001366686D
:10BB3000B600B3FBF6F36426B3FBF6F303EBC306E0
:10BB400006EB0313A1EB8301322303EB0111642302
:10BB5000B1FBF3F101F00F0111442268916070BD57
:10BB60000038014010B5034699629A85DA850020B5
:10BB70005864222083F84200186928B11868C06808
:10BB800040F480701C68E0601868406940F0010073
:10BB90001C6860611868C06840F020001C68E060A4
:10BBA000002010BD014691F84100212828D1886865
:10BBB000B0F5805F0BD1086948B90A6A1088C0F3F4
:10BBC00008000B685860086A801C086205E00B6A70
:10BBD000581C086218780B685860C88C401E80B2E8
:10BBE000C88458B90868C06820F080000B68D86025
:10BBF0000868C06840F040000B68D86000207047BB
:10BC00000220FCE72DE9F04104460D461746984610
:10BC1000069E34E0701C88B32EB1FDF7E3FCA0EB68
:10BC20000800B0422BD900BF00BF21680C3151E899
:10BC3000001F21F4D07021680C3141E80002002A75
:10BC4000F3D100BF00BF00BF2168143151E8001FCD
:10BC500021F001002168143141E80002002AF3D1EB
:10BC600000BF202084F8410084F8420000BF00207B
:10BC700084F8400000BF0320BDE8F081FFE72068A2
:10BC800000682840A84201D1012000E00020B8420D
:10BC9000C0D00020F0E7000010B50248FEF7B8FE63
:10BCA00010BD00000401002000BFFEE70FB4054BEB
:10BCB00010B503A9044A029800F02CF910BC5DF8F5
:10BCC00014FB0000FDC8000828000020014B024AB8
:10BCD00000F020B9FDC8000828000020410008023B
:10BCE00018BF04200A0E18BF40F001004FF07F4239
:10BCF00032EA010108BF40F00200012808BF052018
:10BD00007047000002480068C0F30220704700003E
:10BD10000CED00E010B5002804DB0A07130E054AFD
:10BD2000135406E00A07140E034A00F00F031B1F0A
:10BD3000D45410BD00E400E018ED00E000214FF005
:10BD40007E50FCF789BAFCF763BC00210846FCF77B
:10BD500083BA61214FF0E040FCF7B2BC6FF05E01A6
:10BD60000807FCF7ADBC02E008C8121F08C1002A92
:10BD7000FAD170477047002001E001C1121F002A6C
:10BD8000FBD1704701490860704700002C0000207B
:10BD90002DE9FF5F82B00021DDE90430020DDDF8FE
:10BDA00040B0034318D044F61050A2F2FF32424391
:10BDB0001514119801281FD0A5EB0B00401C5FEA59
:10BDC000000A4FF000064E4FDFF83891B04650465B
:10BDD00015D5CAF1000413E0119801244AA30128E3
:10BDE00001D16FEA0B010298119AC0E90031C0E954
:10BDF000024206B0BDE8F09FCBF10000DFE7044649
:10BE00000021404A491842EB0450CDE9001012E0ED
:10BE1000E00707D032463B4640464946FCF75AFA0F
:10BE20008046894632463B4610461946FCF752FA90
:10BE300006460F466410002CEAD1DDE90401DDE975
:10BE40000023BAF1000F06DAFCF744FA42464B46EB
:10BE5000FCF740FA05E0FCF7AFFA42464B46FCF728
:10BE6000ABFA04460E460022284BFCF781FD03D8AE
:10BE70004FF0FF30014607E00022254B20463146B7
:10BE8000FCF787FCFCF735FD102409E0002C0ADBE9
:10BE90000A220023FCF754FB039B30321A55641E20
:10BEA00050EA0102F2D1641C039AC4F11103144454
:10BEB000119A012A03D0012208430DD10AE0084358
:10BEC00004D000204FF0110B119072E7A3EB0B058B
:10BED0006D1E0DE05B4504DD4FF0000205F101052C
:10BEE00004E003DA4FF00002A5F10105002AECD0CE
:10BEF00002981199C0E90231C0E9004579E70000D4
:10BF0000000014400000F03F300000000000F0434B
:10BF10000000E03F2DE9FF4F95B09B46894606465D
:10BF200000250FE2252877D100242746F84A012171
:10BF3000059400E0044316F8013F203B01FA03F0AA
:10BF40001042F7D130782A2811D06FF02F033078C3
:10BF5000A0F13002092A16D8059A44F0020402EB37
:10BF6000820203EB42021044761C0590EFE759F879
:10BF7000042B0592002A03DA504244F40054059041
:10BF800044F00204761C30782E2816D116F8010FE2
:10BF900044F004042A280DD06FF02F023078A0F16D
:10BFA0003003092B09D807EB870302EB4303C718BB
:10BFB000761CF3E759F8047B761C30786C280FD098
:10BFC00006DC4C2817D068280DD06A2814D104E06C
:10BFD000742810D07A280FD10DE044F400140AE040
:10BFE00044F4801401E044F440147278824202D197
:10BFF00004F58014761C761C307866280BD013DC90
:10C00000582877D009DC002875D04528F6D0462876
:10C01000F4D047281AD19DE118E0632835D0642870
:10C0200079D0652812D195E1702873D008DC672893
:10C03000F1D069286FD06E280DD06F2806D1B5E0F9
:10C0400073282CD0752875D0782874D05A46179943
:10C0500090476D1C75E1C4F30250022809D00328F3
:10C060000DD0D9F8001004280DD00D6009F1040995
:10C0700067E1D9F80010EA17C1E90052F6E7D9F8EC
:10C0800000100D80F2E70D70F0E719F8041B8DF831
:10C09000001000208DF80100EA46012003E059F865
:10C0A00004AB4FF0FF3061074FF0000102D40DE008
:10C0B00008F101018846B9420FDA8045F8DB1AF829
:10C0C00008100029F4D108E008F1010188468142F6
:10C0D000FADB1AF808100029F6D105985B46A0EBA8
:10C0E000080721463846179A00F094FA284400EBD6
:10C0F000080507E04DE029E10DE01AF8010B5A466A
:10C1000017999047B8F10108F7D25B4621463846A7
:10C11000179A13E142E00A220092C4F302524FF050
:10C12000000A022A08D059F804CB032A4FEAEC711E
:10C130000AD00DE029E02AE009F1070121F0070209
:10C14000F2E802C1914609E00FFA8CFC4FEAEC716B
:10C15000042A03D14FFA8CFC4FEAEC71002907DA6C
:10C160000A460021DCF1000C61EB02012D2202E005
:10C17000220504D52B228DF80420012203E0E207DA
:10C1800001D02022F7E7904659E00A2102E0102270
:10C190000DE010214FF0000A00910BE010224FF04B
:10C1A000000A44F004040827009203E008224FF03C
:10C1B000000A0092C4F30252022A05D059F804CBB7
:10C1C0000021032A08D009E009F1070121F0070244
:10C1D000F2E802C1914605E01FFA8CFC042A01D165
:10C1E0000CF0FF0C4FF00008220728D5702806D06D
:10C1F000009B83F0100353EA0A0305D00EE04022AF
:10C200008DF80420012208E05CEA010206D0302209
:10C210008DF804208DF8050002229046009B83F0E3
:10C22000080353EA0A030AD15CEA010201D162075A
:10C2300005D530228DF804204FF001087F1E5828C4
:10C2400004D034A003900EA802900DE036A0F9E7C8
:10C2500053466046009AFCF773F984460398825C63
:10C260000298401E029002705CEA0100F0D1029830
:10C2700006A9081A00F1200A600702D524F48034C8
:10C2800000E00127574502DDA7EB0A0000E000208F
:10C2900000EB0A01009005984144401A0590E00324
:10C2A00006D45B462146179A059800F0B3F9054479
:10C2B000002706E001A85A46C05D179990476D1CFB
:10C2C0007F1C4745F6DBE0030CD55B462146179AF9
:10C2D000059800F09FF9054404E030205A4617996C
:10C2E00090476D1C0099481E00900029F5DC08E07D
:10C2F000029802995A460078491C02911799904772
:10C300006D1CBAF10001AAF1010AF1DC65E100003F
:10C31000092801003031323334353637383961621B
:10C3200063646566000000003031323334353637DF
:10C3300038394142434445460000000000F058F9B6
:10C340000544761C307800287FF4ECAD19B02846FF
:10C35000BDE8F08F620700D4062709F1070222F03A
:10C36000070CFCE80223E14603F000485FEA080CF2
:10C3700002D00FF2702C0DE05FEA045C02D50FF2E0
:10C38000682C07E05FEAC47C02D00FF2602C01E069
:10C39000AFF2700C4FF0FF3823F00043CDF850C0DF
:10C3A00065280CD006DC452809D046281DD0472832
:10C3B0003DD13DE0662818D067287ED138E00021C5
:10C3C000112F01DB112000E0781CCDE9000106A946
:10C3D0000EA8FFF7DDFCDDE90F010E9A03910021A5
:10C3E000009207F1010A04914DE04FF000400097E0
:10C3F000CDE9011006A90EA8FFF7CAFCDDE90F027E
:10C4000003920E9B11990022DDF80CA00093049278
:10C4100011B9791C00EB010AB7EB0A0004D4C0F192
:10C42000FF3007F1010A0490AAEB0700019044E0F5
:10C43000012F00DA01270021112F01DD112000E07A
:10C440003846CDE9000106A90EA8FFF7A1FCDDE9F9
:10C450000F010E9A0391002104910092BA46210720
:10C460000CD40399514500DA8A46BAF1010F05DD73
:10C47000009AAAF10101515C302908D0B84202DAD1
:10C4800010F1040F06DA0121CDE9011015E0AAF13F
:10C490000101E9E7002805DC049901440491AAEBB5
:10C4A000000102E0411C514500DD8A460499401A12
:10C4B000401C01904FF000400290200704D40198E6
:10C4C000504501DBCDF8048000208DF84F00029824
:10C4D0000DF14F07B0F1004F25D02B200E900298A0
:10C4E0004FF0020800280CDA404202902D200E90F6
:10C4F00007E00A210298FCF70DF83031029007F8A6
:10C50000011DB8F10001A8F10108F2DC0298002831
:10C51000EFD1791E0E980870307800F0200040F0BE
:10C52000450007F8020D12A8C01B00F10708149877
:10C53000007800B1012000EB0A01019801EBE071E5
:10C5400005984144401A401E0590E00306D45B461E
:10C550002146179A059800F05DF805441498007874
:10C5600018B15A46179990476D1CE00324D55B46D5
:10C570002146179A059800F04DF805441CE00498F0
:10C58000002807DBDDE90301884203DD0098405CF9
:10C59000179901E0179930205A469047049805F101
:10C5A0000105401C04900198401E019004D12E20EA
:10C5B0005A46179990476D1CBAF10001AAF1010A79
:10C5C000DDDC05E017F8010B5A46179990476D1C02
:10C5D000B8F10001A8F10108F4DC5B462146179A86
:10C5E0000598ABE62D0000002B00000020000000A5
:10C5F0002DE9F041044600251E461746880404D460
:10C6000005E039462020B0476D1C641EF9D5284648
:10C61000BDE8F0812DE9F041044600251E46904614
:10C62000C80301D5302700E02027880404D505E0A1
:10C6300041463846B0476D1C641EF9D52846BDE812
:10C64000F08138B5044664251AE068466169884778
:10C6500008B1012038BD9DF8000008B90020F9E7B5
:10C660009DF80000012809D145B10A20616A884778
:10C67000681EC5B205B103E00120EBE70120E9E740
:10C68000E3E72DE9FF41044615461E4633462A4698
:10C69000012101A8276AB84718B1012004B0BDE8FC
:10C6A000F0810020FAE70000F8B504460E46174670
:10C6B0001D46B5F5C07F04DB11A0A16A88470220A2
:10C6C000F8BD4FF4C07104F13600FBF776FD1E2073
:10C6D0008DF800008DF801606B1C04F13602022118
:10C6E0006846D4F820C0E04708B10120E8E72A46B0
:10C6F00004F137013846FBF747FD0020E0E7000072
:10C700006C6C636336383A206C656E206973206FF9
:10C71000766572203338332E0A000000F8B50446DF
:10C720000E4617461D46B5F5C07F04DB13A0A16A6F
:10C7300088470220F8BD4FF4C07104F13600FBF7C2
:10C740003CFD1D208DF80000300A8DF80100F0B28C
:10C750008DF802006B1C04F1360203216846D4F800
:10C7600020C0E04708B10120E4E72A4604F1370180
:10C770003846FBF709FD0020DCE700006C6C6363C2
:10C7800036383A206C656E206973206F76657220AA
:10C790003338332E0A0000002DE9F04104460E46DE
:10C7A00017461D46B5F5C07F05DB10A0A16A884776
:10C7B0000220BDE8F0814FF4C07104F13600FBF7B0
:10C7C000FCFC84F836602A46394604F13700FBF752
:10C7D000DBFC00231A46691C04F13600D4F820C0A3
:10C7E000E04708B10120E4E70020E2E76C6C6363F6
:10C7F00036383A206C656E206973206F766572203A
:10C800003338332E0A0000002DE9F04104460E466D
:10C8100017461D46B5F5BF7F05DD12A0A16A884702
:10C820000220BDE8F0814FF4C07104F13600FBF73F
:10C83000C4FC0E2084F83600372006552A463946B7
:10C8400004F13800FBF7A0FC00231A46A91C04F1F0
:10C850003600D4F820C0E04708B10120E1E700200D
:10C86000DFE700006C6C636336383A206C656E203D
:10C870006973206F766572203338322E0A0000000B
:10C880002DE9F04104460E4617461D46B5F5BF7F1B
:10C8900005DB13A0A16A88470220BDE8F0814FF4B0
:10C8A000C07104F13600FBF788FC0D2084F83600D7
:10C8B000310A37200155382006552A46394604F1F9
:10C8C0003900FBF761FC00231A46E91C04F136002D
:10C8D000D4F820C0E04708B10120DEE70020DCE703
:10C8E0006C6C636336383A206C656E206973206F18
:10C8F000766572203338312E0A00000013B50C46DD
:10C900004FF47A73012269460248FEF77CFA0098D8
:10C910001CBD00000401002038B504460CB90220FB
:10C9200038BD94F83000012801D00320F8E72046F4
:10C93000FFF787FE054625B10CA0A16A88470420B1
:10C94000EEE700208DF800008DF8010002236A4612
:10C9500007212046FFF720FF054625B109A0A16A5F
:10C9600088470120DCE70020DAE700006C6C636395
:10C9700036383A206368697020697320627573796C
:10C980002E0A00006C6C636336383A20636C656174
:10C990007220646576696365206572726F727320B8
:10C9A0006661696C65642E0A00000000F8B50446F3
:10C9B0000E460CB90220F8BD94F83000012801D0D1
:10C9C0000320F8E72046FFF73CFE054625B10DA001
:10C9D000A16A88470420EEE7300A8DF80000F0B223
:10C9E0008DF8010002236A4619462046FFF7D4FE5F
:10C9F000054625B109A0A16A88470120DBE7002090
:10CA0000D9E700006C6C636336383A20636869705C
:10CA100020697320627573792E0A00006C6C636361
:10CA200036383A20636C65617220697271207374C4
:10CA300061747573206661696C65642E0A0000007C
:10CA4000F8B504460CB90220F8BD94F8300001286E
:10CA500001D00320F8E72046FFF7F3FD054625B196
:10CA60001CA0A16A88470420EEE740F2FF36300A96
:10CA70008DF80000F0B28DF8010002236A461946D5
:10CA80002046FFF789FE054625B118A0A16A884710
:10CA90000120D9E72046FFF7D4FD054625B10DA0BA
:10CAA000A16A88470420CFE7FF208DF800008DF8A9
:10CAB00001008DF8020003236A4682212046FFF719
:10CAC0006BFE054625B112A0A16A88470120BBE78D
:10CAD0000020B9E76C6C636336383A20636869708C
:10CAE00020697320627573792E0A00006C6C636391
:10CAF00036383A20636C65617220697271207374F4
:10CB000061747573206661696C65642E0A000000AB
:10CB10006C6C636336383A207365742072782066D3
:10CB200061696C65642E0A0038B504460CB90220B0
:10CB300038BD94F83000012801D00320F8E72046E2
:10CB4000FFF77FFD054625B118A0A16A884704209C
:10CB5000EEE70020009001236A4684212046FFF77B
:10CB60001BFE054625B117A0A16A88470520DFE70F
:10CB700020698047054625B119A0A16A884706208B
:10CB8000D6E760688047054625B11EA0A16A8847A0
:10CB90000720CDE7E0698047054625B122A0A16ABC
:10CBA00088470120C4E70020C2E700006C6C636383
:10CBB00036383A206368697020697320627573792A
:10CBC0002E0A00006C6C636336383A20706F77650C
:10CBD0007220646F776E206661696C65642E0A004E
:10CBE0006C6C636336383A206275737920677069BC
:10CBF0006F206465696E6974206661696C65642E76
:10CC00000A0000006C6C636336383A207265736505
:10CC100074206770696F206465696E69742066614D
:10CC2000696C65642E0A00006C6C636336383A20C8
:10CC3000737069206465696E6974206661696C65EA
:10CC4000642E0A002DE9F84F04460D46164614B925
:10CC50000220BDE8F88F94F83000012801D00320AD
:10CC6000F7E72846FBF717FC0E4900900E4802F044
:10CC700043F983464FF08441FBF7BCFA81460B49E8
:10CC8000C80202F039F982464946FBF7E5FA8046C8
:10CC90000099FBF7AFFA0746FBF70FFC3060002066
:10CCA000D7E700000000C040000020410000C8415C
:10CCB00070B504460E460CB9022070BD94F83000E1
:10CCC000012801D00320F8E72046FFF7BAFC05460B
:10CCD00025B10AA0A16A88470420EEE70123324665
:10CCE00040F236712046FFF719FD054625B109A02F
:10CCF000A16A88470120E0E70020DEE76C6C6363EF
:10CD000036383A20636869702069732062757379D8
:10CD10002E0A00006C6C636336383A2072656164D9
:10CD2000207265676973746572206661696C6564F9
:10CD30002E0A000070B504460E460CB9022070BDE4
:10CD400094F83000012801D00320F8E72046FFF7CF
:10CD500078FC054625B10AA0A16A88470420EEE7C1
:10CD60000123324640F6D8012046FFF7D7FC05469E
:10CD700025B109A0A16A88470120E0E70020DEE78D
:10CD80006C6C636336383A2063686970206973207D
:10CD9000627573792E0A00006C6C636336383A2032
:10CDA000726561642072656769737465722066617B
:10CDB000696C65642E0A000070B504460E460CB915
:10CDC000022070BD94F83000012801D00320F8E75C
:10CDD0002046FFF736FC054625B10AA0A16A884720
:10CDE0000420EEE70123324640F689012046FFF792
:10CDF00095FC054625B109A0A16A88470120E0E716
:10CE00000020DEE76C6C636336383A206368697033
:10CE100020697320627573792E0A00006C6C63635D
:10CE200036383A207265616420726567697374658B
:10CE300072206661696C65642E0A00001CB50446A8
:10CE40000CB902201CBDA06A08B90320FAE7A0694A
:10CE500020B965A0A16A88470320F3E7E06920B9FB
:10CE600068A0A16A88470320ECE7206A20B96DA07A
:10CE7000A16A88470320E5E7206820B972A0A16A6B
:10CE800088470320DEE7606820B978A0A16A884758
:10CE90000320D7E7A06820B97DA0A16A88470320B6
:10CEA000D0E7E06820B983A0A16A88470320C9E7DA
:10CEB000206920B988A0A16A88470320C2E7606979
:10CEC00020B98EA0A16A88470320BBE7606A20B919
:10CED00093A0A16A88470320B4E7E06A20B997A02D
:10CEE000A16A88470320ADE7A069804720B19CA0D4
:10CEF000A16A88470120A5E72068804730B1A1A03A
:10CF0000A16A8847E069804704209BE7E068804782
:10CF100040B1A7A0A16A8847E06980476068804760
:10CF200005208FE70120A168884750B1ABA0A16A16
:10CF30008847E0698047606880472069804706200D
:10CF400080E70520616A88470020A168884750B1C2
:10CF5000A2A0A16A8847E06980476068804720698D
:10CF6000804706206EE70A20616A88470120A16891
:10CF7000884750B199A0A16A8847E06980476068F6
:10CF800080472069804706205CE70520616A884762
:10CF9000012301AAC0212046FFF773FB50B196A0E0
:10CFA000A16A8847E06980476068804720698047B8
:10CFB000062047E70020009001236A468021204692
:10CFC000FFF7EAFB50B193A0A16A8847E069804768
:10CFD0006068804720698047062033E7012084F895
:10CFE000300000202EE700006C6C636336383A2076
:10CFF0007370695F696E6974206973206E756C6CFB
:10D000002E0A00006C6C636336383A207370695FD7
:10D010006465696E6974206973206E756C6C2E0A84
:10D02000000000006C6C636336383A207370695FEF
:10D0300077726974655F72656164206973206E75CB
:10D040006C6C2E0A000000006C6C636336383A206A
:10D0500072657365745F6770696F5F696E6974206C
:10D060006973206E756C6C2E0A0000006C6C636333
:10D0700036383A2072657365745F6770696F5F64F4
:10D0800065696E6974206973206E756C6C2E0A0078
:10D090006C6C636336383A2072657365745F6770D1
:10D0A000696F5F7772697465206973206E756C6C47
:10D0B0002E0A00006C6C636336383A20627573790F
:10D0C0005F6770696F5F696E6974206973206E7540
:10D0D0006C6C2E0A000000006C6C636336383A20DA
:10D0E000627573795F6770696F5F6465696E697493
:10D0F000206973206E756C6C2E0A00006C6C636383
:10D1000036383A20627573795F6770696F5F726550
:10D110006164206973206E756C6C2E0A000000003B
:10D120006C6C636336383A2064656C61795F6D734B
:10D13000206973206E756C6C2E0A00006C6C636342
:10D1400036383A20726563656976655F63616C6C39
:10D150006261636B206973206E756C6C2E0A00002F
:10D160006C6C636336383A2073706920696E697439
:10D1700069616C697A6174696F6E206661696C655A
:10D18000642E0A006C6C636336383A2072657365EE
:10D1900074206770696F20696E697469616C697A5F
:10D1A0006174696F6E206661696C65642E0A0000A7
:10D1B0006C6C636336383A206275737920677069E6
:10D1C0006F20696E697469616C697A6174696F6EE8
:10D1D000206661696C65642E0A0000006C6C6363F4
:10D1E00036383A207265736574206368697020660A
:10D1F00061696C65642E0A006C6C636336383A2092
:10D2000067657420737461747573206661696C65F9
:10D21000642E0A006C6C636336383A2073657420A0
:10D220007374616E646279206661696C65642E0A4C
:10D2300000000000002070470020704710B5044631
:10D2400004210348FCF7C0F92070002010BD000045
:10D25000001801400FB408B503A800900099029887
:10D26000FEF734FD0020009001B05DF814FB10B50E
:10D2700004462046FBF7F4FF10BD000070B50446DD
:10D280000D461646202C2CD00CDC042C1DD004DCC2
:10D29000012C12D0022C38D113E0082C19D0102CFC
:10D2A00033D11AE0402C20D0802C22D0B4F5807FDE
:10D2B00023D0B4F5007F28D123E017A0FFF7CAFFE1
:10D2C00027E01BA0FFF7C6FF23E01FA0FFF7C2FF68
:10D2D0001FE025A0FFF7BEFF1BE02DA0FFF7BAFF60
:10D2E00017E032A0FFF7B6FF13E037A0FFF7B2FF59
:10D2F0000FE03BA0FFF7AEFF0BE03FA0FFF7AAFF58
:10D3000007E044A0FFF7A6FF03E048A0FFF7A2FF55
:10D3100000BF00BF70BD00006C6C636336383A20FC
:10D3200069727120747820646F6E652E0A000000A7
:10D330006C6C636336383A206972712072782064AD
:10D340006F6E652E0A0000006C6C636336383A20FD
:10D3500069727120707265616D626C6520646574BC
:10D3600065637465642E0A006C6C636336383A201A
:10D370006972712076616C69642073796E632077BD
:10D380006F72642064657465637465642E0A0000BE
:10D390006C6C636336383A206972712076616C690F
:10D3A00064206865616465722E0A00006C6C6363BA
:10D3B00036383A206972712068656164657220654B
:10D3C00072726F722E0A00006C6C636336383A20FA
:10D3D00069727120637263206572726F722E0A0027
:10D3E0006C6C636336383A20697271206361642023
:10D3F000646F6E652E0A00006C6C636336383A20E9
:10D400006972712063616420646574656374656426
:10D410002E0A00006C6C636336383A206972712002
:10D4200074696D656F75742E0A0000006C6C63631F
:10D4300036383A20756E6B6E6F776E20636F646559
:10D440002E0A0000002070470020704710B50446E7
:10D4500034B900224FF400510548FCF7BDF804E050
:10D46000012251030248FCF7B7F8002010BD00006C
:10D470000020014000207047002070472DE9F04156
:10D4800004460E4615461F4600224FF480411948B7
:10D49000FCF7A2F89CB1B2B24FF47A732146164859
:10D4A000FDF727F88046B8F1000F07D0012291035D
:10D4B0001048FCF791F80120BDE8F08100BF95B15C
:10D4C000BAB24FF47A7329460B48FCF753FF8046F3
:10D4D000B8F1000F06D0012291030648FCF77CF852
:10D4E0000120E9E700BF012291030248FCF774F82C
:10D4F0000020E1E700200140AC0000202DE9FE43C0
:10D50000044614B90220BDE8FE8394F830000128D7
:10D5100001D00320F7E700200290032302AA122182
:10D520002046FFF7AEF8064626B17AA0A16A8847E2
:10D530000120E8E79DF80A009DF8091040EA01255E
:10D5400002230DF1090219462046FFF725F9064688
:10D5500026B178A0A16A88470120D4E7002084F88A
:10D56000340005F0040030B1E06A20B10022114619
:10D570000420E36A984705F0080030B1E06A20B162
:10D58000002211460820E36A984705F0100030B1E8
:10D59000E06A20B1002211461020E36A984705F0A6
:10D5A000200030B1E06A20B1002211462020E36A59
:10D5B000984705F0400048B1E06A20B100221146CA
:10D5C0004020E36A9847012084F8340005F0800089
:10D5D00048B1E06A20B1002211468020E36A9847F2
:10D5E000012084F8320005F4807050B1E06A28B15F
:10D5F000002211464FF48070E36A9847012084F8B6
:10D60000330005F4007000283CD000200190012375
:10D6100001AA4FF412612046FFF732F9064626B1FF
:10D620004DA0A16A884701206DE701236A4640F6B4
:10D6300044112046FFF772F8064626B14EA0A16AB3
:10D64000884701205FE79DF8000040F0020000904D
:10D6500001236A4640F644112046FFF711F90646B9
:10D6600026B13DA0A16A884701204CE7E06A28B1B5
:10D67000002211464FF40070E36A9847012084F8B5
:10D68000350000BF05F0010048B1E06A20B100227A
:10D6900011460120E36A9847012084F8310005F023
:10D6A0000200002834D000200290032302AA132194
:10D6B0002046FEF7E6FF064626B137A0A16A884756
:10D6C000012020E79DF809709DF80A803B4604F58B
:10D6D000DB7241462046FEF7E7FF064626B138A03A
:10D6E000A16A884701200EE7E06A80B194F834000F
:10D6F00040B9A4F8B6723A4604F5DB710220E36A39
:10D70000984704E0002211460220E36A984700BFD0
:10D710000020F8E66C6C636336383A206765742045
:10D7200069727120737461747573206661696C65C8
:10D73000642E0A006C6C636336383A20636C656152
:10D7400072206972712073746174757320666169E7
:10D750006C65642E0A0000006C6C636336383A20F6
:10D760007772697465207265676973746572206683
:10D7700061696C65642E0A006C6C636336383A200C
:10D780007265616420726567697374657220666191
:10D79000696C65642E0A00006C6C636336383A204D
:10D7A000676574207278206275666665722073748E
:10D7B00061747573206661696C65642E0A000000EF
:10D7C0006C6C636336383A207265616420627566FA
:10D7D000666572206661696C65642E0A000000004F
:10D7E0001FB54FF42E71B348FAF7E7FCB248B149C0
:10D7F0008861B248C861B2480862B2480860B2485D
:10D800004860B2488860B248C860B2480861B2480F
:10D810004861B2484862B2488862B248C862084665
:10D82000FFF70CFB04462CB1AFA0FFF713FD01205E
:10D8300004B010BD01219F4801F0E8F904463CB155
:10D84000AFA0FFF707FD9B48FFF76EF90120EFE758
:10D850000021984801F01CFA04463CB1B0A0FFF743
:10D86000F9FC9448FFF760F90120E1E701219148B4
:10D8700001F0AEF804463CB1B3A0FFF7EBFC8D48D5
:10D88000FFF752F90120D3E703220221894801F072
:10D890000FF804463CB1B5A0FFF7DCFC8548FFF764
:10D8A00043F90120C4E73021824801F067F90446BA
:10D8B0003CB1B6A0FFF7CEFC7E48FFF735F901205A
:10D8C000B6E701217B4801F03FF804463CB1BAA01D
:10D8D000FFF7C0FC7748FFF727F90120A8E70022EF
:10D8E0001121744801F0A0FA04463CB1BBA0FFF737
:10D8F000B1FC7048FFF718F9012099E700200123D7
:10D900000422092100906B4800F04EFE04463CB111
:10D91000BAA0FFF79FFC6748FFF706F9012087E7E9
:10D9200003AAC1496348FFF78DF904463CB1BFA083
:10D93000FFF790FC5F48FFF7F7F8012078E75D48B4
:10D94000039901F089F804463CB1C2A0FFF782FCBC
:10D950005848FFF7E9F801206AE7002211465548C8
:10D9600000F02EFD04463CB1C3A0FFF773FC514804
:10D97000FFF7DAF801205BE700214E4800F0C6FE11
:10D9800004463CB1C7A0FFF765FC4A48FFF7CCF856
:10D9900001204DE700231A461946464800F0B6FC20
:10D9A00004463CB1CAA0FFF755FC4248FFF7BCF85B
:10D9B00001203DE73F48FEF7AFFF04463CB1CCA055
:10D9C000FFF748FC3B48FFF7AFF8012030E743F290
:10D9D0005641384800F0E2FE04463CB1CEA0FFF7C5
:10D9E00039FC3448FFF7A0F8012021E702A93148AB
:10D9F000FFF7E2F904463CB1D0A0FFF72BFC2D481D
:10DA0000FFF792F8012013E79DF8080040F00400AA
:10DA100002909DF80810274801F0C4F904463CB173
:10DA2000CFA0FFF717FC2348FFF77EF80120FFE6A1
:10DA30009421204801F060F804463CB1D1A0FFF7E2
:10DA400009FC1C48FFF770F80120F1E6382119485D
:10DA500000F0ECFE04463CB1D2A0FFF7FBFB1548FA
:10DA6000FFF762F80120E3E601A91248FFF762F927
:10DA700004463CB1D2A0FFF7EDFB0E48FFF754F887
:10DA80000120D5E69DF8040040F01E0001909DF8AD
:10DA90000410084801F044F904463CB1D2A0FFF755
:10DAA000D9FB0448FFF740F80120C1E600F0DCF99B
:10DAB0000020BDE66C41002079D4000875D4000830
:10DAC0007DD4000849D4000845D400084DD400088E
:10DAD00039D2000835D200083DD200086FD20008C4
