:020000040800F2
:108000003805002049810008D19B0008F599000837
:10801000CD9B0008E58100087D9F0008000000005E
:10802000000000000000000000000000019C0008AB
:10803000E981000800000000D59B0008039C0008AF
:108040006381000863810008638100086381000880
:108050006381000863810008638100086381000870
:108060006381000863810008638100086381000860
:108070006381000863810008638100086381000850
:108080006381000863810008638100086381000840
:108090006381000863810008638100086381000830
:1080A0006381000863810008638100086381000820
:1080B0006381000863810008638100086381000810
:1080C0006381000863810008638100086381000800
:1080D000638100086D9F00086381000863810008C8
:1080E00063810008638100086381000863810008E0
:1080F00063810008638100086381000863810008D0
:1081000063810008638100086381000863810008BF
:1081100063810008638100086381000863810008AF
:10812000638100086381000863810008638100089F
:10813000DFF810D000F02CF800480047D99F000865
:10814000AFF3008038050020064880470648004706
:10815000FEE7FEE7FEE7FEE7FEE7FEE7FEE7FEE7F7
:10816000FEE7FEE7719C000831810008D2B201E011
:1081700000F8012B491EFBD270470022F6E710B52C
:1081800013460A4604461946FFF7F0FF204610BD85
:10819000064C074D06E0E06840F0010394E8070054
:1081A00098471034AC42F6D3FFF7C6FF40A0000852
:1081B00060A0000810B50121034800F0FFFB4FF458
:1081C000FA7000F047FA10BD0008014010B50448ED
:1081D000007810B9FFF7EEFF00E000BF00BF10BD50
:1081E0001800002000BFFEE7704772B600BFFEE730
:1081F00070B504460CB9012070BD94F8200010B988
:10820000204600F0AFF82068006840F001002168C7
:10821000086000F0E3FB05460DE000F0DFFB401BCB
:108220000A2808D9606A40F400306062052084F8AA
:1082300020000120E0E72068406800F001000028ED
:10824000EBD02068006820F002002168086000F090
:10825000C5FB05460DE000F0C1FB401B0A2808D90C
:10826000606A40F400306062052084F8200001203C
:10827000C2E72068406800F002000028EBD1207EB1
:10828000012806D12068006840F08000216808605D
:1082900005E02068006820F0800021680860607EAA
:1082A000012806D12068006840F04000216808607D
:1082B00005E02068006820F0400021680860A07E8A
:1082C000012806D12068006840F02000216808607D
:1082D00005E02068006820F0200021680860E07E4A
:1082E000012806D12068006820F01000216808608D
:1082F00005E02068006840F0100021680860207FD9
:10830000012806D12068006840F008002168086054
:1083100005E02068006820F0080021680860607FA0
:10832000012806D12068006840F004002168086038
:1083300005E02068006820F0040021680860D4E9A6
:108340000201084321690843616908436168491EC5
:1083500008432168C86100206062012084F8200081
:10836000002049E710B586B0044600200290039033
:10837000049005901F492068884239D100BF1E48EB
:10838000C06940F000701C49C8610846C06900F02F
:108390000070019000BF00BF00BF0846806940F038
:1083A000080088610846806900F00800019000BF5D
:1083B00000BF8815029000200390049002A90F4886
:1083C00000F05CF94FF4007002900220039003204B
:1083D000059002A9094800F051F900BF0849486812
:1083E00020F4C04040F0E06040F48040486000BFAE
:1083F00006B010BD0064004000100240000C0140B7
:108400000000014010B504460CB9012010BD607990
:1084100020B900202071204600F004F8012060718E
:108420000020F3E708B5094A016891420DD100BF69
:108430000749496941F04001054A516111464969BE
:1084400001F04001009100BF00BF08BD00300240B4
:10845000001002400146002291F82100022808D0B5
:108460000420886300BF002081F8200000BF0120A5
:1084700070470868006820F00E000B6818600868F4
:10848000006820F001000B68186091F8403001206E
:108490009840CB6B5860012081F8210000BF00207C
:1084A00081F8200000BF1046E2E7000070B50446E6
:1084B000002594F82100022803D00420A0630125A0
:1084C000C1E02068006820F00E0021680860206884
:1084D000006820F00100216808605C49206888423B
:1084E00052D95A4978392068884201D1012047E0A1
:1084F000564964392068884201D1102040E0534930
:1085000050392068884201D1801539E04F493C3903
:108510002068884201D1801432E04C492839206813
:10852000884202D14FF480302AE04849143920684B
:10853000884202D14FF4801022E0444920688842EA
:1085400001D140041CE042492068884201D1012049
:1085500016E03F4914312068884201D110200FE015
:108560003B4928312068884201D1801508E038490C
:108570003C312068884201D1801401E04FF4803002
:108580003349091F086051E0304978392068884232
:1085900001D1012047E02D4964392068884201D18A
:1085A000102040E0294950392068884201D18015C7
:1085B00039E026493C392068884201D1801432E0F4
:1085C000224928392068884202D14FF480302AE0BD
:1085D0001E4914392068884202D14FF4801022E0ED
:1085E0001A492068884201D140041CE018492068DB
:1085F000884201D1012016E01549143120688842D3
:1086000001D110200FE0124928312068884201D1A1
:10861000801508E00E493C312068884201D1801461
:1086200001E04FF48030094980394860012084F826
:10863000210000BF002084F8200000BF606B10B153
:108640002046616B8847284670BD000080000240CC
:108650000804024070B5044600F0C0F906462546FD
:10866000681C10B104480078054400BF00F0B6F95A
:10867000801BA842FAD370BD100000202DE9F847F6
:10868000024600239C467BE14FF0010808FA03F400
:10869000D1F8008008EA0400A0427DD1DFF8F4A2FE
:1086A000D1F80480A8EB0A09D0453AD014DCB8F11F
:1086B000030F50D009DCB8F1000F31D0B8F1010F31
:1086C0001CD0B8F1020F49D120E0B8F1110F18D039
:1086D000B8F1120F42D11EE0B9F5881F25D006DC93
:1086E000B9F5803F20D0B9F5801F37D11AE0B9F530
:1086F000001F18D0B9F5041F30D117E0D1F80CC015
:108700002DE0D1F80C8008F1040C28E0D1F80C80A1
:1087100008F1080C23E0D1F80C8008F10C0C1EE0E5
:1087200000BF00BF00BF00BF00BF00BFD1F808807E
:10873000B8F1000F02D14FF0040C0BE0D1F8088023
:10874000B8F1010F03D14FF0080C146102E04FF0B3
:10875000080C546103E04FF0000C00E000BF00BFC4
:10876000FF2801D8904601E002F104084646FF28A0
:1087700002D84FEA830803E0A3F108084FEA88080B
:108780004746D6F800804FF00F0909FA07F928EAA2
:1087900009080CFA07F900E07AE048EA0908C6F887
:1087A0000080D1F8048008F08058B8F1805F6FD164
:1087B00000BFDFF8E481D8F8188048F00108DFF83E
:1087C000D891C9F81880C846D8F8188008F0010870
:1087D000CDF8008000BF00BF4FEAB9384FEA9309D7
:1087E00058F829504FEA83784FEA18794FF00F086C
:1087F00008FA09F825EA0805DFF8A081424502D108
:108800004FF0000824E0DFF89881424502D14FF094
:1088100001081DE0DFF88C81424502D14FF00208CB
:1088200016E0DFF88481424502D14FF003080FE0E3
:10883000DFF87881424502D14FF0040808E0DFF804
:108840007081424502D14FF0050801E04FF0060863
:108850004FEA83794FEA197908FA09F848EA0505D9
:10886000DFF850814FEA930948F82950D1F8048085
:1088700008F48018B8F5801F0BD1DFF83C81D8F8D8
:10888000008048EA0008DFF83091C9F800800AE06B
:1088900075E0DFF82481D8F8008028EA0008DFF8C6
:1088A0001891C9F80080D1F8048008F40018B8F5D0
:1088B000001F0ED1DFF8008108F10408D8F800800D
:1088C00048EA0008DFF8F09009F10409C9F80080CF
:1088D0000DE0DFF8E48008F10408D8F8008028EA09
:1088E0000008DFF8D49009F10409C9F80080D1F834
:1088F000048008F40038B8F5003F0ED1DFF8B880E6
:10890000A8F10408D8F8008048EA0008DFF8A89029
:10891000A9F10409C9F800800DE0DFF89C80A8F1F6
:108920000408D8F8008028EA0008DFF88C90A9F144
:108930000409C9F80080D1F8048008F48038B8F53B
:10894000803F0ED1DFF87080A8F10808D8F80080C9
:1089500048EA0008DFF86090A9F10809C9F800802A
:108960000DE0DFF85480A8F10808D8F8008028EA64
:108970000008DFF84490A9F10809C9F800805B1CE1
:10898000D1F8008028FA03F8B8F1000F7FF47CAE2C
:10899000BDE8F887000011100010024000080140F7
:1089A000000C01400010014000140140001801407B
:1089B000001C0140080001400804014010B5C268D5
:1089C00021EA020302EA010443EA0443036110BD01
:1089D0000AB1016101E00B040361704701480068BE
:1089E000704700000800002070B504460CB9012053
:1089F00070BD94F83D0028B9002084F83C00204662
:108A000000F0DAF8242084F83D002068006820F0A7
:108A10000100216808602068006840F40040216877
:108A200008602068006820F400402168086000F0B9
:108A30009DFA05465C496068884206D85B488542D5
:108A400001D2012007E0002005E05948854201D20B
:108A5000012000E00020012800D1C9E75548B5FBFE
:108A6000F0F62068406820F03F00304321684860FD
:108A70004D496068884201D8701C07E04FF4967039
:108A800070434FF47A71B0FBF1F0401C2168096A21
:108A900021F03F0108432168086243496068884229
:108AA00014D8681E61684900B0FBF1F0401CC0F3A7
:108AB0000B00042801D204203DE0681E61684900D3
:108AC000B0FBF1F0401CC0F30B0034E0A06838B9F3
:108AD000681E616801EB4101B0FBF1F0401C0AE047
:108AE000681E616801EBC10202EB0111B0FBF1F0FD
:108AF000401C40F48040C0F30B0008B901201AE08C
:108B0000A06848B9681E616801EB4101B0FBF1F053
:108B1000401CC0F30B000CE0681E616801EBC10251
:108B200002EB0111B0FBF1F0401CC0F30B0040F46C
:108B3000804040F400402168C9694CF6FF729143BF
:108B400008432168C861D4E907010843216809681E
:108B500021F0C001084321680860D4E903100843EC
:108B60002168896848F2FF32914308432168886090
:108B7000D4E9050108432168C96821F0FF010843D1
:108B80002168C8602068006840F001002168086022
:108B900000202064202084F83D000020206384F819
:108BA0003E0000BF24E70000A086010080841E0074
:108BB00000093D0040420F0010B586B00446002079
:108BC000029003900490059016492068884226D1AF
:108BD00000BF1548806940F00800134988610846C5
:108BE000806900F00800019000BF00BF4FF44060B2
:108BF0000290122003900320059002A90B48FFF772
:108C00003DFD00BF0848C06940F480000649C861C6
:108C10000846C06900F48000019000BF00BF06B0A4
:108C200010BD00000058004000100240000C014040
:108C300003480068034909780844014908607047FF
:108C4000080000201000002010B50848006840F01F
:108C5000100006490860032000F0A8F80F2000F07B
:108C600007F800F02BF8002010BD000000200240A3
:108C700070B504460E4800784FF47A71B1FBF0F0FD
:108C80000C490968B1FBF0F5284600F09BFC08B1DF
:108C9000012070BD102C07D200222146501E00F08A
:108CA00047F80548046001E00120F2E70020F0E702
:108CB00010000020140000200C00002008B500BFA8
:108CC0001148806940F001000F49886108468069B9
:108CD00000F00100009000BF00BF00BF0846C0695F
:108CE00040F08050C8610846C06900F08050009094
:108CF00000BF00BF00BF0549486820F0E06040F0B9
:108D00000070486000BF08BD001002400000014034
:108D100001460846002809DB00F01F0301229A40A3
:108D200043099B0003F1E023C3F8002100BF704713
:108D30002DE9F05F80460D461646002701F020F928
:108D4000074639462A46334601F00700C0F1070AB4
:108D5000BAF1040F02D94FF0040A01E0C0F1070A8A
:108D6000D14600F1040ABAF1070F02D24FF0000A0F
:108D700001E0A0F1030AD4464FF0010A0AFA09FA09
:108D8000AAF1010A0AEA020A0AFA0CFA4FF0010BE8
:108D90000BFA0CFBABF1010B0BEA030B4AEA0B04D9
:108DA0002146404601F0F4F8BDE8F09F00BF00F016
:108DB0000702064B19684FF6FF031940044B0B439B
:108DC00043EA0221014B196000BF70470CED00E03F
:108DD0000000FA0570B504460D460CB9012070BDBF
:108DE0005A48006800F00700A8420ED257480068B1
:108DF00020F007002843554908600846006800F045
:108E00000700A84201D00120E9E7207800F0020025
:108E100002281DD1207800F00400042805D14C4818
:108E2000406840F4E0604A494860207800F008005B
:108E3000082805D14648406840F4605044494860DD
:108E40004348406820F0F000A1680843404948606A
:108E5000207800F0010078B36068012806D13C4812
:108E6000006800F4003090B90120B8E7606802287B
:108E700006D13748006800F0007040B90120AEE725
:108E80003348006800F0020008B90120A7E7304825
:108E9000406820F00300616808432D494860FFF7EF
:108EA0009DFD064609E0FFF799FD801B41F28831E0
:108EB000884202D9032092E707E02548406800F085
:108EC0000C006168B0EB810FEDD12048006800F024
:108ED0000700A8420ED91D48006820F0070028436B
:108EE0001A4908600846006800F00700A84201D04F
:108EF000012074E7207800F00400042807D114480A
:108F0000406820F4E060E168084311494860207837
:108F100000F00800082808D10D48406820F460508F
:108F2000216940EAC1000A49486000F03FF8084959
:108F30004968C1F30311074A515CC84006490860FB
:108F400006480068FFF794FE002048E70020024032
:108F50000010024026A00008140000200C00002091
:108F600001480068704700001400002000B5FFF7BA
:108F7000F7FF04494968C1F30221034A515CC84024
:108F800000BD00000010024036A0000800B5FFF749
:108F9000E7FF04494968C1F3C221034A515CC84054
:108FA00000BD00000010024036A0000870B500218E
:108FB0000022002400230020134D696801F00C05F5
:108FC000F5B1042D02D0082D19D101E00F4819E0A8
:108FD0000F4DC1F38346AB5D01F4803555B10A4DA9
:108FE0006D68C5F340450B4E725D084D5D43B5FBA2
:108FF000F2F402E0084D03FB05F4204602E000BF56
:10900000024800BF00BF70BD0010024000127A008D
:1090100014A0000824A0000800093D00F8B504468B
:109020000CB90120F8BD207800F00100002878D0AC
:10903000F848406800F00C0004280CD0F54840685F
:1090400000F00C00082811D1F248406800F480308C
:10905000B0F5803F0AD1EF48006800F400300028E6
:109060005FD0606800285CD10120DBE700BF60684A
:10907000B0F5803F06D1E748006840F48030E5490C
:10908000086028E0606858B9E248006820F4803041
:10909000E04908600846006820F4802008601AE073
:1090A0006068B0F5A02F0BD1DA48006840F480204A
:1090B000D84908600846006840F4803008600AE03B
:1090C000D448006820F48030D2490860084600681F
:1090D00020F48020086000BF606888B1FFF77EFC44
:1090E000054606E0FFF77AFC401B642801D90320FF
:1090F00098E7C848006800F400300028F2D010E07B
:10910000FFF76CFC054606E0FFF768FC401B64288F
:1091100001D9032086E7BF48006800F4003000282A
:10912000F2D1207800F00200022857D1B9484068F7
:1091300000F00C0050B1B748406800F00C0008285F
:1091400018D1B448406800F4803098B9B14800683C
:1091500000F0020020B12069012801D0012061E760
:10916000AC48006820F0F800616940EAC100A949F4
:10917000086033E02069E8B10120A7490860FFF7E3
:109180002DFC054606E0FFF729FC401B022801D90B
:10919000032047E79F48006800F002000028F2D053
:1091A0009C48006820F0F800616940EAC1009949D4
:1091B000086013E0002098490860FFF70FFC05469F
:1091C00006E0FFF70BFC401B022801D9032029E72A
:1091D0009048006800F002000028F2D1207800F0EA
:1091E000080008282DD1A069B8B101208B4908607A
:1091F000FFF7F4FB054606E0FFF7F0FB401B0228F3
:1092000001D903200EE78348406A00F002000028DD
:10921000F2D0012000F0E0FC13E000207F4908605C
:10922000FFF7DCFB054606E0FFF7D8FB401B0228F2
:1092300001D90320F6E67748406A00F002000028D2
:10924000F2D1207800F00400042873D1002771487F
:10925000C06900F0805070B900BF6E48C06940F02E
:1092600080506C49C8610846C06900F08050009089
:1092700000BF00BF01276A48006800F48070B0B9E1
:109280006748006840F4807065490860FFF7A6FBF6
:10929000054606E0FFF7A2FB401B642801D9032026
:1092A000C0E65F48006800F480700028F2D000BF7C
:1092B000E068012806D15748006A40F0010055498E
:1092C000086227E0E06858B95248006A20F00100BF
:1092D000504908620846006A20F00400086219E05C
:1092E000E06805280BD14B48006A40F0040049496A
:1092F00008620846006A40F0010008620AE045483A
:10930000006A20F00100434908620846006A20F024
:109310000400086200BFE068A0B1FFF75FFB0546EC
:1093200009E0FFF75BFB401B41F28831884202D91C
:10933000032077E622E03748006A00F002000028A8
:10934000EFD012E0FFF74AFB054608E0FFF746FBC7
:10935000401B41F28831884201D9032062E62D4842
:10936000006A00F002000028F0D1012F05D1294841
:10937000C06920F080502749C86100BFE069C8B3C8
:109380002448406800F00C00082860D0E0690228FA
:1093900048D1002020490866FFF720FB054606E07B
:1093A000FFF71CFB401B022801D903203AE61948AD
:1093B000006800F000700028F2D1206AB0F5803F0C
:1093C00007D11448406820F40030A16808431149CF
:1093D0004860D4E9080108430E49496821F4741132
:1093E00008430C49486001200B490866FFF7F6FA6C
:1093F000054607E03DE0FFF7F1FA401B022801D9DE
:1094000003200FE60348006800F000700028F2D047
:109410002FE000000010024000004242800442425F
:1094200000700040002014490866FFF7D7FA05468F
:1094300006E0FFF7D3FA401B022801D90320F1E52B
:109440000E48006800F000700028F2D111E0E069D9
:10945000012800D1E6E50948466806F48031206A13
:10946000814204D106F47011606A814201D001206A
:10947000D8E50020D6E5000000004242001002407E
:1094800010B504460CB9012010BD606A38B9606897
:10949000B0F5827F00D105E00021E16102E000210A
:1094A000216161610021A16294F8510028B9002076
:1094B00084F85000204600F043F8022084F8510060
:1094C0002068006820F0400021680860A08800F44F
:1094D0008270218901F404410843A18901F40061EB
:1094E0000843217C01F002010843217D01F00101C4
:1094F0000843218B01F400710843217F01F03801FA
:1095000008432021095D01F080010843218D01F409
:1095100000510843216808600421A06901EA104055
:10952000216848602068C06920F400602168C86133
:1095300000206065012084F851000020A4E70000AD
:1095400010B586B004460020029003900490059068
:109550001949206888422DD100BF1848806940F41D
:109560008050164988610846806900F48050019057
:1095700000BF00BF00BF0846806940F0040088615A
:109580000846806900F00400019000BF00BFA020E1
:109590000290022003900320059002A90848FFF7DB
:1095A0006DF84020029000200390049002A9044826
:1095B000FFF764F806B010BD003001400010024013
:1095C0000008014070B504462546681EB0F1807F52
:1095D00001D301200FE0681E4FF0E02148610F2108
:1095E0004FF0FF3000F0D4FC00204FF0E021886104
:1095F00007200861002070BD704770472DE9F84FC3
:109600000446206805682068C668206847694FF0EE
:109610000009CA4605F00F09B9F1000F0AD105F09B
:10962000200038B106F0200020B1204600F071FB88
:10963000BDE8F88FB9F1000F7BD007F0010018B931
:1096400006F49070002874D005F0010030B106F4E3
:10965000807018B1606C40F00100606405F0040097
:1096600030B107F0010018B1606C40F00200606496
:1096700005F0020030B107F0010018B1606C40F055
:109680000400606405F0080048B106F0200010B93D
:1096900007F0010018B1606C40F008006064606C75
:1096A000002845D005F0200028B106F0200010B1B8
:1096B000204600F02EFB20684069C0F3801A606CE1
:1096C00000F0080010B9BAF1000F2CD0204600F0CD
:1096D000DAFA2068406900F0400000B300BF00BF24
:1096E0002168143151E8001F21F040002168143135
:1096F00041E80002002AF3D100BFE06B50B1774887
:10970000E16B4863E06BFEF7D1FE88B1E06B416B23
:1097100088470DE02046FFF770FF09E009E020468A
:10972000FFF76BFF04E02046FFF767FF002060644F
:109730007EE7206B012877D105F01000002873D058
:1097400006F010000028FAD000BF0020009020682A
:109750000068009020684068009000BF00BF20684B
:10976000406900F0400000285FD0E06B006840686E
:109770001FFA80F8B8F1000F55D0A08D404552DD9A
:10978000A4F82E80E06B8069202843D000BF00BF82
:1097900021680C3151E8001F21F4807021680C31E0
:1097A00041E80002002AF3D100BF00BF00BF2168DA
:1097B000143151E8001F21F001002168143141E803
:1097C0000002002AF3D100BF00BF00BF216814319E
:1097D00051E8001F21F040002168143141E80002E7
:1097E000002AF3D100BF202084F84200002020632B
:1097F00000BF00BF21680C3151E8001F21F01000AC
:1098000021680C3141E80002002AF3D100BFE06B6F
:10981000FEF720FE02206063A08DE28D801A81B2E7
:109820002046FFF7E9FE03E742E0A08DE18D401AF4
:109830001FFA80F8E08DD0B3B8F1000F37D000BF29
:1098400000BF21680C3151E8001F21F4907021689D
:109850000C3141E80002002AF3D100BF00BF00BF75
:109860002168143151E8001F21F0010021681431F2
:1098700041E80002002AF3D100BF202084F8420012
:109880000020206300BF00BF21680C3151E8001F99
:1098900021F0100021680C3141E80002002AF3D1C8
:1098A00000BF0220606341462046FFF7A5FEBFE6E9
:1098B00005F0800030B106F0800018B1204600F0BD
:1098C00025FBB5E605F0400030B106F0400018B1C8
:1098D000204600F00EFAABE600BFA9E6739C000834
:1098E00010B504460CB9012010BDA06900B100E01C
:1098F00000BF94F8410028B9002084F840002046B9
:1099000000F02AF8242084F841002068C06820F480
:1099100000502168C860204600F07AFA206800698B
:1099200020F49040216808612068406920F02A00F6
:10993000216848612068C06840F400502168C86010
:1099400000206064202084F8410084F84200002058
:10995000606300BFC8E7000010B586B00446002071
:1099600002900390049005901E492068884236D1E9
:1099700000BF1D48806940F480401B49886108464B
:10998000806900F48040019000BF00BF00BF08461E
:10999000806940F0040088610846806900F0040096
:1099A000019000BF00BF48150290022003900320E1
:1099B000059002A90D48FEF761FE4FF48060029009
:1099C00000200390049002A90848FEF757FE0022E9
:1099D00005212520FFF7ACF92520FFF799F906B0FE
:1099E00010BD000000380140001002400008014096
:1099F0007047704700BFFEE710B50E480E4908607B
:109A00002420486000210C488160C1604FF48031FF
:109A100001610901416100210176012141768176D0
:109A20000021C17601774177FEF7E2FB08B1FEF72E
:109A3000DCFB10BD006400401C00002010B5054890
:109A4000054908600846FEF7DDFC08B1FEF7CDFBCE
:109A500010BD0000003002400000002000B585B0BD
:109A60000020019002900390049000BF2648806976
:109A700040F01000244988610846806900F0100019
:109A8000009000BF00BF00BF0846806940F004009E
:109A900088610846806900F00400009000BF00BFA4
:109AA00000BF0846806940F0080088610846806968
:109AB00000F00800009000BF00BF012251031348CE
:109AC000FEF786FF012240F203111148FEF780FFE6
:109AD0004FF40050019001200290002003900320D9
:109AE000049001A90948FEF7C9FD40F20310019056
:109AF00001200290002003900320049001A9044853
:109B0000FEF7BCFD05B000BD001002400010014092
:109B10000008014010B50B480B4908600B4848602D
:109B2000002109488160C1604FF48041016100213A
:109B300041618161C1610162FEF756FF08B1FEF724
:109B400054FB10BD0058004044000020A0860100D6
:109B500010B50E480E4908604FF48270486000212D
:109B60000B488160C160016141614FF40071816106
:109B70001021C16100210162416281620A21C1623A
:109B8000FFF77EFC08B1FEF730FB10BD003001404E
:109B90009800002010B50B480B4908604FF4165090
:109BA0004860002108488160C16001610C21416169
:109BB00000218161C161FFF793FE08B1FEF715FB3B
:109BC00010BD000000380140F000002000BFFEE79B
:109BD00000BFFEE77047000008B508490968C908DA
:109BE0004FF47A72B1FBF2F14143009100BF00BF24
:109BF00000994A1E00920029F9D108BD14000020E6
:109C0000704710B5FFF714F810BD00B58FB02821CC
:109C100005A8FEF7B2FA14216846FEF7AEFA012055
:109C20000590000406900020079001200990022072
:109C30000C90C1030D914FF4E0110E9105A8FFF7B0
:109C4000EDF908B1FEF7D1FA0F2000900220019043
:109C5000002002904FF480600390002004900221C5
:109C60006846FFF7B7F808B1FEF7BFFA0FB000BDBE
:109C7000704770B505466C6A0020E085E084204698
:109C8000FFF7BBFC70BD00BF00BF02680C3252E89A
:109C9000002F22F4907102680C3242E80013002B6E
:109CA000F3D100BF00BF00BF0268143252E8002F9A
:109CB00022F001010268143242E80013002BF3D1B4
:109CC00000BF016B01290ED100BF00BF02680C323A
:109CD00052E8002F22F0100102680C3242E8001313
:109CE000002BF3D100BF202180F842100021016336
:109CF000704710B504462068C06820F04000216815
:109D0000C860202084F841002046FFF772FE002042
:109D100010BDF8B5044694F84200222875D1A06819
:109D2000B0F5805F0CD1206950B90025A66A206883
:109D30004068C0F308003080A06A801CA06215E073
:109D4000A56A0026A068B0F5805F03D0A06828B996
:109D5000206918B920684068287004E020684068CD
:109D600000F07F002870A06A401CA062E08D401EB9
:109D700080B2E085002846D12068C06820F020002D
:109D80002168C8602068C06820F480702168C860BD
:109D90002068406920F0010021684861202084F893
:109DA000420000206063206B012826D10020206340
:109DB00000BF00BF21680C3151E8001F21F01000E6
:109DC00021680C3141E80002002AF3D100BF20686D
:109DD000006800F0100010280AD100BF0020009099
:109DE00020680068009020684068009000BF00BFB5
:109DF000A18D2046FFF700FC02E02046FFF7F8FDAA
:109E00000020F8BD01E00020FBE70220F9E7000098
:109E100070B504462168096921F44051E268114394
:109E2000226811612269A1681143626941EA020551
:109E30002168C96841F20C62914329432268D160CC
:109E40002168496921F44071A26911432268516176
:109E50002D4A2168914202D1FFF798F801E0FFF7FF
:109E600085F800EBC00101EB001162689200B1FBC4
:109E7000F2F100EBC00202EB001263689B00B2FB40
:109E8000F3F26423B2FBF3F202EBC20303EB021220
:109E9000A1EB8201322202EB01116422B1FBF2F14B
:109EA00001F0F00100EBC00202EB001263689B00BE
:109EB000B2FBF3F26423B2FBF3F201EB021200EB0C
:109EC000C00101EB001163689B00B1FBF3F100EBF3
:109ED000C00303EB00136668B600B3FBF6F3642619
:109EE000B3FBF6F303EBC30606EB0313A1EB83010D
:109EF000322303EB01116423B1FBF3F101F00F01F5
:109F000011442268916070BD00380140014691F80B
:109F10004100212828D18868B0F5805F0BD10869FD
:109F200048B90A6A1088C0F308000B685860086ACC
:109F3000801C086205E00B6A581C086218780B68E0
:109F40005860C88C401E80B2C88458B90868C06880
:109F500020F080000B68D8600868C06840F04000BE
:109F60000B68D860002070470220FCE710B502485B
:109F7000FFF744FB10BD0000F000002000BFFEE72B
:109F800002480068C0F30220704700000CED00E0BA
:109F900010B5002804DB0A07130E054A135406E027
:109FA0000A07140E034A00F00F031B1FD45410BD00
:109FB00000E400E018ED00E002E008C8121F08C14C
:109FC000002AFAD170477047002001E001C1121F3A
:109FD000002AFBD17047000072B60C480C4908609B
:109FE00062B6FEF731FEFFF710FEFFF737FDFFF711
:109FF00003FDFFF7CFFDFFF721FDFFF78BFDFFF717
:10A00000A7FD01E0FEF7E2F8FCE700000080000891
:10A0100008ED00E002030405060708090A0B0C0D11
:10A020000E0F1010010200000000000000000102ED
:10A0300003040607080900000000010203040000F1
:10A0400060A00008000000201C000000B89F00086D
:10A050007CA000081C0000201C050000C89F000810
:10A0600000000000000000000000000010000000E0
:0CA07000010000000024F40000000000CB
:04000005080081313D
:00000001FF
