:020000040800F2
:10000000D80A002001010008852E0008EB2A00080C
:10001000812E0008C90B00087D3400080000000094
:100020000000000000000000000000002D3000086B
:10003000CD0B000800000000892E00082F300008BA
:100040001B0100081B0100081B0100081B01000820
:100050001B0100081B0100081B0100081B01000810
:100060001B0100081B0100081B0100081B01000800
:100070001B0100081B0100081B0100081B010008F0
:100080001B0100081B0100081B0100081B010008E0
:100090001B0100081B0100081B0100081B010008D0
:1000A0001B0100081B0100081B0100081B010008C0
:1000B0001B0100081B0100081B0100081B010008B0
:1000C0001B0100081B0100081B0100081B010008A0
:1000D0001B0100086D3400081B0100081B0100080B
:1000E0001B0100081B0100081B010008DFF80CD0F1
:1000F00000F036FC004800476D660008D80A002072
:100100000648804706480047FEE7FEE7FEE7FEE7B1
:10011000FEE7FEE7FEE7FEE7FEE7FEE79D300008AC
:10012000ED000008202A04DB203A21FA02F0002129
:10013000704721FA02F3D040C2F1200291400843F7
:100140001946704740EA01039B0703D009E008C93C
:10015000121F08C0042AFAD203E011F8013B00F88C
:10016000013B521EF9D27047D2B201E000F8012BD8
:10017000491EFBD270470022F6E710B513460A4627
:1001800004461946FFF7F0FF204610BD30B505467E
:100190002A460B4612F8010B13F8014B08B1A04296
:1001A000F8D01CB1002802D06D1CF1E7284630BD04
:1001B00080EA010210B502F00043400022D04A005C
:1001C0001FD0010E01EB1261C0F35600C2F35602BC
:1001D00040F4000042F40002A0FB022000047F393A
:1001E000140400D0401C50EA124001D44000491EC3
:1001F000C2B20C0604EBD010401C4008802A02D08A
:1002000003E0002010BD20F00100002900DA0020EA
:10021000184310BD30B480EA010202F0004530F00E
:10022000004221F0004013D090B1C30DD40DC2F3B1
:100230001601C0F31600E41A41F4000140F4000274
:100240007D34914201D3641C00E04900002C02DAA5
:1002500030BC002070474FF400000023914201D3CE
:10026000891A034340084FEA4101F7D151B1914245
:1002700002D14FF0004105E002D24FF0010101E050
:100280006FF0010103EBC450284430BC00F067B9A3
:100290002DE9FE4F81EA030404F0004421F00041FF
:1002A00000944FF0000B23F0004350EA01045ED0AD
:1002B00052EA03045BD0C3F30A54C1F30A552C4439
:1002C000A4F2F3340194A0FB0254C1F3130141F4EE
:1002D0008011C3F3130343F4801301FB024400FBBA
:1002E000034E840A970A44EA815447EA8357A4FBE1
:1002F000076802958D0A05FB07854FEA932C04FBDE
:100300000C542705029D4FEA065847EA1637B5EB0D
:1003100008056EEB070C870E920E47EA811742EA3A
:100320008312A7FB0201B6EB0B0164EB00042B0D5B
:1003300043EA0C335E1844EB1C50DA465146E7FBA7
:100340000201C5F313044FEA0B3343EA14534FEA97
:100350000432019C43EA0603A4F10C040294009CBD
:10036000CDE900B400F0A5F903B0BDE8F08F00209E
:100370000146F9E72DE9F04D81EA030404F0004B52
:1003800021F0004514464FF0000A23F0004150EAE6
:10039000050220D054EA01021DD0C5F30A570246D7
:1003A000C5F31303C1F31300C1F30A5640F48015DB
:1003B00043F48013A7EB0608101BD64608F2FD385D
:1003C00073EB050002D308F1010801E092185B41CC
:1003D000B8F1000F03DA00200146BDE8F08D0020DF
:1003E0004FF48011064684460EE0171B73EB050799
:1003F00005D3121B63EB050306434CEA010C4908C5
:100400004FEA300092185B4150EA0107EDD152EA01
:10041000030012D082EA040083EA0501084305D0F4
:10042000101BAB4106D20122002306E000224FF050
:10043000004302E06FF0010253101AEB06004CEB90
:10044000085110EB0A0041EB0B01BDE8F04D00F044
:1004500021B996230022114600F08AB80EB540F269
:10046000334102910021CDE900110A460B4600F00C
:1004700020F903B000BD20F00040C10DC0F316000C
:1004800040F400007F2901DA00207047962903DC40
:10049000C1F19601C8407047963988407047C1F352
:1004A0000A5210B5C1F3130140F2FF3341F4801139
:1004B0009A4201DA002010BD40F233439A42A2F280
:1004C000334203DC5242FFF72DFE10BD904010BDB9
:1004D00030B50B46014600202022012409E021FA14
:1004E00002F59D4205D303FA02F5491B04FA02F511
:1004F0002844151EA2F10102F1DC30BD2DE9F05FA8
:100500000546002092469B46884606468146402482
:100510001BE02846414647462246FFF703FE534666
:100520005A46C01A914110D311461846224600F08F
:1005300029FA2D1A67EB01084F46224601200021B7
:1005400000F020FA17EB00094E41201EA4F101042F
:10055000DFDC484631462A464346BDE8F09F002985
:10056000A8BF7047401C490008BF20F00100704739
:1005700010B4B0FA80FC00FA0CF050EA010404BF99
:1005800010BC704749B1CCF1200421FA04F411FAEF
:100590000CF118BF012121430843A3EB0C01CB1D33
:1005A0004FEA00614FEA102042BF002010BC7047A4
:1005B00000EBC35010440029A4BF10BC7047401C7E
:1005C000490008BF20F0010010BC7047F0B480EA79
:1005D0000102D40F4200B2EB410F02D2024608469C
:1005E00011464A0042D0C30DDDB2C1F3C752AD1A65
:1005F000202D35DAC1F3160141F4000204B1524254
:10060000C5F1200602FA06F12A411044B3EBD05F8F
:1006100023D0C4B1012DA0EBC35009DCF0BC4FF0D6
:10062000004202EAC352DBB200F50000FFF7A0BFB0
:10063000400000F1807000EBC350A0F1807040EAF0
:10064000D170490009E0490841EAC071A0EBC350EC
:1006500000F50000400800EBC350F0BCFFF77FBF7F
:100660006142012202EB4101001BF6E7F0BC70473A
:1006700081F00041AAE780F00040A7E7420005D0E2
:10068000C0F3C7525242914201DC0020704700EB98
:10069000C150704710B5141E73F1000408DA401CF5
:1006A00041F1000192185B411A4301D120F0010091
:1006B00010BD2DE9F04D92469B4611B1B1FA81F281
:1006C00002E0B0FA80F22032904600F05BF9044676
:1006D0000F4640EA0A0041EA0B0153465A460843D6
:1006E00013D0114653EA010019D0C8F14002504618
:1006F000FFF718FD05460E4650465946424600F0A3
:1007000041F9084305D0012004E020463946BDE800
:10071000F08D0020054346EAE0762C4337430A98E3
:100720006305E40AA0EB08000022FD0A44EA4754EE
:100730000A3002D500200146E9E701051019694198
:10074000DDE9084500196941BDE8F04DA2E72DE952
:10075000FE4F804681EA0300C00F0C46009021F056
:10076000004123F00045B8EB0200A94105D2404604
:10077000214690461C460B46024623F0004010439B
:1007800047D0270DC7F30A00C3F30A510290401A5D
:10079000019040286BDAC3F3130040F4801B0098EB
:1007A000924620B10023D2EB030A63EB0B0B0198B6
:1007B0005946C0F14002504600F0E4F806460D46A6
:1007C00050465946019A00F0ECF810EB08006141E0
:1007D000002487EA115284EAE7731A4340D0009A52
:1007E00062B3019A012A4FEA075215DC001B61EB44
:1007F00002014FF0004202EA0752CDE90042001C1C
:1008000041F5801132462B46FFF753FF03B0BDE898
:10081000F08F40462146F9E7001B61EB0201001C06
:1008200041F5801300185B412018A2F5001747EB33
:10083000030140EAD570B6196D4111E06D084FEA29
:10084000360645EAC0754FEA0752001B61EB02010C
:10085000001C41F5801149084FEA30000019514150
:1008600032462B4603B0BDE8F04FFFF713BF0098A8
:10087000012240000023D0EB020263EBE0730098FA
:1008800021464FEAE074B8EB000061EB0401E9E7B0
:1008900083F000435BE781F0004158E7C10F80EA35
:1008A000E0700844CA0796230021FFF761BEC1F338
:1008B0000A52C1F3130140F2FF3341F480119A420E
:1008C00002DA00200146704740F233439A42A2F216
:1008D000334202DC5242FFF725BC00F053B810B59A
:1008E00000F0004420F00040C20DC0F3160040F4B8
:1008F00000007F2A07DA7D2A00DA7D22763A00FAA4
:1009000002F1002008E0962A09DCA2F1760100FA43
:1009100001F1C2F19602D040FFF721FE01E0963AC4
:100920009040002C00D0404210BD000030B5041EA5
:1009300071F1000404DB4FF00044404264EB01011C
:10094000141E73F1000405DB1C464FF000435242B5
:1009500063EB0403994208BF904230BD002070470A
:10096000064C074D06E0E06840F0010394E80700FC
:1009700098471034AC42F6D3FFF7BCFB206E00085A
:10098000406E0008202A04DB203A00FA02F1002021
:1009900070479140C2F1200320FA03F319439040BD
:1009A0007047202A06DBCB17203A41FA02F043EACF
:1009B000E07306E041FA02F3D040C2F12002914018
:1009C00008431946704700002DE9F04104460D46E2
:1009D0002646E81CC11700EB91718F10084800688B
:1009E000806840F001000649096888603A4631464F
:1009F000034800F0ABFA80464046BDE8F0810000B5
:100A00000000002010B509A002F03AFD00200C49BA
:100A1000087004F0CDFA0BA002F032FD0F480088F8
:100A200018B942F27C000D49088010BD4170705F1A
:100A30007570646174655F696E69740D0A00000009
:100A4000260000204170705F7570646174655F7787
:100A50006169745F636D640D0A0000001A00002074
:100A600010B52A4800882A49098888422ADA0024D1
:100A70002748008825490988401A642801DB642436
:100A800005E02348008821490988401A84B20020E3
:100A900008E01E4909881F4A1144095C1E4A115486
:100AA000411C88B2A042F4DB184800882044174952
:100AB00008802146184804F0A3FD4FF4AF7000F001
:100AC0000BFB22E015A002F0DBFC00200F490880A0
:100AD0001A49087040F61C4000F0FEFA0C480188E4
:100AE0000C48FFF771FF04460B480021016041608C
:100AF00001460C70200A4870200C8870200EC870C7
:100B00000421054804F07CFD00BF10BD2800002032
:100B10001A00002000800008200300204170705F50
:100B20007570646174655F73656E645F6170705F3A
:100B300066696E6973680D0A0000000026000020D7
:100B400010B504F04DFD0446B4B90CA10C48FFF7F4
:100B50001DFB88B101200B4908700BA002F090FC2E
:100B60004FF480710648FFF706FB00200C49A1F8FE
:100B7000B602642000F0B0FA10BD00007367670091
:100B8000D6050020260000204170705F75706461FA
:100B900074655F73656E645F6170700D0A000000BC
:100BA0002004002010B50748007810B1012806D1B4
:100BB00002E0FFF7C5FF03E0FFF752FF00E000BFD0
:100BC00000BF10BD2600002000BFFEE7704772B6D0
:100BD00000BFFEE70021074AD1610749096941F0DA
:100BE0000401054A11611146096941F04001116192
:100BF0007047000000010020002002400021074A49
:100C0000D1610749096941F00201054A11611146A4
:100C10004861096941F040011161704700010020FD
:100C2000002002400022054BDA61054A126942F0B9
:100C30000102034B1A61018070470000000100208F
:100C40000020024000201E49C96801F0100139B19E
:100C50001C49C96941F002011A4AD16140F01000F3
:100C60001749C96801F0040139B11649C96941F051
:100C70000101144AD16140F004001149C96901F031
:100C8000010169B10F49C96941F004010D4AD161FF
:100C900000BF0B49C96921F00101094AD16100BFB8
:100CA00000BF40F20111884206D10549C96921F00F
:100CB0000101034AD16101E00149C86000BF7047EA
:100CC000002002400001002070B5044600F088FCBE
:100CD000054609E0601C38B124B100F081FC401BDE
:100CE000A04201D9032070BD1248C06800F0010085
:100CF0000028EFD10F48C06800F0200020B100BFED
:100D000020200C49C86000BF0A48C06800F01000ED
:100D100048B90848C06900F0010020B90548C0681A
:100D200000F0040018B1FFF78DFF0120DBE7002081
:100D3000D9E700000020024070B504460CB901203C
:100D400070BD94F8200010B9204600F0AFF820687C
:100D5000006840F001002168086000F041FC054691
:100D60000DE000F03DFC401B0A2808D9606A40F401
:100D700000306062052084F820000120E0E7206850
:100D8000406800F001000028EBD02068006820F0E7
:100D900002002168086000F023FC05460DE000F029
:100DA0001FFC401B0A2808D9606A40F400306062CA
:100DB000052084F820000120C2E72068406800F088
:100DC00002000028EBD1207E012806D120680068AF
:100DD00040F080002168086005E02068006820F08D
:100DE000800021680860607E012806D120680068C4
:100DF00040F040002168086005E02068006820F0AD
:100E0000400021680860A07E012806D120680068A3
:100E100040F020002168086005E02068006820F0AC
:100E2000200021680860E07E012806D12068006863
:100E300020F010002168086005E02068006840F09C
:100E4000100021680860207F012806D12068006812
:100E500040F008002168086005E02068006820F084
:100E6000080021680860607F012806D120680068BA
:100E700040F004002168086005E02068006820F068
:100E8000040021680860D4E902010843216908438D
:100E9000616908436168491E08432168C8610020F0
:100EA0006062012084F82000002049E710B586B078
:100EB0000446002002900390049005901F4920688A
:100EC000884239D100BF1E48C06940F000701C49FB
:100ED000C8610846C06900F00070019000BF00BF03
:100EE00000BF0846806940F00800886108468069B4
:100EF00000F00800019000BF00BF8815029000209C
:100F00000390049002A90F4800F0CCF94FF4007050
:100F10000290022003900320059002A9094800F0E6
:100F2000C1F900BF0849486820F4C04040F0E060C3
:100F300040F48040486000BF06B010BD006400402F
:100F400000100240000C01400000014070B5034653
:100F50000C46002002255D711D68AD6845F0010555
:100F60001E68B560002104E054F821501E68356009
:100F7000491C9142F8D31D68286801255D7170BD38
:100F800010B504460CB9012010BD607920B90020CD
:100F90002071204600F004F8012060710020F3E782
:100FA00008B5094A016891420DD100BF0749496956
:100FB00041F04001054A51611146496901F0400183
:100FC000009100BF00BF08BD003002400010024089
:100FD0000146002291F82100022808D004208863ED
:100FE00000BF002081F8200000BF01207047086882
:100FF000006820F00E000B6818600868006820F098
:1010000001000B68186091F8403001209840CB6BCC
:101010005860012081F8210000BF002081F82000E5
:1010200000BF1046E2E7000070B50446002594F8C2
:101030002100022803D00420A063012548E0206895
:10104000006820F00E00216808602068006820F029
:101050000100216808601F492068884201D10120F1
:1010600026E01C4914312068884201D110201FE07D
:10107000184928312068884201D1801518E01549A7
:101080003C312068884201D1801411E0114950316F
:101090002068884202D14FF4803009E00D49643164
:1010A0002068884202D14FF4801001E04FF0807038
:1010B000084908394860012084F8210000BF002059
:1010C00084F8200000BF606B10B12046616B884738
:1010D000284670BD0800024070B5044600F080FA52
:1010E00006462546681C10B104480078054400BF38
:1010F00000F076FA801BA842FAD370BD10000020E1
:101100002DE9F04104460E460127002500BF264880
:10111000007E012802D10220BDE8F0810120224991
:10112000087600BF2068022813D14CF25030FFF738
:10113000CBFD90BB0120FFF74DFD4CF25030FFF787
:10114000C3FD07461948006920F0040017490861EB
:1011500023E04CF25030FFF7B7FDF0B94FF0FF300D
:101160003060A56812E02846FFF748FD4CF2503089
:10117000FFF7AAFD07460D48006920F002000B4961
:1011800008610FB1356007E005F58065D4E902100C
:1011900001EB8020A842E6D800BF00BF0020024932
:1011A000087600BF3846B7E7000100200020024063
:1011B0000348006940F08000014908610020704741
:1011C000002002402DE9FE4F05468B461746984603
:1011D000012600240020029000BF2448007E012840
:1011E00002D10220BDE8FE8F01202049087600BF11
:1011F0004CF25030FFF768FD064686BB012D02D148
:101200000120029006E0022D02D10220029001E0AE
:101210000420029000241EE02201B946C24648463E
:101220005146FEF77FFF80B20190022000FB04B020
:1012300000900199FFF7F6FC4CF25030FFF744FDA7
:1012400006460B48006920F001000949086106B113
:1012500004E0601CC4B202988442DDDB00BF00BF22
:1012600000200249087600BF3046BBE7000100209D
:101270000020024000200849096901F0800151B1B5
:101280000649054A5160064951601146096901F055
:10129000800101B101207047002002402301674511
:1012A000AB89EFCD2DE9F8470346002294466EE165
:1012B0004FF0010808FA02F4D1F8008008EA0400AF
:1012C000A0427DD1DFF8DCA2D1F80480A8EB0A09A6
:1012D000D0453AD014DCB8F1030F50D009DCB8F196
:1012E000000F31D0B8F1010F1CD0B8F1020F49D175
:1012F00020E0B8F1110F18D0B8F1120F42D11EE062
:10130000B9F5881F25D006DCB9F5803F20D0B9F5A6
:10131000801F37D11AE0B9F5001F18D0B9F5041FA6
:1013200030D117E0D1F80CC02DE0D1F80C8008F1D5
:10133000040C28E0D1F80C8008F1080C23E0D1F867
:101340000C8008F10C0C1EE000BF00BF00BF00BF06
:1013500000BF00BFD1F80880B8F1000F02D14FF0F4
:10136000040C0BE0D1F80880B8F1010F03D14FF065
:10137000080C1C6102E04FF0080C5C6103E04FF0C8
:10138000000C00E000BF00BFFF2801D8984601E034
:1013900003F104084646FF2802D84FEA820803E01A
:1013A000A2F108084FEA88084746D6F800804FF0B7
:1013B0000F0909FA07F928EA09080CFA07F900E009
:1013C00088E048EA0908C6F80080D1F8048008F0EF
:1013D0008058B8F1805F7DD100BFDFF8CC81D8F8AC
:1013E000188048F00108DFF8C091C9F81880C84695
:1013F000D8F8188008F00108CDF8008000BF00BFC1
:101400004FEAB9384FEA920958F829504FEA8278E2
:101410004FEA18794FF00F0808FA09F825EA08058D
:10142000DFF88881434502D14FF0000816E0DFF86D
:101430008081434502D14FF001080FE0DFF874814D
:10144000434502D14FF0020808E0DFF86C814345C4
:1014500002D14FF0030801E04FF004084FEA82790F
:101460004FEA197908FA09F848EA0505DFF84C81CE
:101470004FEA920948F82950D1F8048008F48018FE
:10148000B8F5801F0AD1DFF83881D8F8008048EA23
:101490000008DFF82C91C9F8008009E0DFF820810E
:1014A000D8F8008028EA0008DFF81491C9F8008015
:1014B000D1F8048008F40018B8F5001F10D1DFF847
:1014C000008108F10408D8F8008048EA0008DFF835
:1014D000F09000E05AE009F10409C9F800800DE03D
:1014E000DFF8DC8008F10408D8F8008028EA00085A
:1014F000DFF8CC9009F10409C9F80080D1F8048024
:1015000008F40038B8F5003F0ED1DFF8B480A8F138
:101510000408D8F8008048EA0008DFF8A490A9F190
:101520000409C9F800800DE0DFF89480A8F10408F0
:10153000D8F8008028EA0008DFF88490A9F10409AF
:10154000C9F80080D1F8048008F48038B8F5803FED
:101550000ED1DFF86C80A8F10808D8F8008048EABE
:101560000008DFF85C90A9F10809C9F800800DE0D7
:10157000DFF84C80A8F10808D8F8008028EA0008B5
:10158000DFF83C90A9F10809C9F80080521CD1F895
:10159000008028FA02F8B8F1000F7FF489AEBDE8A8
:1015A000F887000000001110001002400008014000
:1015B000000C0140001001400014014008000140EF
:1015C00008040140024693680B400BB1012000E083
:1015D000002070470AB1016101E00B04036170470C
:1015E00001480068704700000800002003480068B8
:1015F0000349097808440149086070470800002041
:101600001000002010B50848006840F0100006499E
:101610000860032000F0A8F80F2000F007F800F0A1
:101620002BF8002010BD00000020024070B50446D9
:101630000E4800784FF47A71B1FBF0F00C4909685C
:10164000B1FBF0F5284600F058FF08B1012070BD4D
:10165000102C07D200222146501E00F047F8054802
:10166000046001E00120F2E70020F0E71000002014
:10167000140000200C00002008B500BF114880694C
:1016800040F001000F4988610846806900F00100C0
:10169000009000BF00BF00BF0846C06940F0805006
:1016A000C8610846C06900F08050009000BF00BFCC
:1016B00000BF0549486820F0E06040F000704860D5
:1016C00000BF08BD0010024000000140014608466E
:1016D000002809DB00F01F0301229A4043099B0008
:1016E00003F1E023C3F8002100BF70472DE9F05F4C
:1016F00080460D461646002701F0EEFE07463946A5
:101700002A46334601F00700C0F1070ABAF1040F78
:1017100002D94FF0040A01E0C0F1070AD14600F1F6
:10172000040ABAF1070F02D24FF0000A01E0A0F15B
:10173000030AD4464FF0010A0AFA09FAAAF1010A8B
:101740000AEA020A0AFA0CFA4FF0010B0BFA0CFB38
:10175000ABF1010B0BEA030B4AEA0B0421464046AE
:1017600001F0C2FEBDE8F09F00BF00F00702064B8B
:1017700019684FF6FF031940044B0B4343EA02215B
:10178000014B196000BF70470CED00E00000FA0546
:1017900070B504460D460CB9012070BD5A4800686A
:1017A00000F00700A8420ED25748006820F007005A
:1017B0002843554908600846006800F00700A84221
:1017C00001D00120E9E7207800F0020002281DD1B5
:1017D000207800F00400042805D14C48406840F40B
:1017E000E0604A494860207800F00800082805D1E8
:1017F0004648406840F46050444948604348406867
:1018000020F0F000A168084340494860207800F0CB
:10181000010078B36068012806D13C48006800F4F4
:10182000003090B90120B8E76068022806D1374837
:10183000006800F0007040B90120AEE7334800684E
:1018400000F0020008B90120A7E73048406820F006
:101850000300616808432D494860FFF7C1FE064652
:1018600009E0FFF7BDFE801B41F28831884202D9B2
:10187000032092E707E02548406800F00C0061680B
:10188000B0EB810FEDD12048006800F00700A842BE
:101890000ED91D48006820F0070028431A49086047
:1018A0000846006800F00700A84201D0012074E754
:1018B000207800F00400042807D11448406820F480
:1018C000E060E168084311494860207800F00800B2
:1018D000082808D10D48406820F46050216940EA8A
:1018E000C1000A49486000F03FF808494968C1F35F
:1018F0000311074A515CC840064908600648006861
:10190000FFF794FE002048E700200240001002404C
:10191000C66C0008140000200C000020014800687C
:10192000704700001400002000B5FFF7F7FF0449DE
:101930004968C1F30221034A515CC84000BD000060
:1019400000100240D66C000800B5FFF7E7FF04491D
:101950004968C1F3C221034A515CC84000BD000080
:1019600000100240D66C000870B50021002200244F
:1019700000230020134D696801F00C05F5B1042D1A
:1019800002D0082D19D101E00F4819E00F4DC1F325
:101990008346AB5D01F4803555B10A4D6D68C5F3E2
:1019A00040450B4E725D084D5D43B5FBF2F402E01D
:1019B000084D03FB05F4204602E000BF024800BFCB
:1019C00000BF70BD0010024000127A00B46C000825
:1019D000C46C000800093D00F8B504460CB90120AC
:1019E000F8BD207800F00100002878D0F848406861
:1019F00000F00C0004280CD0F548406800F00C0002
:101A0000082811D1F248406800F48030B0F5803FDA
:101A10000AD1EF48006800F4003000285FD0606809
:101A200000285CD10120DBE700BF6068B0F5803F93
:101A300006D1E748006840F48030E549086028E0B6
:101A4000606858B9E248006820F48030E0490860D6
:101A50000846006820F4802008601AE06068B0F54D
:101A6000A02F0BD1DA48006840F48020D8490860E4
:101A70000846006840F4803008600AE0D4480068F6
:101A800020F48030D24908600846006820F48020A5
:101A9000086000BF606888B1FFF7A2FD054606E058
:101AA000FFF79EFD401B642801D9032098E7C84832
:101AB000006800F400300028F2D010E0FFF790FD3D
:101AC000054606E0FFF78CFD401B642801D9032082
:101AD00086E7BF48006800F400300028F2D1207883
:101AE00000F00200022857D1B948406800F00C000D
:101AF00050B1B748406800F00C00082818D1B4482D
:101B0000406800F4803098B9B148006800F00200E5
:101B100020B12069012801D0012061E7AC480068AC
:101B200020F0F800616940EAC100A949086033E08B
:101B30002069E8B10120A7490860FFF751FD05467B
:101B400006E0FFF74DFD401B022801D9032047E7BF
:101B50009F48006800F002000028F2D09C4800680E
:101B600020F0F800616940EAC1009949086013E07B
:101B7000002098490860FFF733FD054606E0FFF7AF
:101B80002FFD401B022801D9032029E79048006857
:101B900000F002000028F2D1207800F008000828A8
:101BA0002DD1A069B8B101208B490860FFF718FD5D
:101BB000054606E0FFF714FD401B022801D903206B
:101BC0000EE78348406A00F002000028F2D00120AE
:101BD00001F05CF913E000207F490860FFF700FD89
:101BE000054606E0FFF7FCFC401B022801D9032054
:101BF000F6E67748406A00F002000028F2D120782B
:101C000000F00400042873D100277148C06900F077
:101C1000805070B900BF6E48C06940F080506C4978
:101C2000C8610846C06900F08050009000BF00BF46
:101C300001276A48006800F48070B0B967480068FE
:101C400040F4807065490860FFF7CAFC054606E06D
:101C5000FFF7C6FC401B642801D90320C0E65F489B
:101C6000006800F480700028F2D000BFE06801280E
:101C700006D15748006A40F001005549086227E044
:101C8000E06858B95248006A20F0010050490862E3
:101C90000846006A20F00400086219E0E0680528A0
:101CA0000BD14B48006A40F00400494908620846DD
:101CB000006A40F0010008620AE04548006A20F02E
:101CC0000100434908620846006A20F004000862E7
:101CD00000BFE068A0B1FFF783FC054609E0FFF70D
:101CE0007FFC401B41F28831884202D9032077E60D
:101CF00022E03748006A00F002000028EFD012E02E
:101D0000FFF76EFC054608E0FFF76AFC401B41F256
:101D10008831884201D9032062E62D48006A00F02C
:101D200002000028F0D1012F05D12948C06920F018
:101D300080502749C86100BFE069C8B324484068A3
:101D400000F00C00082860D0E069022848D100208B
:101D500020490866FFF744FC054606E0FFF740FC13
:101D6000401B022801D903203AE61948006800F018
:101D700000700028F2D1206AB0F5803F07D11448E6
:101D8000406820F40030A168084311494860D4E954
:101D9000080108430E49496821F4741108430C49AD
:101DA000486001200B490866FFF71AFC054607E06A
:101DB0003DE0FFF715FC401B022801D903200FE688
:101DC0000348006800F000700028F2D02FE0000007
:101DD0000010024000004242800442420070004075
:101DE000002014490866FFF7FBFB054606E0FFF7F5
:101DF000F7FB401B022801D90320F1E50E480068DB
:101E000000F000700028F2D111E0E069012800D153
:101E1000E6E50948466806F48031206A814204D12B
:101E200006F47011606A814201D00120D8E50020DB
:101E3000D6E50000000042420010024010B5044602
:101E40000CB9012010BD606A38B96068B0F5827FB6
:101E500000D105E00021E16102E000212161616122
:101E60000021A16294F8510028B9002084F85000A4
:101E7000204600F043F8022084F8510020680068F2
:101E800020F0400021680860A08800F48270218959
:101E900001F404410843A18901F400610843217C55
:101EA00001F002010843217D01F001010843218B6B
:101EB00001F400710843217F01F03801084320211B
:101EC000095D01F080010843218D01F400510843B0
:101ED000216808600421A06901EA10402168486077
:101EE0002068C06920F400602168C8610020606536
:101EF000012084F851000020A4E7000010B586B04E
:101F0000044600200290039004900590194920682F
:101F100088422DD100BF1848806940F4805016498E
:101F200088610846806900F48050019000BF00BFBE
:101F300000BF0846806940F0040088610846806957
:101F400000F00400019000BF00BFA020029002201A
:101F500003900320059002A90848FFF7A3F9402049
:101F6000029000200390049002A90448FFF79AF918
:101F700006B010BD003001400010024000080140D2
:101F80002DE9F8430446884616461D464FF00009E1
:101F900094F85100012802D04FF00209A8E06068CF
:101FA000B0F5827F0DD1A06858B9042084F85100A3
:101FB0003346424641462046009500F07EF9BDE892
:101FC000F88300BF94F85000012801D10220F6E701
:101FD000012084F8500000BFFFF702FB0746B8F16C
:101FE000000F00D016B94FF0010981E0042084F8F9
:101FF000510000206065C4F83880A687E68720631A
:10200000A086E08620646064A068B0F5004F0BD124
:102010002068006820F0400021680860206800689F
:1020200020F48040216808602068006800F04000CB
:10203000402805D02068006840F040002168086012
:10204000E06810BB1DE02068806800F0010050B11E
:102050002068007BA16B0870A06B401CA063E08F20
:10206000401EE0870DE0FFF7BBFAC01BA84201D37A
:10207000681C00B92DB94FF00309012084F8510004
:1020800036E0E08F0028DED121E01DE02068806886
:1020900000F0010050B12068C068A16B0880A06BFF
:1020A000801CA063E08F401EE0870DE0FFF798FAE8
:1020B000C01BA84201D3681C00B92DB94FF0030919
:1020C000012084F8510013E0E08F0028DED13A4669
:1020D0002946204600F0EEFE08B120206065606DC4
:1020E00010B14FF0010902E0012084F8510000BF57
:1020F00000BF002084F8500000BF48465FE72DE98C
:10210000F84F0446884616461D464FF0000A00BFA9
:1021100094F85000012802D10220BDE8F88F012078
:1021200084F8500000BFFFF75BFA0746B14694F809
:102130005100012802D04FF0020AB7E0B8F1000FB9
:1021400000D016B94FF0010AB0E0032084F8510026
:1021500000206065C4F83080A686E686A063A0876C
:10216000E08760642064A068B0F5004F0BD1206860
:10217000006820F04000216808602068006840F492
:102180008040216808602068006800F04000402816
:1021900005D02068006840F0400021680860E068D1
:1021A000B0F5006F32D1606810B1B9F1010F09D1FB
:1021B000206B00882168C860206B801C2063E08E43
:1021C000401EE0861EE02068806800F002000228C1
:1021D0000AD1206B00882168C860206B801C2063B6
:1021E000E08E401EE0860DE0FFF7FAF9C01BA84222
:1021F00001D3681C00B92DB94FF0030A012084F8FF
:10220000510053E0E08E0028DDD131E0606810B16C
:10221000B9F1010F09D1206B007821680873206B98
:10222000401C2063E08E401EE0861EE0206880682F
:1022300000F0020002280AD1206B007821680873A0
:10224000206B401C2063E08E401EE0860DE0FFF70F
:10225000C7F9C01BA84201D3681C00B92DB94FF0C3
:10226000030A012084F8510020E0E08E0028DDD12F
:102270003A462946204600F059FE08B12020606504
:10228000A06850B900BF002000902068C06800908E
:1022900020688068009000BF00BF606D10B14FF0F3
:1022A000010A02E0012084F8510000BF00BF0020B5
:1022B00084F8500000BF50462FE72DE9FF5F044629
:1022C000884691461D460E9E0120029000200190F6
:1022D00000BF94F85000012803D1022004B0BDE8EB
:1022E000F09F012084F8500000BFFFF779F90746FE
:1022F00094F851B060680390AA46BBF1010F0BD06F
:102300000398B0F5827F04D1A06810B9BBF1040F27
:1023100002D002200190E9E0B8F1000F03D0B9F13A
:10232000000F00D015B901200190DFE094F85100B2
:10233000042802D0052084F8510000206065C4F80C
:102340003890E587A587C4F83080E586A5862064A7
:1023500060642068006800F04000402805D02068D4
:10236000006840F0400021680860E068B0F5006F48
:102370004DD1606810B1BAF1010F09D1206B00880E
:102380002168C860206B801C2063E08E401EE086C0
:1023900036E02068806800F00200022810D1E08E4C
:1023A00070B1029801280BD1206B00882168C860A9
:1023B000206B801C2063E08E401EE086002002908F
:1023C0002068806800F0010068B1E08F58B1206893
:1023D000C068A16B0880A06B801CA063E08F401ECA
:1023E000E08701200290FFF7FBF8C01BB04207D343
:1023F000701C28B103200190012084F8510075E081
:10240000E08E0028C5D1E08F0028C2D14DE0606881
:1024100010B1BAF1010F09D1206B0078216808735F
:10242000206B401C2063E08E401EE08637E0206871
:10243000806800F00200022810D1E08E70B102988E
:1024400001280BD1206B007821680873206B401C99
:102450002063E08E401EE0860020029020688068A5
:1024600000F0010068B1E08F58B12068C068A16B2E
:102470000870A06B401CA063E08F401EE087012025
:102480000290FFF7ADF8C01BB04201D3701C00B939
:102490002EB903200190012084F8510026E0E08E3F
:1024A0000028C4D1E08F0028C1D13A4631462046E9
:1024B00000F03CFD20B1012001902020606515E076
:1024C000A06850B900BF002000902068C06800904C
:1024D00020688068009000BF00BF606D10B10120CF
:1024E000019002E0012084F8510000BF00BF0020ED
:1024F00084F8500000BF0198F0E670B50446254608
:10250000681EB0F1807F01D301200FE0681E4FF0FC
:10251000E02148610F214FF0FF3000F0E5FF00207F
:102520004FF0E021886107200861002070BDF8B5F8
:1025300004460E46174694F8420020282ED106B1D4
:102540000FB90120F8BD01202063002060633A46E6
:102550003146204600F0F0FE0546EDB9206B01281B
:1025600019D100BF0020009020680068009020680A
:102570004068009000BF00BF00BF00BF21680C3161
:1025800051E8001F41F0100021680C3141E80002C1
:10259000002AF3D100E001252846D3E70220D1E745
:1025A00038B504460D461F492068884239D1FFF7E7
:1025B00017F81D4908601D4805801D4800881B4903
:1025C000098808441A490880FEF754FE00F090FA82
:1025D00000F0C6FAFEF7ECFD4FF400711548FDF768
:1025E000CAFD00BF002000901348006800680090FA
:1025F000114800684068009000BF00BF00BF002085
:1026000000900D480068006800900B480068406822
:10261000009000BF00BF4FF4007206490648FFF764
:1026200086FF38BD0038014020000020180000203F
:102630001A00002020010020B40000207047000094
:102640002DE9F84F0446206805682068C6682068B0
:1026500047694FF00009CA4605F00F09B9F1000FAC
:102660000AD105F0200038B106F0200020B1204644
:1026700000F065FDBDE8F88FB9F1000F7BD007F0E1
:10268000010018B906F49070002874D005F001001C
:1026900030B106F4807018B1606C40F001006064E5
:1026A00005F0040030B107F0010018B1606C40F093
:1026B0000200606405F0020030B107F0010018B1BB
:1026C000606C40F00400606405F0080048B106F05A
:1026D000200010B907F0010018B1606C40F008004C
:1026E0006064606C002845D005F0200028B106F039
:1026F000200010B1204600F022FD20684069C0F3A0
:10270000801A606C00F0080010B9BAF1000F2CD0EC
:10271000204600F0CEFC2068406900F0400000B385
:1027200000BF00BF2168143151E8001F21F04000B4
:102730002168143141E80002002AF3D100BFE06BA8
:1027400050B17748E16B4863E06BFEF76DFC88B1F0
:10275000E06B416B88470DE02046FFF76FFF09E013
:1027600009E02046FFF76AFF04E02046FFF766FF16
:10277000002060647EE7206B012877D105F010000F
:10278000002873D006F010000028FAD000BF002007
:10279000009020680068009020684068009000BFAA
:1027A00000BF2068406900F0400000285FD0E06B67
:1027B000006840681FFA80F8B8F1000F55D0A08D6E
:1027C000404552DDA4F82E80E06B8069202843D07C
:1027D00000BF00BF21680C3151E8001F21F4807058
:1027E00021680C3141E80002002AF3D100BF00BF8C
:1027F00000BF2168143151E8001F21F00100216859
:10280000143141E80002002AF3D100BF00BF00BF2D
:102810002168143151E8001F21F040002168143173
:1028200041E80002002AF3D100BF202084F84200D2
:102830000020206300BF00BF21680C3151E8001F59
:1028400021F0100021680C3141E80002002AF3D188
:1028500000BFE06BFEF7BCFB02206063A08DE28D41
:10286000801A81B22046FFF79BFE03E742E0A08D6D
:10287000E18D401A1FFA80F8E08DD0B3B8F1000F57
:1028800037D000BF00BF21680C3151E8001F21F490
:10289000907021680C3141E80002002AF3D100BF9A
:1028A00000BF00BF2168143151E8001F21F0010072
:1028B0002168143141E80002002AF3D100BF202032
:1028C00084F842000020206300BF00BF21680C3163
:1028D00051E8001F21F0100021680C3141E800028E
:1028E000002AF3D100BF0220606341462046FFF773
:1028F00057FEBFE605F0800030B106F0800018B149
:10290000204600F039FDB5E605F0400030B106F094
:10291000400018B1204600F002FCABE600BFA9E67B
:102920009F30000810B504460CB9012010BDA06905
:1029300000B100E000BF94F8410028B9002084F8FD
:102940004000204600F02AF8242084F84100206846
:10295000C06820F400502168C860204600F06EFC7A
:102960002068006920F4904021680861206840696F
:1029700020F02A00216848612068C06840F40050B7
:102980002168C86000206064202084F8410084F839
:1029900042000020606300BFC8E7000010B586B0A9
:1029A0000446002002900390049005901E49206880
:1029B000884236D100BF1D48806940F480401B49E1
:1029C00088610846806900F48040019000BF00BF24
:1029D00000BF0846806940F00400886108468069AD
:1029E00000F00400019000BF00BF481502900220D3
:1029F00003900320059002A90D48FEF753FC4FF405
:102A00008060029000200390049002A90848FEF71D
:102A100049FC002211462520FEF768FE2520FEF71E
:102A200055FE06B010BD0000003801400010024005
:102A30000008014070472DE9F84F04460E4617463E
:102A400099464FF0000A94F8410020284AD106B177
:102A500017B90120BDE8F88F00206064212084F8B8
:102A60004100FEF7BDFD8246A784E784A068B0F56B
:102A7000805F04D1206910B90025B04602E03546D8
:102A80004FF000081BE05346002280212046CDF87D
:102A9000009000F0A1FC08B10320DBE745B9B8F8CD
:102AA0000000C0F308002168486008F1020803E054
:102AB0002878216848606D1CE08C401EE084E08C22
:102AC0000028E0D15346002240212046CDF8009056
:102AD00000F082FC08B10320BCE7202084F841000C
:102AE0000020B7E70220B5E7704700BFFEE700000F
:102AF00070B586B000240025002015E0154A024478
:102B0000154B1B68D15CFF290CD00124114A0244EB
:102B1000114B1B681A44104E36888319C3F30903FE
:102B2000D51A05E0411C88B20C4909888842E5DBCA
:102B300000BF64B10020029001200390049505902D
:102B40000020019001A902A8FEF7DAFA00BF06B042
:102B500070BD0000008000081C000020180000204C
:102B600010B527490988274A1278881800EBD071D8
:102B70004910A0EB4101D1B92248007850B100F0D2
:102B800073F8214801681E480088401C08441E490B
:102B9000086008E000F03EF81B4800681849098802
:102BA00008441949086000201649087027E01548B4
:102BB000007880B100F058F811480088401E134991
:102BC000085C13490870104800680D4909880844DA
:102BD0000D49086010E000F01DF809480088401E0B
:102BE0000A49085C0A49087005480088401E0649E1
:102BF000096808440449086001200249087010BDB2
:102C000018000020240000201C00002020010020CB
:102C10002500002070B5002418E00F4820440F491B
:102C200009684618601C0E49098888420CDA0D486C
:102C3000015D0246601C105C41EA00252A46002323
:102C400031460120FEF7BEFAA01C84B20448008879
:102C50008442E2DB70BD0000008000081C00002000
:102C6000180000202001002070B500241AE0104850
:102C7000204410490968461834B90F48005D0F49CF
:102C8000097841EA002505E0601E0B49085C095DF2
:102C900040EA01252A46002331460120FEF792FA38
:102CA000A01C84B2064800888442E0DB70BD0000AE
:102CB000008000081C0000202001002025000020CA
:102CC0001800002010B50E480E4908602420486006
:102CD00000210C488160C1604FF48031016109011D
:102CE0004161002101760121417681760021C17682
:102CF00001774177FEF720F808B1FDF768FF10BDB6
:102D0000006400403400002010B505480549086003
:102D10000846FEF735F908B1FDF759FF10BD000070
:102D2000003002400000002000B585B00020019076
:102D300002900390049000BF2F48806940F010007B
:102D40002D4988610846806900F01000009000BF9E
:102D500000BF00BF0846806940F020008861084637
:102D6000806900F02000009000BF00BF00BF08464F
:102D7000806940F0040088610846806900F0040022
:102D8000009000BF00BF00BF0846806940F0080007
:102D900088610846806900F00800009000BF00BF0D
:102DA000012210211548FEF715FC01221146144896
:102DB000FEF710FC102001900120029000200390EB
:102DC0000320049001A90D48FEF76CFA0120019040
:102DD0000290002003900320049001A90848FEF708
:102DE00061FA0220019000200290039001A904489A
:102DF000FEF758FA05B000BD00100240000801407F
:102E0000000C014010B50E480E4908604FF4827066
:102E1000486000210B488160C160016141614FF44D
:102E2000007181611021C1610021016241628162F2
:102E30000A21C162FFF702F808B1FDF7C8FE10BD14
:102E4000003001405C00002010B50B480B490860C1
:102E50004FF4E1304860002108488160C1600161A1
:102E60000C21416100218161C161FFF75BFD08B167
:102E7000FDF7ADFE10BD000000380140B400002099
:102E800000BFFEE700BFFEE77047000008B5084935
:102E90000968C9084FF47A72B1FBF2F1414300911D
:102EA00000BF00BF00994A1E00920029F9D108BD59
:102EB00014000020F8B504460E4615466068B0F5CB
:102EC000827F0DD1A068B0F5004F03D0A068B0F5A7
:102ED000806F05D12068006820F0400021680860FC
:102EE0006068B0F5827F11D1A068B0F5806F0DD118
:102EF0003346002201212046009500F02BF898B1BE
:102F0000606D40F0200060650320F8BD334600226C
:102F100080212046009500F01DF828B1606D40F03A
:102F2000200060650320F0E70020EEE7F8B50446D6
:102F30000D4616462B46002280212046009600F0C2
:102F400009F828B1606D40F0200060650320F8BDED
:102F50000020FCE72DE9F84F04460D4690461E463A
:102F6000DDF82890FEF73CFBA0EB0900371AFEF7CE
:102F700037FB82462C480068C0F3CB307843009082
:102F800045E0701C002842D0FEF72AFBA0EB0A00A7
:102F9000B84200D2A7BB2068406820F0E00021685A
:102FA00048606068B0F5827F0DD1A068B0F5004F31
:102FB00003D0A068B0F5806F05D12068006820F0CC
:102FC000400021680860A06AB0F5005F0DD100BF25
:102FD0002068006820F400502168086020680068BC
:102FE00040F400502168086000BF012084F85100BF
:102FF00000BF002084F8500000BF0320BDE8F88F18
:10300000FFE7009800B900270098401E0090206854
:1030100080682840A84201D1012000E000204045FE
:10302000AFD10020EAE7000014000020704710B57F
:10303000FEF7DCFA10BD00B58FB0282105A8FDF71A
:103040009AF814216846FDF796F8012005900004CF
:103050000690002007900120099002200C90C103E7
:103060000D914FF4E0110E9105A8FEF7B5FC08B1E3
:10307000FDF7ADFD0F20009002200190002002908E
:103080004FF4806003900020049002216846FEF710
:103090007FFB08B1FDF79BFD0FB000BD704770B519
:1030A00005466C6A0020E085E0842046FFF7C6FAFA
:1030B00070BD00BF00BF02680C3252E8002F22F43E
:1030C000907102680C3242E80013002BF3D100BF6C
:1030D00000BF00BF0268143252E8002F22F0010145
:1030E0000268143242E80013002BF3D100BF016BD9
:1030F00001290ED100BF00BF02680C3252E8002F38
:1031000022F0100102680C3242E80013002BF3D1C8
:1031100000BF202180F8421000210163704710B5E4
:1031200004462068C06820F040002168C860202064
:1031300084F841002046FFF7D7FC002010BDF8B509
:10314000044694F84200222875D1A068B0F5805F4B
:103150000CD1206950B90025A66A20684068C0F3E8
:1031600008003080A06A801CA06215E0A56A0026D5
:10317000A068B0F5805F03D0A06828B9206918B9AD
:1031800020684068287004E02068406800F07F00F4
:103190002870A06A401CA062E08D401E80B2E085CD
:1031A000002846D12068C06820F020002168C8604F
:1031B0002068C06820F480702168C8602068406979
:1031C00020F0010021684861202084F8420000209E
:1031D0006063206B012826D10020206300BF00BF60
:1031E00021680C3151E8001F21F0100021680C31DA
:1031F00041E80002002AF3D100BF2068006800F017
:10320000100010280AD100BF00200090206800683C
:10321000009020684068009000BF00BFA18D20464C
:10322000FFF7BEF902E02046FFF704FC0020F8BDDE
:1032300001E00020FBE70220F9E7000070B504463A
:103240002168096921F44051E26811432268116143
:103250002269A1681143626941EA02052168C968CF
:1032600041F20C62914329432268D1602168496987
:1032700021F44071A2691143226851612D4A2168ED
:10328000914202D1FEF760FB01E0FEF74DFB00EB3F
:10329000C00101EB001162689200B1FBF2F100EB9A
:1032A000C00202EB001263689B00B2FBF3F26423DE
:1032B000B2FBF3F202EBC20303EB0212A1EB8201B9
:1032C000322202EB01116422B1FBF2F101F0F001B4
:1032D00000EBC00202EB001263689B00B2FBF3F24A
:1032E0006423B2FBF3F201EB021200EBC00101EB2D
:1032F000001163689B00B1FBF3F100EBC00303EB2B
:1033000000136668B600B3FBF6F36426B3FBF6F36E
:1033100003EBC30606EB0313A1EB8301322303EB9C
:1033200001116423B1FBF3F101F00F011144226894
:10333000916070BD0038014010B5034699629A85CE
:10334000DA8500205864222083F84200186928B1E9
:103350001868C06840F480701C68E06018684069B4
:1033600040F001001C6860611868C06840F02000EF
:103370001C68E060002010BD014691F84100212842
:1033800028D18868B0F5805F0BD1086948B90A6A0E
:103390001088C0F308000B685860086A801C086237
:1033A00005E00B6A581C086218780B685860C88CD6
:1033B000401E80B2C88458B90868C06820F08000F8
:1033C0000B68D8600868C06840F040000B68D8609F
:1033D000002070470220FCE72DE9F04104460D462D
:1033E00017469846069E34E0701C88B32EB1FEF74F
:1033F000F7F8A0EB0800B0422BD900BF00BF21684E
:103400000C3151E8001F21F4D07021680C3141E8E3
:103410000002002AF3D100BF00BF00BF21681431B1
:1034200051E8001F21F001002168143141E8000239
:10343000002AF3D100BF202084F8410084F8420024
:1034400000BF002084F8400000BF0320BDE8F081E9
:10345000FFE7206800682840A84201D1012000E071
:103460000020B842C0D00020F0E7000010B50248AC
:10347000FFF7E6F810BD0000B400002000BFFEE733
:103480000FB4054B10B503A9044A029800F02CF9BB
:1034900010BC5DF814FB0000D14000082C00002097
:1034A000014B024A00F020B9D14000082C00002056
:1034B0004100080218BF04200A0E18BF40F00100A6
:1034C0004FF07F4232EA010108BF40F002000128BC
:1034D00008BF05207047000002480068C0F30220C2
:1034E000704700000CED00E010B5002804DB0A076F
:1034F000130E054A135406E00A07140E034A00F09F
:103500000F031B1FD45410BD00E400E018ED00E0D1
:1035100000214FF07E50FCF77DBEFDF757B800212B
:103520000846FCF777BE61214FF0E040FDF7A6B8F2
:103530006FF05E010807FDF7A1B802E008C8121F8E
:1035400008C1002AFAD170477047002001E001C18C
:10355000121F002AFBD17047014908607047000024
:10356000300000202DE9FF5F82B00021DDE904304A
:10357000020DDDF840B0034318D044F61050A2F21B
:10358000FF3242431514119801281FD0A5EB0B0000
:10359000401C5FEA000A4FF000064E4FDFF83891FA
:1035A000B046504615D5CAF1000413E01198012425
:1035B0004AA3012801D16FEA0B010298119AC0E9D0
:1035C0000031C0E9024206B0BDE8F09FCBF1000037
:1035D000DFE704460021404A491842EB0450CDE998
:1035E000001012E0E00707D032463B46404649460D
:1035F000FCF74EFE8046894632463B461046194649
:10360000FCF746FE06460F466410002CEAD1DDE9C1
:103610000401DDE90023BAF1000F06DAFCF738FEF9
:1036200042464B46FCF734FE05E0FCF7A3FE42465B
:103630004B46FCF79FFE04460E460022284BFDF742
:1036400075F903D84FF0FF30014607E00022254B03
:1036500020463146FDF77BF8FDF729F9102409E0F3
:10366000002C0ADB0A220023FCF748FF039B3032C0
:103670001A55641E50EA0102F2D1641C039AC4F187
:1036800011031444119A012A03D0012208430DD1D9
:103690000AE0084304D000204FF0110B119072E7AC
:1036A000A3EB0B056D1E0DE05B4504DD4FF0000242
:1036B00005F1010504E003DA4FF00002A5F1010570
:1036C000002AECD002981199C0E90231C0E9004506
:1036D00079E70000000014400000F03F30000000D7
:1036E0000000F0430000E03F2DE9FF4F95B09B46FE
:1036F0008946064600250FE2252877D10024274673
:10370000F84A0121059400E0044316F8013F203BEC
:1037100001FA03F01042F7D130782A2811D06FF067
:103720002F033078A0F13002092A16D8059A44F008
:10373000020402EB820203EB42021044761C059065
:10374000EFE759F8042B0592002A03DA504244F4BB
:103750000054059044F00204761C30782E2816D1CF
:1037600016F8010F44F004042A280DD06FF02F0240
:103770003078A0F13003092B09D807EB870302EB5F
:103780004303C718761CF3E759F8047B761C30789E
:103790006C280FD006DC4C2817D068280DD06A287A
:1037A00014D104E0742810D07A280FD10DE044F42D
:1037B00000140AE044F4801401E044F440147278E8
:1037C000824202D104F58014761C761C307866287B
:1037D0000BD013DC582877D009DC002875D0452899
:1037E000F6D04628F4D047281AD19DE118E0632886
:1037F00035D0642879D0652812D195E1702873D02E
:1038000008DC6728F1D069286FD06E280DD06F28AA
:1038100006D1B5E073282CD0752875D0782874D0DF
:103820005A46179990476D1C75E1C4F3025002285F
:1038300009D003280DD0D9F8001004280DD00D6050
:1038400009F1040967E1D9F80010EA17C1E900524B
:10385000F6E7D9F800100D80F2E70D70F0E719F8DF
:10386000041B8DF8001000208DF80100EA460120AD
:1038700003E059F804AB4FF0FF3061074FF000014F
:1038800002D40DE008F101018846B9420FDA804503
:10389000F8DB1AF808100029F4D108E008F101015A
:1038A00088468142FADB1AF808100029F6D10598FB
:1038B0005B46A0EB080721463846179A00F094FAB9
:1038C000284400EB080507E04DE029E10DE01AF877
:1038D000010B5A4617999047B8F10108F7D25B4699
:1038E00021463846179A13E142E00A220092C4F3B7
:1038F00002524FF0000A022A08D059F804CB032ADA
:103900004FEAEC710AD00DE029E02AE009F1070145
:1039100021F00702F2E802C1914609E00FFA8CFC9F
:103920004FEAEC71042A03D14FFA8CFC4FEAEC7198
:10393000002907DA0A460021DCF1000C61EB0201E4
:103940002D2202E0220504D52B228DF8042001222D
:1039500003E0E20701D02022F7E7904659E00A2170
:1039600002E010220DE010214FF0000A00910BE060
:1039700010224FF0000A44F004040827009203E0EC
:1039800008224FF0000A0092C4F30252022A05D026
:1039900059F804CB0021032A08D009E009F10701F6
:1039A00021F00702F2E802C1914605E01FFA8CFC03
:1039B000042A01D10CF0FF0C4FF00008220728D593
:1039C000702806D0009B83F0100353EA0A0305D049
:1039D0000EE040228DF80420012208E05CEA01029A
:1039E00006D030228DF804208DF805000222904682
:1039F000009B83F0080353EA0A030AD15CEA010240
:103A000001D1620705D530228DF804204FF001085E
:103A10007F1E582804D034A003900EA802900DE019
:103A200036A0F9E753466046009AFCF767FD8446E6
:103A30000398825C0298401E029002705CEA0100CA
:103A4000F0D1029806A9081A00F1200A600702D5F1
:103A500024F4803400E00127574502DDA7EB0A007B
:103A600000E0002000EB0A01009005984144401A54
:103A70000590E00306D45B462146179A059800F0AE
:103A8000B3F90544002706E001A85A46C05D17991E
:103A900090476D1C7F1C4745F6DBE0030CD55B4669
:103AA0002146179A059800F09FF9054404E030205C
:103AB0005A46179990476D1C0099481E009000299E
:103AC000F5DC08E0029802995A460078491C0291F8
:103AD000179990476D1CBAF10001AAF1010AF1DCB7
:103AE00065E10000092801003031323334353637C2
:103AF000383961626364656600000000303132333A
:103B000034353637383941424344454600000000D9
:103B100000F058F90544761C307800287FF4ECADAD
:103B200019B02846BDE8F08F620700D4062709F1D6
:103B3000070222F0070CFCE80223E14603F00048EC
:103B40005FEA080C02D00FF2702C0DE05FEA045C13
:103B500002D50FF2682C07E05FEAC47C02D00FF2B6
:103B6000602C01E0AFF2700C4FF0FF3823F00043FF
:103B7000CDF850C065280CD006DC452809D0462871
:103B80001DD047283DD13DE0662818D067287ED15A
:103B900038E00021112F01DB112000E0781CCDE975
:103BA000000106A90EA8FFF7DDFCDDE90F010E9A62
:103BB00003910021009207F1010A04914DE04FF0BA
:103BC00000400097CDE9011006A90EA8FFF7CAFC36
:103BD000DDE90F0203920E9B11990022DDF80CA083
:103BE0000093049211B9791C00EB010AB7EB0A00AB
:103BF00004D4C0F1FF3007F1010A0490AAEB0700DA
:103C0000019044E0012F00DA01270021112F01DD8E
:103C1000112000E03846CDE9000106A90EA8FFF703
:103C2000A1FCDDE90F010E9A03910021049100929D
:103C3000BA4621070CD40399514500DA8A46BAF1F5
:103C4000010F05DD009AAAF10101515C302908D06D
:103C5000B84202DA10F1040F06DA0121CDE90110B1
:103C600015E0AAF10101E9E7002805DC0499014407
:103C70000491AAEB000102E0411C514500DD8A4697
:103C80000499401A401C01904FF000400290200718
:103C900004D40198504501DBCDF8048000208DF854
:103CA0004F0002980DF14F07B0F1004F25D02B20A7
:103CB0000E9002984FF0020800280CDA4042029061
:103CC0002D200E9007E00A210298FCF701FC30310C
:103CD000029007F8011DB8F10001A8F10108F2DC1B
:103CE00002980028EFD1791E0E980870307800F005
:103CF000200040F0450007F8020D12A8C01B00F19B
:103D000007081498007800B1012000EB0A0101981F
:103D100001EBE07105984144401A401E0590E00314
:103D200006D45B462146179A059800F05DF80544D5
:103D30001498007818B15A46179990476D1CE00303
:103D400024D55B462146179A059800F04DF80544A6
:103D50001CE00498002807DBDDE90301884203DD4D
:103D60000098405C179901E0179930205A46904717
:103D7000049805F10105401C04900198401E019033
:103D800004D12E205A46179990476D1CBAF10001B4
:103D9000AAF1010ADDDC05E017F8010B5A46179974
:103DA00090476D1CB8F10001A8F10108F4DC5B46F6
:103DB0002146179A0598ABE62D0000002B00000065
:103DC000200000002DE9F041044600251E4617465C
:103DD000880404D405E039462020B0476D1C641ED9
:103DE000F9D52846BDE8F0812DE9F04104460025CB
:103DF0001E469046C80301D5302700E020278804DE
:103E000004D505E041463846B0476D1C641EF9D51F
:103E10002846BDE8F08138B5044664251AE06846B6
:103E20006169884708B1012038BD9DF8000008B9D4
:103E30000020F9E79DF80000012809D145B10A20CA
:103E4000616A8847681EC5B205B103E00120EBE74F
:103E50000120E9E7E3E72DE9FF41044615461E4648
:103E600033462A46012101A8276AB84718B1012024
:103E700004B0BDE8F0810020FAE70000F8B5044680
:103E80000E4617461D46B5F5C07F04DB11A0A16A9A
:103E900088470220F8BD4FF4C07104F13600FCF7EA
:103EA0006AF91E208DF800008DF801606B1C04F18A
:103EB000360202216846D4F820C0E04708B101204C
:103EC000E8E72A4604F137013846FCF73BF90020C1
:103ED000E0E700006C6C636336383A206C656E2056
:103EE0006973206F766572203338332E0A00000024
:103EF000F8B504460E4617461D46B5F5C07F04DBEF
:103F000013A0A16A88470220F8BD4FF4C07104F1E4
:103F10003600FCF730F91D208DF80000300A8DF8CE
:103F20000100F0B28DF802006B1C04F1360203218F
:103F30006846D4F820C0E04708B10120E4E72A46EB
:103F400004F137013846FCF7FDF80020DCE70000FB
:103F50006C6C636336383A206C656E206973206F31
:103F6000766572203338332E0A0000002DE9F041C7
:103F700004460E4617461D46B5F5C07F05DB10A06A
:103F8000A16A88470220BDE8F0814FF4C07104F1B6
:103F90003600FCF7F0F884F836602A46394604F11A
:103FA0003700FCF7CFF800231A46691C04F13600ED
:103FB000D4F820C0E04708B10120E4E70020E2E7A0
:103FC0006C6C636336383A206C656E206973206FC1
:103FD000766572203338332E0A0000002DE9F04157
:103FE00004460E4617461D46B5F5BF7F05DD12A0F7
:103FF000A16A88470220BDE8F0814FF4C07104F146
:104000003600FCF7B8F80E2084F836003720065545
:104010002A46394604F13800FCF794F800231A4682
:10402000A91C04F13600D4F820C0E04708B10120F3
:10403000E1E70020DFE700006C6C636336383A206C
:104040006C656E206973206F766572203338322E6E
:104050000A0000002DE9F04104460E4617461D46B1
:10406000B5F5BF7F05DB13A0A16A88470220BDE834
:10407000F0814FF4C07104F13600FCF77CF80D209C
:1040800084F83600310A37200155382006552A4673
:10409000394604F13900FCF755F800231A46E91CAB
:1040A00004F13600D4F820C0E04708B10120DEE773
:1040B0000020DCE76C6C636336383A206C656E2058
:1040C0006973206F766572203338312E0A00000044
:1040D00013B50C464FF6FF73012269460248FEF7FE
:1040E000AAFC00981CBD0000B400002038B50446AE
:1040F0000CB9022038BD94F83000012801D003200B
:10410000F8E72046FFF787FE054625B10CA0A16A17
:1041100088470420EEE700208DF800008DF80100AC
:1041200002236A4607212046FFF720FF054625B1F6
:1041300009A0A16A88470120DCE70020DAE7000037
:104140006C6C636336383A20636869702069732049
:10415000627573792E0A00006C6C636336383A20FE
:10416000636C65617220646576696365206572724F
:104170006F7273206661696C65642E0A000000002E
:10418000F8B504460E460CB90220F8BD94F830008C
:10419000012801D00320F8E72046FFF73CFE054642
:1041A00025B10DA0A16A88470420EEE7300A8DF8FA
:1041B0000000F0B28DF8010002236A46194620463D
:1041C000FFF7D4FE054625B109A0A16A8847012062
:1041D000DBE70020D9E700006C6C636336383A20D7
:1041E0006368697020697320627573792E0A000014
:1041F0006C6C636336383A20636C65617220697257
:104200007120737461747573206661696C65642EC6
:104210000A000000F8B504460CB90220F8BD94F875
:104220003000012801D00320F8E72046FFF7F3FD16
:10423000054625B11CA0A16A88470420EEE740F29C
:10424000FF36300A8DF80000F0B28DF8010002232D
:104250006A4619462046FFF789FE054625B118A093
:10426000A16A88470120D9E72046FFF7D4FD05461B
:1042700025B10DA0A16A88470420CFE7FF208DF863
:1042800000008DF801008DF8020003236A468221A8
:104290002046FFF76BFE054625B112A0A16A8847AC
:1042A0000120BBE70020B9E76C6C636336383A2025
:1042B0006368697020697320627573792E0A000043
:1042C0006C6C636336383A20636C65617220697286
:1042D0007120737461747573206661696C65642EF6
:1042E0000A0000006C6C636336383A2073657420F2
:1042F0007278206661696C65642E0A0038B50446E0
:104300000CB9022038BD94F83000012801D00320F8
:10431000F8E72046FFF77FFD054625B118A0A16A02
:1043200088470420EEE70020009001236A4684219C
:104330002046FFF71BFE054625B117A0A16A884756
:104340000520DFE720698047054625B119A0A16A4D
:1043500088470620D6E760688047054625B11EA03D
:10436000A16A88470720CDE7E0698047054625B167
:1043700022A0A16A88470120C4E70020C2E700000C
:104380006C6C636336383A20636869702069732007
:10439000627573792E0A00006C6C636336383A20BC
:1043A000706F77657220646F776E206661696C65E7
:1043B000642E0A006C6C636336383A206275737938
:1043C000206770696F206465696E69742066616931
:1043D0006C65642E0A0000006C6C636336383A200A
:1043E0007265736574206770696F206465696E69B2
:1043F00074206661696C65642E0A00006C6C6363EE
:1044000036383A20737069206465696E6974206675
:1044100061696C65642E0A002DE9F84F04460D466B
:10442000164614B90220BDE8F88F94F83000012830
:1044300001D00320F7E72846FCF70BF80E4900905F
:104440000E4802F027F983464FF08441FBF7B0FE97
:1044500081460B49C80202F01DF982464946FBF726
:10446000D9FE80460099FBF7A3FE0746FCF703F848
:1044700030600020D7E700000000C040000020416D
:104480000000C84170B504460E460CB9022070BD4C
:1044900094F83000012801D00320F8E72046FFF708
:1044A000BAFC054625B10AA0A16A88470420EEE7B8
:1044B0000123324640F236712046FFF719FD0546CA
:1044C00025B109A0A16A88470120E0E70020DEE7C6
:1044D0006C6C636336383A206368697020697320B6
:1044E000627573792E0A00006C6C636336383A206B
:1044F00072656164207265676973746572206661B4
:10450000696C65642E0A000070B504460E460CB94D
:10451000022070BD94F83000012801D00320F8E794
:104520002046FFF778FC054625B10AA0A16A884716
:104530000420EEE70123324640F6D8012046FFF77B
:10454000D7FC054625B109A0A16A88470120E0E70C
:104550000020DEE76C6C636336383A20636869706C
:1045600020697320627573792E0A00006C6C636396
:1045700036383A20726561642072656769737465C4
:1045800072206661696C65642E0A000070B504468D
:104590000E460CB9022070BD94F83000012801D0FD
:1045A0000320F8E72046FFF736FC054625B10AA0B0
:1045B000A16A88470420EEE70123324640F68901CC
:1045C0002046FFF795FC054625B109A0A16A88475A
:1045D0000120E0E70020DEE76C6C636336383A20A8
:1045E0006368697020697320627573792E0A000010
:1045F0006C6C636336383A2072656164207265675B
:104600006973746572206661696C65642E0A0000C6
:104610001CB504460CB902201CBDA06A08B90320D1
:10462000FAE7A06920B965A0A16A88470320F3E7EB
:10463000E06920B968A0A16A88470320ECE7206AF6
:1046400020B96DA0A16A88470320E5E7206820B95A
:1046500072A0A16A88470320DEE7606820B978A0CD
:10466000A16A88470320D7E7A06820B97DA0A16A86
:1046700088470320D0E7E06820B983A0A16A884773
:104680000320C9E7206920B988A0A16A88470320D0
:10469000C2E7606920B98EA0A16A88470320BBE702
:1046A000606A20B993A0A16A88470320B4E7E06A52
:1046B00020B997A0A16A88470320ADE7A069804789
:1046C00020B19CA0A16A88470120A5E72068804707
:1046D00030B1A1A0A16A8847E069804704209BE728
:1046E000E068804740B1A7A0A16A8847E069804799
:1046F0006068804705208FE70120A168884750B196
:10470000ABA0A16A8847E06980476068804720695C
:104710008047062080E70520616A88470020A1685D
:10472000884750B1A2A0A16A8847E06980476068C5
:1047300080472069804706206EE70A20616A884723
:104740000120A168884750B199A0A16A8847E06913
:104750008047606880472069804706205CE7052025
:10476000616A8847012301AAC0212046FFF773FB35
:1047700050B196A0A16A8847E06980476068804789
:1047800020698047062047E70020009001236A4601
:1047900080212046FFF7EAFB50B193A0A16A884729
:1047A000E06980476068804720698047062033E7DA
:1047B000012084F8300000202EE700006C6C636359
:1047C00036383A207370695F696E697420697320A6
:1047D0006E756C6C2E0A00006C6C636336383A2080
:1047E0007370695F6465696E6974206973206E75A2
:1047F0006C6C2E0A000000006C6C636336383A2043
:104800007370695F77726974655F7265616420694E
:1048100073206E756C6C2E0A000000006C6C636374
:1048200036383A2072657365745F6770696F5F69C7
:104830006E6974206973206E756C6C2E0A0000001E
:104840006C6C636336383A2072657365745F6770A9
:10485000696F5F6465696E6974206973206E756C39
:104860006C2E0A006C6C636336383A20726573658F
:10487000745F6770696F5F77726974652069732010
:104880006E756C6C2E0A00006C6C636336383A20CF
:10489000627573795F6770696F5F696E69742069AB
:1048A00073206E756C6C2E0A000000006C6C6363E4
:1048B00036383A20627573795F6770696F5F646537
:1048C000696E6974206973206E756C6C2E0A000025
:1048D0006C6C636336383A20627573795F67706910
:1048E0006F5F72656164206973206E756C6C2E0A4F
:1048F000000000006C6C636336383A2064656C61BC
:10490000795F6D73206973206E756C6C2E0A0000E0
:104910006C6C636336383A20726563656976655FEF
:1049200063616C6C6261636B206973206E756C6C83
:104930002E0A00006C6C636336383A20737069206D
:10494000696E697469616C697A6174696F6E2066F9
:1049500061696C65642E0A006C6C636336383A20BA
:104960007265736574206770696F20696E69746918
:10497000616C697A6174696F6E206661696C6564E7
:104980002E0A00006C6C636336383A2062757379C6
:10499000206770696F20696E697469616C697A61FA
:1049A00074696F6E206661696C65642E0A00000090
:1049B0006C6C636336383A20726573657420636883
:1049C0006970206661696C65642E0A006C6C6363B3
:1049D00036383A2067657420737461747573206685
:1049E00061696C65642E0A006C6C636336383A202A
:1049F000736574207374616E646279206661696C9A
:104A000065642E0A000000000020704700207047F7
:104A100010B5044602210348FCF7D4FD20700020A5
:104A200010BD0000000C01400FB408B503A80090B1
:104A300000990298FEF734FD0020009001B05DF867
:104A400014FB10B504462046FCF746FB10BD0000E1
:104A500070B504460D461646202C2CD00CDC042CD8
:104A60001DD004DC012C12D0022C38D113E0082C0C
:104A700019D0102C33D11AE0402C20D0802C22D019
:104A8000B4F5807F23D0B4F5007F28D123E017A0B0
:104A9000FFF7CAFF27E01BA0FFF7C6FF23E01FA018
:104AA000FFF7C2FF1FE025A0FFF7BEFF1BE02DA010
:104AB000FFF7BAFF17E032A0FFF7B6FF13E037A009
:104AC000FFF7B2FF0FE03BA0FFF7AEFF0BE03FA008
:104AD000FFF7AAFF07E044A0FFF7A6FF03E048A006
:104AE000FFF7A2FF00BF00BF70BD00006C6C6363E6
:104AF00036383A2069727120747820646F6E652EA2
:104B00000A0000006C6C636336383A2069727120C9
:104B1000727820646F6E652E0A0000006C6C63630F
:104B200036383A2069727120707265616D626C6509
:104B30002064657465637465642E0A006C6C63633D
:104B400036383A206972712076616C696420737915
:104B50006E6320776F726420646574656374656446
:104B60002E0A00006C6C636336383A20697271203B
:104B700076616C6964206865616465722E0A000064
:104B80006C6C636336383A206972712068656164C1
:104B90006572206572726F722E0A00006C6C63631E
:104BA00036383A2069727120637263206572726FC1
:104BB000722E0A006C6C636336383A206972712079
:104BC00063616420646F6E652E0A00006C6C636321
:104BD00036383A20697271206361642064657465B7
:104BE000637465642E0A00006C6C636336383A2087
:104BF0006972712074696D656F75742E0A0000000A
:104C00006C6C636336383A20756E6B6E6F776E200E
:104C1000636F64652E0A0000002070470020704713
:104C200010B504462CB9002201210548FCF7D2FC3E
:104C300004E0012211460248FCF7CCFC002010BD24
:104C4000000C014000207047002070472DE9F04122
:104C500004460E4615461F46002210211948FCF74F
:104C6000B9FC9CB1B2B24FF47A7321461648FDF7F5
:104C700046FA8046B8F1000F07D0012210211148F2
:104C8000FCF7A8FC0120BDE8F08100BF95B1BAB2E5
:104C90004FF47A7329460C48FDF772F98046B8F153
:104CA000000F06D0012210210648FCF793FC0120DA
:104CB000E9E700BF012210210248FCF78BFC00202D
:104CC000E1E70000000801405C0000202DE9FE4300
:104CD000044614B90220BDE8FE8394F83000012890
:104CE00001D00320F7E700200290032302AA12213B
:104CF0002046FFF7B0F8064626B17AA0A16A884799
:104D00000120E8E79DF80A009DF8091040EA012516
:104D100002230DF1090219462046FFF727F906463E
:104D200026B178A0A16A88470120D4E7002084F842
:104D3000340005F0040030B1E06A20B100221146D1
:104D40000420E36A984705F0080030B1E06A20B11A
:104D5000002211460820E36A984705F0100030B1A0
:104D6000E06A20B1002211461020E36A984705F05E
:104D7000200030B1E06A20B1002211462020E36A11
:104D8000984705F0400048B1E06A20B10022114682
:104D90004020E36A9847012084F8340005F0800041
:104DA00048B1E06A20B1002211468020E36A9847AA
:104DB000012084F8320005F4807050B1E06A28B117
:104DC000002211464FF48070E36A9847012084F86E
:104DD000330005F4007000283CD00020019001232E
:104DE00001AA4FF412612046FFF734F9064626B1B6
:104DF0004DA0A16A884701206DE701236A4640F66D
:104E000044112046FFF774F8064626B14EA0A16A69
:104E1000884701205FE79DF8000040F00200009005
:104E200001236A4640F644112046FFF713F906466F
:104E300026B13DA0A16A884701204CE7E06A28B16D
:104E4000002211464FF40070E36A9847012084F86D
:104E5000350000BF05F0010048B1E06A20B1002232
:104E600011460120E36A9847012084F8310005F0DB
:104E70000200002834D000200290032302AA13214C
:104E80002046FEF7E8FF064626B137A0A16A88470C
:104E9000012020E79DF809709DF80A803B4604F543
:104EA000DB7241462046FEF7E9FF064626B138A0F0
:104EB000A16A884701200EE7E06A80B194F83400C7
:104EC00040B9A4F8B6723A4604F5DB710220E36AF1
:104ED000984704E0002211460220E36A984700BF89
:104EE0000020F8E66C6C636336383A2067657420FE
:104EF00069727120737461747573206661696C6581
:104F0000642E0A006C6C636336383A20636C65610A
:104F1000722069727120737461747573206661699F
:104F20006C65642E0A0000006C6C636336383A20AE
:104F3000777269746520726567697374657220663B
:104F400061696C65642E0A006C6C636336383A20C4
:104F50007265616420726567697374657220666149
:104F6000696C65642E0A00006C6C636336383A2005
:104F70006765742072782062756666657220737446
:104F800061747573206661696C65642E0A000000A7
:104F90006C6C636336383A207265616420627566B2
:104FA000666572206661696C65642E0A0000000007
:104FB0001FB54FF42E71B348FBF7DDF8B248B14985
:104FC0008861B248C861B2480862B2480860B24815
:104FD0004860B2488860B248C860B2480861B248C8
:104FE0004861B2484862B2488862B248C86208461E
:104FF000FFF70EFB04462CB1AFA0FFF715FD012013
:1050000004B010BD01219F4801F0DAF904463CB11B
:10501000AFA0FFF709FD9B48FFF770F90120EFE70C
:105020000021984801F00EFA04463CB1B0A0FFF709
:10503000FBFC9448FFF762F90120E1E70121914868
:1050400001F0A0F804463CB1B3A0FFF7EDFC8D4899
:10505000FFF754F90120D3E703220221894801F028
:1050600001F804463CB1B5A0FFF7DEFC8548FFF728
:1050700045F90120C4E73021824801F059F904467E
:105080003CB1B6A0FFF7D0FC7E48FFF737F901200E
:10509000B6E701217B4801F031F804463CB1BAA0E3
:1050A000FFF7C2FC7748FFF729F90120A8E70022A3
:1050B0001121744801F092FA04463CB1BBA0FFF7FD
:1050C000B3FC7048FFF71AF9012099E7002001238B
:1050D0000422092100906B4800F040FE04463CB1D8
:1050E000BAA0FFF7A1FC6748FFF708F9012087E79E
:1050F00003AAC1496348FFF78FF904463CB1BFA03A
:10510000FFF792FC5F48FFF7F9F8012078E75D4868
:10511000039901F07BF804463CB1C2A0FFF784FC80
:105120005848FFF7EBF801206AE70022114655487E
:1051300000F020FD04463CB1C3A0FFF775FC5148C8
:10514000FFF7DCF801205BE700214E4800F0B8FED5
:1051500004463CB1C7A0FFF767FC4A48FFF7CEF80A
:1051600001204DE700231A461946464800F0A8FCE6
:1051700004463CB1CAA0FFF757FC4248FFF7BEF80F
:1051800001203DE73F48FEF7B1FF04463CB1CCA00B
:10519000FFF74AFC3B48FFF7B1F8012030E743F244
:1051A0005641384800F0D4FE04463CB1CEA0FFF78B
:1051B0003BFC3448FFF7A2F8012021E702A931485F
:1051C000FFF7E4F904463CB1D0A0FFF72DFC2D48D1
:1051D000FFF794F8012013E79DF8080040F0040061
:1051E00002909DF80810274801F0B6F904463CB13A
:1051F000CFA0FFF719FC2348FFF780F80120FFE656
:105200009421204801F052F804463CB1D1A0FFF7A8
:105210000BFC1C48FFF772F80120F1E63821194811
:1052200000F0DEFE04463CB1D2A0FFF7FDFB1548BE
:10523000FFF764F80120E3E601A91248FFF764F9DB
:1052400004463CB1D2A0FFF7EFFB0E48FFF756F83B
:105250000120D5E69DF8040040F01E0001909DF865
:105260000410084801F036F904463CB1D2A0FFF71B
:10527000DBFB0448FFF742F80120C1E600F0DCF94F
:105280000020BDE620040020494C0008454C0008E1
:105290004D4C00081D4C0008194C0008214C00081A
:1052A0000D4A0008094A0008114A0008434A00084C
:1052B000294A0008514A00086C6C636336383A206A
:1052C000696E6974206661696C65642E0A0000006D
:1052D0006C6C636336383A20736574207374616E46
:1052E000646279206661696C65642E0A00000000C2
:1052F0006C6C636336383A2073746F702074696D18
:105300006572206F6E20707265616D626C652066DB
:1053100061696C65642E0A006C6C636336383A20F0
:1053200073657420726567756C61746F72206D6F40
:105330006465206661696C65642E0A006C6C636349
:1053400036383A2073657420706120636F6E666929
:1053500067206661696C65642E0A00006C6C63638B
:1053600036383A207365742072782074782066612C
:105370006C6C6261636B206D6F6465206661696C43
:1053800065642E0A000000006C6C636336383A20B6
:10539000736574207061636B657420747970652027
:1053A0006661696C65642E0A000000006C6C6363C2
:1053B00036383A2073657420747820706172616D9C
:1053C00073206661696C65642E0A00006C6C63630F
:1053D00036383A20736574206C6F7261206D6F648B
:1053E000756C6174696F6E20706172616D73206697
:1053F00061696C65642E0A0000389C1C6C6C6363E8
:1054000036383A20636F6E7665727420746F20723E
:1054100065676973746572206661696C65642E0ADC
:10542000000000006C6C636336383A2073657420AA
:105430007266206672657175656E63792066616952
:105440006C65642E0A0000006C6C636336383A2089
:10545000736574206275666665722062617365208B
:1054600061646472657373206661696C65642E0A99
:10547000000000006C6C636336383A20736574205A
:105480006C6F72612073796D62206E756D20746926
:105490006D656F7574206661696C65642E0A000025
:1054A0006C6C636336383A2072657365742073746C
:1054B000617473206661696C65642E0A00000000E7
:1054C0006C6C636336383A20636C65617220646586
:1054D00076696365206572726F7273206661696CAC
:1054E00065642E0A000000006C6C636336383A2055
:1054F000736574206C6F72612073796E6320776FAF
:105500007264206661696C65642E0A006C6C63636A
:1055100036383A20676574207478206D6F64756C36
:105520006174696F6E206661696C65642E0A0000A3
:105530006C6C636336383A20736574207478206D20
:105540006F64756C6174696F6E206661696C656407
:105550002E0A00006C6C636336383A207365742041
:105560007278206761696E206661696C65642E0AD5
:10557000000000006C6C636336383A207365742059
:105580006F6370206661696C65642E0A000000001C
:105590006C6C636336383A206765742074782063D6
:1055A0006C616D7020636F6E666967206661696CFF
:1055B00065642E0A000000006C6C636336383A2084
:1055C00073657420747820636C616D7020636F6EF6
:1055D000666967206661696C65642E0A00000000D8
:1055E00010B50648FFF772FB0448B0F8B602002871
:1055F00001DD002010BD0120FCE700002004002098
:1056000030B585B004460D4600F056F8002001A9DB
:1056100031C10490012000230C220146009005486E
:1056200000F064F810B1012005B030BD00F004F8BE
:105630000020F9E7200400200EB50020034640F2C8
:10564000C232114600901B4800F0E0FA08B1012078
:105650000EBD40F2FF311748FEF792FD08B1012060
:10566000F6E700200121FF230246CDE900100C21BE
:10567000104800F0C9FB08B10120E9E702A90D4874
:10568000FEF700FF08B10120E2E79DF8080040F0B6
:10569000040002909DF80810064800F01DFB08B1B8
:1056A0000120D5E70348FEF7B5FD08B10120CFE79B
:1056B0000020CDE72004002008B50020034640F27A
:1056C000813211460090084800F0A0FA08B101208C
:1056D00008BD40F2FF310448FEF752FD08B1012039
:1056E000F6E70020F4E70000200400202DE9F04F49
:1056F00087B004468A4690469B461CB9022007B0F4
:10570000BDE8F08F94F83000012801D00320F6E7BF
:105710002046FEF780FB054625B19DA0A16A88477B
:105720000420ECE740F2FF394FEA19208DF8100011
:1057300009F0FF008DF81100022304AA1946204643
:10574000FEF714FC054625B197A0A16A8847012001
:10575000D5E72046FEF75FFB054625B18CA0A16A80
:1057600088470420CBE7CDF818A0012306AA8021A2
:105770002046FEF7FBFB054625B194A0A16A8847A9
:105780000120BCE72046FEF746FB054625B180A078
:10579000A16A88470420B2E74FEA18208DF810006C
:1057A00008F0FF008DF811008DF812B01398C0B208
:1057B0008DF8130010988DF8140011988DF81500CD
:1057C000062304AA8C212046FEF7D0FB054625B10E
:1057D00086A0A16A8847012091E7119800282BD163
:1057E0002046FEF718FB054625B169A0A16A884747
:1057F000042084E7012303AA40F236712046FEF715
:1058000077FB054625B184A0A16A8847012076E789
:105810009DF80C0040F004000390012303AA40F21D
:1058200036712046FEF716FC054625B17AA0A16A1E
:105830008847012063E72BE02046FEF7ECFA054697
:1058400025B153A0A16A8847042058E7012303AA81
:1058500040F236712046FEF74BFB054625B16EA09F
:10586000A16A884701204AE79DF80C0020F0040057
:105870000390012303AA40F236712046FEF7EAFBAB
:10588000054625B164A0A16A8847012037E700BF1B
:105890002046FEF7C0FA054625B13DA0A16A88471B
:1058A00004202CE700212046DDE91223FEF796FBB9
:1058B00020B161A0A16A8847012020E72046FEF7B9
:1058C000AAFA054625B132A0A16A8847042016E746
:1058D0001498FAF7C3FD00225F4BCDE90001FAF7F7
:1058E00049FDCDE90201FAF7DAFD0746380C8DF8DB
:1058F0001000380A8DF81100F8B28DF8120000205F
:1059000084F8310084F83500032304AA832120465B
:10591000FEF72CFB054625B150A0A16A884701205F
:10592000EDE64FF47A711498B0FBF1F042F2107189
:10593000461806E02046FFF7C9F90120616A88474A
:10594000761E36B194F8310018B994F83500002865
:10595000F0D02EB194F83100012801D10020CEE61C
:105960003EB994F8310020B942A0A16A88470520C9
:10597000C5E694F83500012804D144A0A16A8847FF
:105980000620BCE647A0A16A88470720B7E60000CA
:105990006C6C636336383A206368697020697320E1
:1059A000627573792E0A00006C6C636336383A2096
:1059B000636C6561722069727120737461747573B0
:1059C000206661696C65642E0A0000006C6C63637C
:1059D00036383A20736574207374616E646279207E
:1059E0006661696C65642E0A000000006C6C63637C
:1059F00036383A20736574206C6F7261206D6F6465
:105A0000756C6174696F6E20706172616D73206670
:105A100061696C65642E0A006C6C636336383A20E9
:105A2000726561642072656769737465722066616E
:105A3000696C65642E0A00006C6C636336383A202A
:105A40007772697465206275666665722066616941
:105A50006C65642E0A00000000402F406C6C63638C
:105A600036383A20736574207478206661696C65F5
:105A7000642E0A006C6C636336383A2073656E647A
:105A80002074696D656F75742E0A00006C6C636319
:105A900036383A206972712074696D656F75742E9D
:105AA0000A0000006C6C636336383A20756E6B6ECA
:105AB0006F776E20726573756C742E0A000000009B
:105AC0002DE9FC4104460E461746984614B90220BB
:105AD000BDE8FC8194F83000012801D00320F7E7ED
